{
  "contractName": "ZeeNFT",
  "abi": [
    {
      "inputs": [],
      "stateMutability": "nonpayable",
      "type": "constructor"
    },
    {
      "anonymous": false,
      "inputs": [
        {
          "indexed": true,
          "internalType": "address",
          "name": "owner",
          "type": "address"
        },
        {
          "indexed": true,
          "internalType": "address",
          "name": "approved",
          "type": "address"
        },
        {
          "indexed": true,
          "internalType": "uint256",
          "name": "tokenId",
          "type": "uint256"
        }
      ],
      "name": "Approval",
      "type": "event"
    },
    {
      "anonymous": false,
      "inputs": [
        {
          "indexed": true,
          "internalType": "address",
          "name": "owner",
          "type": "address"
        },
        {
          "indexed": true,
          "internalType": "address",
          "name": "operator",
          "type": "address"
        },
        {
          "indexed": false,
          "internalType": "bool",
          "name": "approved",
          "type": "bool"
        }
      ],
      "name": "ApprovalForAll",
      "type": "event"
    },
    {
      "anonymous": false,
      "inputs": [
        {
          "indexed": true,
          "internalType": "address",
          "name": "previousOwner",
          "type": "address"
        },
        {
          "indexed": true,
          "internalType": "address",
          "name": "newOwner",
          "type": "address"
        }
      ],
      "name": "OwnershipTransferred",
      "type": "event"
    },
    {
      "anonymous": false,
      "inputs": [
        {
          "indexed": true,
          "internalType": "address",
          "name": "from",
          "type": "address"
        },
        {
          "indexed": true,
          "internalType": "address",
          "name": "to",
          "type": "address"
        },
        {
          "indexed": true,
          "internalType": "uint256",
          "name": "tokenId",
          "type": "uint256"
        }
      ],
      "name": "Transfer",
      "type": "event"
    },
    {
      "inputs": [
        {
          "internalType": "address",
          "name": "to",
          "type": "address"
        },
        {
          "internalType": "uint256",
          "name": "tokenId",
          "type": "uint256"
        }
      ],
      "name": "approve",
      "outputs": [],
      "stateMutability": "nonpayable",
      "type": "function"
    },
    {
      "inputs": [
        {
          "internalType": "address",
          "name": "owner",
          "type": "address"
        }
      ],
      "name": "balanceOf",
      "outputs": [
        {
          "internalType": "uint256",
          "name": "",
          "type": "uint256"
        }
      ],
      "stateMutability": "view",
      "type": "function",
      "constant": true
    },
    {
      "inputs": [
        {
          "internalType": "uint256",
          "name": "tokenId",
          "type": "uint256"
        }
      ],
      "name": "getApproved",
      "outputs": [
        {
          "internalType": "address",
          "name": "",
          "type": "address"
        }
      ],
      "stateMutability": "view",
      "type": "function",
      "constant": true
    },
    {
      "inputs": [
        {
          "internalType": "address",
          "name": "owner",
          "type": "address"
        },
        {
          "internalType": "address",
          "name": "operator",
          "type": "address"
        }
      ],
      "name": "isApprovedForAll",
      "outputs": [
        {
          "internalType": "bool",
          "name": "",
          "type": "bool"
        }
      ],
      "stateMutability": "view",
      "type": "function",
      "constant": true
    },
    {
      "inputs": [],
      "name": "name",
      "outputs": [
        {
          "internalType": "string",
          "name": "",
          "type": "string"
        }
      ],
      "stateMutability": "view",
      "type": "function",
      "constant": true
    },
    {
      "inputs": [],
      "name": "owner",
      "outputs": [
        {
          "internalType": "address",
          "name": "",
          "type": "address"
        }
      ],
      "stateMutability": "view",
      "type": "function",
      "constant": true
    },
    {
      "inputs": [
        {
          "internalType": "uint256",
          "name": "tokenId",
          "type": "uint256"
        }
      ],
      "name": "ownerOf",
      "outputs": [
        {
          "internalType": "address",
          "name": "",
          "type": "address"
        }
      ],
      "stateMutability": "view",
      "type": "function",
      "constant": true
    },
    {
      "inputs": [],
      "name": "renounceOwnership",
      "outputs": [],
      "stateMutability": "nonpayable",
      "type": "function"
    },
    {
      "inputs": [
        {
          "internalType": "address",
          "name": "from",
          "type": "address"
        },
        {
          "internalType": "address",
          "name": "to",
          "type": "address"
        },
        {
          "internalType": "uint256",
          "name": "tokenId",
          "type": "uint256"
        }
      ],
      "name": "safeTransferFrom",
      "outputs": [],
      "stateMutability": "nonpayable",
      "type": "function"
    },
    {
      "inputs": [
        {
          "internalType": "address",
          "name": "from",
          "type": "address"
        },
        {
          "internalType": "address",
          "name": "to",
          "type": "address"
        },
        {
          "internalType": "uint256",
          "name": "tokenId",
          "type": "uint256"
        },
        {
          "internalType": "bytes",
          "name": "_data",
          "type": "bytes"
        }
      ],
      "name": "safeTransferFrom",
      "outputs": [],
      "stateMutability": "nonpayable",
      "type": "function"
    },
    {
      "inputs": [
        {
          "internalType": "address",
          "name": "operator",
          "type": "address"
        },
        {
          "internalType": "bool",
          "name": "approved",
          "type": "bool"
        }
      ],
      "name": "setApprovalForAll",
      "outputs": [],
      "stateMutability": "nonpayable",
      "type": "function"
    },
    {
      "inputs": [
        {
          "internalType": "bytes4",
          "name": "interfaceId",
          "type": "bytes4"
        }
      ],
      "name": "supportsInterface",
      "outputs": [
        {
          "internalType": "bool",
          "name": "",
          "type": "bool"
        }
      ],
      "stateMutability": "view",
      "type": "function",
      "constant": true
    },
    {
      "inputs": [],
      "name": "symbol",
      "outputs": [
        {
          "internalType": "string",
          "name": "",
          "type": "string"
        }
      ],
      "stateMutability": "view",
      "type": "function",
      "constant": true
    },
    {
      "inputs": [
        {
          "internalType": "uint256",
          "name": "tokenId",
          "type": "uint256"
        }
      ],
      "name": "tokenURI",
      "outputs": [
        {
          "internalType": "string",
          "name": "",
          "type": "string"
        }
      ],
      "stateMutability": "view",
      "type": "function",
      "constant": true
    },
    {
      "inputs": [
        {
          "internalType": "address",
          "name": "from",
          "type": "address"
        },
        {
          "internalType": "address",
          "name": "to",
          "type": "address"
        },
        {
          "internalType": "uint256",
          "name": "tokenId",
          "type": "uint256"
        }
      ],
      "name": "transferFrom",
      "outputs": [],
      "stateMutability": "nonpayable",
      "type": "function"
    },
    {
      "inputs": [
        {
          "internalType": "address",
          "name": "newOwner",
          "type": "address"
        }
      ],
      "name": "transferOwnership",
      "outputs": [],
      "stateMutability": "nonpayable",
      "type": "function"
    },
    {
      "inputs": [],
      "name": "fetchPrice",
      "outputs": [
        {
          "internalType": "uint256",
          "name": "",
          "type": "uint256"
        }
      ],
      "stateMutability": "payable",
      "type": "function",
      "payable": true
    },
    {
      "inputs": [],
      "name": "setSale",
      "outputs": [],
      "stateMutability": "nonpayable",
      "type": "function"
    },
    {
      "inputs": [
        {
          "internalType": "uint256",
          "name": "_tockenid",
          "type": "uint256"
        },
        {
          "internalType": "uint256",
          "name": "_price",
          "type": "uint256"
        }
      ],
      "name": "setTockenPrice",
      "outputs": [],
      "stateMutability": "nonpayable",
      "type": "function"
    },
    {
      "inputs": [
        {
          "internalType": "uint256",
          "name": "_tockenid",
          "type": "uint256"
        }
      ],
      "name": "getTockenPrice",
      "outputs": [
        {
          "internalType": "uint256",
          "name": "",
          "type": "uint256"
        }
      ],
      "stateMutability": "view",
      "type": "function",
      "constant": true
    },
    {
      "inputs": [
        {
          "internalType": "address",
          "name": "to",
          "type": "address"
        },
        {
          "internalType": "uint256",
          "name": "tid",
          "type": "uint256"
        }
      ],
      "name": "buyTocken",
      "outputs": [],
      "stateMutability": "payable",
      "type": "function",
      "payable": true
    }
  ],
  "bytecode": "0x60806040523480156200001157600080fd5b506040518060400160405280600681526020017f5a65654e465400000000000000000000000000000000000000000000000000008152506040518060400160405280600181526020017f5a00000000000000000000000000000000000000000000000000000000000000815250816000908051906020019062000096929190620002e4565b508060019080519060200190620000af929190620002e4565b505050620000d2620000c66200012060201b60201c565b6200012860201b60201c565b620000e2620001ee60201b60201c565b506000600660146101000a81548160ff0219169083151502179055506000600960006101000a81548160ff021916908360ff1602179055506200046e565b600033905090565b6000600660009054906101000a900473ffffffffffffffffffffffffffffffffffffffff16905081600660006101000a81548173ffffffffffffffffffffffffffffffffffffffff021916908373ffffffffffffffffffffffffffffffffffffffff1602179055508173ffffffffffffffffffffffffffffffffffffffff168173ffffffffffffffffffffffffffffffffffffffff167f8be0079c531659141344cd1fd0a4f28419497f9722a3daafe3b4186f6b6457e060405160405180910390a35050565b6060620002006200012060201b60201c565b73ffffffffffffffffffffffffffffffffffffffff1662000226620002ba60201b60201c565b73ffffffffffffffffffffffffffffffffffffffff16146200027f576040517f08c379a00000000000000000000000000000000000000000000000000000000081526004016200027690620003d6565b60405180910390fd5b6040518060400160405280601b81526020017f68747470733a2f2f666c6f79646e66742e636f6d2f746f6b656e2f0000000000815250905090565b6000600660009054906101000a900473ffffffffffffffffffffffffffffffffffffffff16905090565b828054620002f29062000409565b90600052602060002090601f01602090048101928262000316576000855562000362565b82601f106200033157805160ff191683800117855562000362565b8280016001018555821562000362579182015b828111156200036157825182559160200191906001019062000344565b5b50905062000371919062000375565b5090565b5b808211156200039057600081600090555060010162000376565b5090565b6000620003a3602083620003f8565b91507f4f776e61626c653a2063616c6c6572206973206e6f7420746865206f776e65726000830152602082019050919050565b60006020820190508181036000830152620003f18162000394565b9050919050565b600082825260208201905092915050565b600060028204905060018216806200042257607f821691505b602082108114156200043957620004386200043f565b5b50919050565b7f4e487b7100000000000000000000000000000000000000000000000000000000600052602260045260246000fd5b612ec3806200047e6000396000f3fe60806040526004361061012a5760003560e01c80636352211e116100ab578063a22cb4651161006f578063a22cb465146103d1578063b5beacf0146103fa578063b88d4fde14610416578063c87b56dd1461043f578063e985e9c51461047c578063f2fde38b146104b95761012a565b80636352211e146102ea57806370a0823114610327578063715018a6146103645780638da5cb5b1461037b57806395d89b41146103a65761012a565b80631d9cfd6d116100f25780631d9cfd6d1461021b57806323b872dd146102325780633ab1d60e1461025b57806342842e0e146102985780634e249146146102c15761012a565b806301ffc9a71461012f57806306fdde031461016c578063081812fc14610197578063095ea7b3146101d45780630fdb11cf146101fd575b600080fd5b34801561013b57600080fd5b5061015660048036038101906101519190611fcd565b6104e2565b60405161016391906127e7565b60405180910390f35b34801561017857600080fd5b506101816105c4565b60405161018e9190612802565b60405180910390f35b3480156101a357600080fd5b506101be60048036038101906101b9919061201f565b610656565b6040516101cb9190612780565b60405180910390f35b3480156101e057600080fd5b506101fb60048036038101906101f69190611f91565b6106db565b005b6102056107f3565b6040516102129190612a44565b60405180910390f35b34801561022757600080fd5b506102306107fb565b005b34801561023e57600080fd5b5061025960048036038101906102549190611e8b565b6108b2565b005b34801561026757600080fd5b50610282600480360381019061027d919061201f565b610912565b60405161028f9190612a44565b60405180910390f35b3480156102a457600080fd5b506102bf60048036038101906102ba9190611e8b565b61092f565b005b3480156102cd57600080fd5b506102e860048036038101906102e39190612048565b61094f565b005b3480156102f657600080fd5b50610311600480360381019061030c919061201f565b610a30565b60405161031e9190612780565b60405180910390f35b34801561033357600080fd5b5061034e60048036038101906103499190611e26565b610ae2565b60405161035b9190612a44565b60405180910390f35b34801561037057600080fd5b50610379610b9a565b005b34801561038757600080fd5b50610390610c22565b60405161039d9190612780565b60405180910390f35b3480156103b257600080fd5b506103bb610c4c565b6040516103c89190612802565b60405180910390f35b3480156103dd57600080fd5b506103f860048036038101906103f39190611f55565b610cde565b005b610414600480360381019061040f9190611f91565b610e5f565b005b34801561042257600080fd5b5061043d60048036038101906104389190611eda565b610eea565b005b34801561044b57600080fd5b506104666004803603810190610461919061201f565b610f4c565b6040516104739190612802565b60405180910390f35b34801561048857600080fd5b506104a3600480360381019061049e9190611e4f565b610ff3565b6040516104b091906127e7565b60405180910390f35b3480156104c557600080fd5b506104e060048036038101906104db9190611e26565b611087565b005b60007f80ac58cd000000000000000000000000000000000000000000000000000000007bffffffffffffffffffffffffffffffffffffffffffffffffffffffff1916827bffffffffffffffffffffffffffffffffffffffffffffffffffffffff191614806105ad57507f5b5e139f000000000000000000000000000000000000000000000000000000007bffffffffffffffffffffffffffffffffffffffffffffffffffffffff1916827bffffffffffffffffffffffffffffffffffffffffffffffffffffffff1916145b806105bd57506105bc8261117f565b5b9050919050565b6060600080546105d390612cb8565b80601f01602080910402602001604051908101604052809291908181526020018280546105ff90612cb8565b801561064c5780601f106106215761010080835404028352916020019161064c565b820191906000526020600020905b81548152906001019060200180831161062f57829003601f168201915b5050505050905090565b6000610661826111e9565b6106a0576040517f08c379a000000000000000000000000000000000000000000000000000000000815260040161069790612984565b60405180910390fd5b6004600083815260200190815260200160002060009054906101000a900473ffffffffffffffffffffffffffffffffffffffff169050919050565b60006106e682610a30565b90508073ffffffffffffffffffffffffffffffffffffffff168373ffffffffffffffffffffffffffffffffffffffff161415610757576040517f08c379a000000000000000000000000000000000000000000000000000000000815260040161074e90612a04565b60405180910390fd5b8073ffffffffffffffffffffffffffffffffffffffff16610776611255565b73ffffffffffffffffffffffffffffffffffffffff1614806107a557506107a48161079f611255565b610ff3565b5b6107e4576040517f08c379a00000000000000000000000000000000000000000000000000000000081526004016107db90612904565b60405180910390fd5b6107ee838361125d565b505050565b600034905090565b610803611255565b73ffffffffffffffffffffffffffffffffffffffff16610821610c22565b73ffffffffffffffffffffffffffffffffffffffff1614610877576040517f08c379a000000000000000000000000000000000000000000000000000000000815260040161086e906129a4565b60405180910390fd5b6001600660146101000a81548160ff0219169083151502179055504260088190555062278d006008546108aa9190612b03565b600781905550565b6108c36108bd611255565b82611316565b610902576040517f08c379a00000000000000000000000000000000000000000000000000000000081526004016108f990612a24565b60405180910390fd5b61090d8383836113f4565b505050565b6000600a6000838152602001908152602001600020549050919050565b61094a83838360405180602001604052806000815250610eea565b505050565b610958826111e9565b610997576040517f08c379a000000000000000000000000000000000000000000000000000000000815260040161098e90612824565b60405180910390fd5b61099f610c22565b73ffffffffffffffffffffffffffffffffffffffff166109be83610a30565b73ffffffffffffffffffffffffffffffffffffffff1614610a14576040517f08c379a0000000000000000000000000000000000000000000000000000000008152600401610a0b906129c4565b60405180910390fd5b80600a6000848152602001908152602001600020819055505050565b6000806002600084815260200190815260200160002060009054906101000a900473ffffffffffffffffffffffffffffffffffffffff169050600073ffffffffffffffffffffffffffffffffffffffff168173ffffffffffffffffffffffffffffffffffffffff161415610ad9576040517f08c379a0000000000000000000000000000000000000000000000000000000008152600401610ad090612944565b60405180910390fd5b80915050919050565b60008073ffffffffffffffffffffffffffffffffffffffff168273ffffffffffffffffffffffffffffffffffffffff161415610b53576040517f08c379a0000000000000000000000000000000000000000000000000000000008152600401610b4a90612924565b60405180910390fd5b600360008373ffffffffffffffffffffffffffffffffffffffff1673ffffffffffffffffffffffffffffffffffffffff168152602001908152602001600020549050919050565b610ba2611255565b73ffffffffffffffffffffffffffffffffffffffff16610bc0610c22565b73ffffffffffffffffffffffffffffffffffffffff1614610c16576040517f08c379a0000000000000000000000000000000000000000000000000000000008152600401610c0d906129a4565b60405180910390fd5b610c206000611650565b565b6000600660009054906101000a900473ffffffffffffffffffffffffffffffffffffffff16905090565b606060018054610c5b90612cb8565b80601f0160208091040260200160405190810160405280929190818152602001828054610c8790612cb8565b8015610cd45780601f10610ca957610100808354040283529160200191610cd4565b820191906000526020600020905b815481529060010190602001808311610cb757829003601f168201915b5050505050905090565b610ce6611255565b73ffffffffffffffffffffffffffffffffffffffff168273ffffffffffffffffffffffffffffffffffffffff161415610d54576040517f08c379a0000000000000000000000000000000000000000000000000000000008152600401610d4b906128c4565b60405180910390fd5b8060056000610d61611255565b73ffffffffffffffffffffffffffffffffffffffff1673ffffffffffffffffffffffffffffffffffffffff16815260200190815260200160002060008473ffffffffffffffffffffffffffffffffffffffff1673ffffffffffffffffffffffffffffffffffffffff16815260200190815260200160002060006101000a81548160ff0219169083151502179055508173ffffffffffffffffffffffffffffffffffffffff16610e0e611255565b73ffffffffffffffffffffffffffffffffffffffff167f17307eab39ab6107e8899845ad3d59bd9653f200f220920489ca2b5937696c3183604051610e5391906127e7565b60405180910390a35050565b60011515600660149054906101000a900460ff161515148015610e83575060075442105b15610ee6576064600960009054906101000a900460ff1660ff161015610ee557610ead8282611716565b6001600960008282829054906101000a900460ff16610ecc9190612b59565b92506101000a81548160ff021916908360ff1602179055505b5b5050565b610efb610ef5611255565b83611316565b610f3a576040517f08c379a0000000000000000000000000000000000000000000000000000000008152600401610f3190612a24565b60405180910390fd5b610f46848484846118e4565b50505050565b6060610f57826111e9565b610f96576040517f08c379a0000000000000000000000000000000000000000000000000000000008152600401610f8d906129e4565b60405180910390fd5b6000610fa0611940565b90506000815111610fc05760405180602001604052806000815250610feb565b80610fca846119f9565b604051602001610fdb92919061275c565b6040516020818303038152906040525b915050919050565b6000600560008473ffffffffffffffffffffffffffffffffffffffff1673ffffffffffffffffffffffffffffffffffffffff16815260200190815260200160002060008373ffffffffffffffffffffffffffffffffffffffff1673ffffffffffffffffffffffffffffffffffffffff16815260200190815260200160002060009054906101000a900460ff16905092915050565b61108f611255565b73ffffffffffffffffffffffffffffffffffffffff166110ad610c22565b73ffffffffffffffffffffffffffffffffffffffff1614611103576040517f08c379a00000000000000000000000000000000000000000000000000000000081526004016110fa906129a4565b60405180910390fd5b600073ffffffffffffffffffffffffffffffffffffffff168173ffffffffffffffffffffffffffffffffffffffff161415611173576040517f08c379a000000000000000000000000000000000000000000000000000000000815260040161116a90612864565b60405180910390fd5b61117c81611650565b50565b60007f01ffc9a7000000000000000000000000000000000000000000000000000000007bffffffffffffffffffffffffffffffffffffffffffffffffffffffff1916827bffffffffffffffffffffffffffffffffffffffffffffffffffffffff1916149050919050565b60008073ffffffffffffffffffffffffffffffffffffffff166002600084815260200190815260200160002060009054906101000a900473ffffffffffffffffffffffffffffffffffffffff1673ffffffffffffffffffffffffffffffffffffffff1614159050919050565b600033905090565b816004600083815260200190815260200160002060006101000a81548173ffffffffffffffffffffffffffffffffffffffff021916908373ffffffffffffffffffffffffffffffffffffffff160217905550808273ffffffffffffffffffffffffffffffffffffffff166112d083610a30565b73ffffffffffffffffffffffffffffffffffffffff167f8c5be1e5ebec7d5bd14f71427d1e84f3dd0314c0f7b2291e5b200ac8c7c3b92560405160405180910390a45050565b6000611321826111e9565b611360576040517f08c379a0000000000000000000000000000000000000000000000000000000008152600401611357906128e4565b60405180910390fd5b600061136b83610a30565b90508073ffffffffffffffffffffffffffffffffffffffff168473ffffffffffffffffffffffffffffffffffffffff1614806113da57508373ffffffffffffffffffffffffffffffffffffffff166113c284610656565b73ffffffffffffffffffffffffffffffffffffffff16145b806113eb57506113ea8185610ff3565b5b91505092915050565b8273ffffffffffffffffffffffffffffffffffffffff1661141482610a30565b73ffffffffffffffffffffffffffffffffffffffff161461146a576040517f08c379a0000000000000000000000000000000000000000000000000000000008152600401611461906129c4565b60405180910390fd5b600073ffffffffffffffffffffffffffffffffffffffff168273ffffffffffffffffffffffffffffffffffffffff1614156114da576040517f08c379a00000000000000000000000000000000000000000000000000000000081526004016114d1906128a4565b60405180910390fd5b6114e5838383611ba6565b6114f060008261125d565b6001600360008573ffffffffffffffffffffffffffffffffffffffff1673ffffffffffffffffffffffffffffffffffffffff16815260200190815260200160002060008282546115409190612bc1565b925050819055506001600360008473ffffffffffffffffffffffffffffffffffffffff1673ffffffffffffffffffffffffffffffffffffffff16815260200190815260200160002060008282546115979190612b03565b92505081905550816002600083815260200190815260200160002060006101000a81548173ffffffffffffffffffffffffffffffffffffffff021916908373ffffffffffffffffffffffffffffffffffffffff160217905550808273ffffffffffffffffffffffffffffffffffffffff168473ffffffffffffffffffffffffffffffffffffffff167fddf252ad1be2c89b69c2b068fc378daa952ba7f163c4a11628f55a4df523b3ef60405160405180910390a4505050565b6000600660009054906101000a900473ffffffffffffffffffffffffffffffffffffffff16905081600660006101000a81548173ffffffffffffffffffffffffffffffffffffffff021916908373ffffffffffffffffffffffffffffffffffffffff1602179055508173ffffffffffffffffffffffffffffffffffffffff168173ffffffffffffffffffffffffffffffffffffffff167f8be0079c531659141344cd1fd0a4f28419497f9722a3daafe3b4186f6b6457e060405160405180910390a35050565b600073ffffffffffffffffffffffffffffffffffffffff168273ffffffffffffffffffffffffffffffffffffffff161415611786576040517f08c379a000000000000000000000000000000000000000000000000000000000815260040161177d90612964565b60405180910390fd5b61178f816111e9565b156117cf576040517f08c379a00000000000000000000000000000000000000000000000000000000081526004016117c690612884565b60405180910390fd5b6117db60008383611ba6565b6001600360008473ffffffffffffffffffffffffffffffffffffffff1673ffffffffffffffffffffffffffffffffffffffff168152602001908152602001600020600082825461182b9190612b03565b92505081905550816002600083815260200190815260200160002060006101000a81548173ffffffffffffffffffffffffffffffffffffffff021916908373ffffffffffffffffffffffffffffffffffffffff160217905550808273ffffffffffffffffffffffffffffffffffffffff16600073ffffffffffffffffffffffffffffffffffffffff167fddf252ad1be2c89b69c2b068fc378daa952ba7f163c4a11628f55a4df523b3ef60405160405180910390a45050565b6118ef8484846113f4565b6118fb84848484611bab565b61193a576040517f08c379a000000000000000000000000000000000000000000000000000000000815260040161193190612844565b60405180910390fd5b50505050565b606061194a611255565b73ffffffffffffffffffffffffffffffffffffffff16611968610c22565b73ffffffffffffffffffffffffffffffffffffffff16146119be576040517f08c379a00000000000000000000000000000000000000000000000000000000081526004016119b5906129a4565b60405180910390fd5b6040518060400160405280601b81526020017f68747470733a2f2f666c6f79646e66742e636f6d2f746f6b656e2f0000000000815250905090565b60606000821415611a41576040518060400160405280600181526020017f30000000000000000000000000000000000000000000000000000000000000008152509050611ba1565b600082905060005b60008214611a73578080611a5c90612cea565b915050600a82611a6c9190612b90565b9150611a49565b60008167ffffffffffffffff811115611ab5577f4e487b7100000000000000000000000000000000000000000000000000000000600052604160045260246000fd5b6040519080825280601f01601f191660200182016040528015611ae75781602001600182028036833780820191505090505b5090505b60008514611b9a57600182611b009190612bc1565b9150600a85611b0f9190612d33565b6030611b1b9190612b03565b60f81b818381518110611b57577f4e487b7100000000000000000000000000000000000000000000000000000000600052603260045260246000fd5b60200101907effffffffffffffffffffffffffffffffffffffffffffffffffffffffffffff1916908160001a905350600a85611b939190612b90565b9450611aeb565b8093505050505b919050565b505050565b6000611bcc8473ffffffffffffffffffffffffffffffffffffffff16611d42565b15611d35578373ffffffffffffffffffffffffffffffffffffffff1663150b7a02611bf5611255565b8786866040518563ffffffff1660e01b8152600401611c17949392919061279b565b602060405180830381600087803b158015611c3157600080fd5b505af1925050508015611c6257506040513d601f19601f82011682018060405250810190611c5f9190611ff6565b60015b611ce5573d8060008114611c92576040519150601f19603f3d011682016040523d82523d6000602084013e611c97565b606091505b50600081511415611cdd576040517f08c379a0000000000000000000000000000000000000000000000000000000008152600401611cd490612844565b60405180910390fd5b805181602001fd5b63150b7a0260e01b7bffffffffffffffffffffffffffffffffffffffffffffffffffffffff1916817bffffffffffffffffffffffffffffffffffffffffffffffffffffffff191614915050611d3a565b600190505b949350505050565b600080823b905060008111915050919050565b6000611d68611d6384612a90565b612a5f565b905082815260208101848484011115611d8057600080fd5b611d8b848285612c76565b509392505050565b600081359050611da281612e31565b92915050565b600081359050611db781612e48565b92915050565b600081359050611dcc81612e5f565b92915050565b600081519050611de181612e5f565b92915050565b600082601f830112611df857600080fd5b8135611e08848260208601611d55565b91505092915050565b600081359050611e2081612e76565b92915050565b600060208284031215611e3857600080fd5b6000611e4684828501611d93565b91505092915050565b60008060408385031215611e6257600080fd5b6000611e7085828601611d93565b9250506020611e8185828601611d93565b9150509250929050565b600080600060608486031215611ea057600080fd5b6000611eae86828701611d93565b9350506020611ebf86828701611d93565b9250506040611ed086828701611e11565b9150509250925092565b60008060008060808587031215611ef057600080fd5b6000611efe87828801611d93565b9450506020611f0f87828801611d93565b9350506040611f2087828801611e11565b925050606085013567ffffffffffffffff811115611f3d57600080fd5b611f4987828801611de7565b91505092959194509250565b60008060408385031215611f6857600080fd5b6000611f7685828601611d93565b9250506020611f8785828601611da8565b9150509250929050565b60008060408385031215611fa457600080fd5b6000611fb285828601611d93565b9250506020611fc385828601611e11565b9150509250929050565b600060208284031215611fdf57600080fd5b6000611fed84828501611dbd565b91505092915050565b60006020828403121561200857600080fd5b600061201684828501611dd2565b91505092915050565b60006020828403121561203157600080fd5b600061203f84828501611e11565b91505092915050565b6000806040838503121561205b57600080fd5b600061206985828601611e11565b925050602061207a85828601611e11565b9150509250929050565b61208d81612bf5565b82525050565b61209c81612c07565b82525050565b60006120ad82612ac0565b6120b78185612ad6565b93506120c7818560208601612c85565b6120d081612e20565b840191505092915050565b60006120e682612acb565b6120f08185612ae7565b9350612100818560208601612c85565b61210981612e20565b840191505092915050565b600061211f82612acb565b6121298185612af8565b9350612139818560208601612c85565b80840191505092915050565b6000612152601583612ae7565b91507f746f636b656e20646f6573206e6f7420657869737400000000000000000000006000830152602082019050919050565b6000612192603283612ae7565b91507f4552433732313a207472616e7366657220746f206e6f6e20455243373231526560008301527f63656976657220696d706c656d656e74657200000000000000000000000000006020830152604082019050919050565b60006121f8602683612ae7565b91507f4f776e61626c653a206e6577206f776e657220697320746865207a65726f206160008301527f64647265737300000000000000000000000000000000000000000000000000006020830152604082019050919050565b600061225e601c83612ae7565b91507f4552433732313a20746f6b656e20616c7265616479206d696e746564000000006000830152602082019050919050565b600061229e602483612ae7565b91507f4552433732313a207472616e7366657220746f20746865207a65726f2061646460008301527f72657373000000000000000000000000000000000000000000000000000000006020830152604082019050919050565b6000612304601983612ae7565b91507f4552433732313a20617070726f766520746f2063616c6c6572000000000000006000830152602082019050919050565b6000612344602c83612ae7565b91507f4552433732313a206f70657261746f7220717565727920666f72206e6f6e657860008301527f697374656e7420746f6b656e00000000000000000000000000000000000000006020830152604082019050919050565b60006123aa603883612ae7565b91507f4552433732313a20617070726f76652063616c6c6572206973206e6f74206f7760008301527f6e6572206e6f7220617070726f76656420666f7220616c6c00000000000000006020830152604082019050919050565b6000612410602a83612ae7565b91507f4552433732313a2062616c616e636520717565727920666f7220746865207a6560008301527f726f2061646472657373000000000000000000000000000000000000000000006020830152604082019050919050565b6000612476602983612ae7565b91507f4552433732313a206f776e657220717565727920666f72206e6f6e657869737460008301527f656e7420746f6b656e00000000000000000000000000000000000000000000006020830152604082019050919050565b60006124dc602083612ae7565b91507f4552433732313a206d696e7420746f20746865207a65726f20616464726573736000830152602082019050919050565b600061251c602c83612ae7565b91507f4552433732313a20617070726f76656420717565727920666f72206e6f6e657860008301527f697374656e7420746f6b656e00000000000000000000000000000000000000006020830152604082019050919050565b6000612582602083612ae7565b91507f4f776e61626c653a2063616c6c6572206973206e6f7420746865206f776e65726000830152602082019050919050565b60006125c2602983612ae7565b91507f4552433732313a207472616e73666572206f6620746f6b656e2074686174206960008301527f73206e6f74206f776e00000000000000000000000000000000000000000000006020830152604082019050919050565b6000612628602f83612ae7565b91507f4552433732314d657461646174613a2055524920717565727920666f72206e6f60008301527f6e6578697374656e7420746f6b656e00000000000000000000000000000000006020830152604082019050919050565b600061268e602183612ae7565b91507f4552433732313a20617070726f76616c20746f2063757272656e74206f776e6560008301527f72000000000000000000000000000000000000000000000000000000000000006020830152604082019050919050565b60006126f4603183612ae7565b91507f4552433732313a207472616e736665722063616c6c6572206973206e6f74206f60008301527f776e6572206e6f7220617070726f7665640000000000000000000000000000006020830152604082019050919050565b61275681612c5f565b82525050565b60006127688285612114565b91506127748284612114565b91508190509392505050565b60006020820190506127956000830184612084565b92915050565b60006080820190506127b06000830187612084565b6127bd6020830186612084565b6127ca604083018561274d565b81810360608301526127dc81846120a2565b905095945050505050565b60006020820190506127fc6000830184612093565b92915050565b6000602082019050818103600083015261281c81846120db565b905092915050565b6000602082019050818103600083015261283d81612145565b9050919050565b6000602082019050818103600083015261285d81612185565b9050919050565b6000602082019050818103600083015261287d816121eb565b9050919050565b6000602082019050818103600083015261289d81612251565b9050919050565b600060208201905081810360008301526128bd81612291565b9050919050565b600060208201905081810360008301526128dd816122f7565b9050919050565b600060208201905081810360008301526128fd81612337565b9050919050565b6000602082019050818103600083015261291d8161239d565b9050919050565b6000602082019050818103600083015261293d81612403565b9050919050565b6000602082019050818103600083015261295d81612469565b9050919050565b6000602082019050818103600083015261297d816124cf565b9050919050565b6000602082019050818103600083015261299d8161250f565b9050919050565b600060208201905081810360008301526129bd81612575565b9050919050565b600060208201905081810360008301526129dd816125b5565b9050919050565b600060208201905081810360008301526129fd8161261b565b9050919050565b60006020820190508181036000830152612a1d81612681565b9050919050565b60006020820190508181036000830152612a3d816126e7565b9050919050565b6000602082019050612a59600083018461274d565b92915050565b6000604051905081810181811067ffffffffffffffff82111715612a8657612a85612df1565b5b8060405250919050565b600067ffffffffffffffff821115612aab57612aaa612df1565b5b601f19601f8301169050602081019050919050565b600081519050919050565b600081519050919050565b600082825260208201905092915050565b600082825260208201905092915050565b600081905092915050565b6000612b0e82612c5f565b9150612b1983612c5f565b9250827fffffffffffffffffffffffffffffffffffffffffffffffffffffffffffffffff03821115612b4e57612b4d612d64565b5b828201905092915050565b6000612b6482612c69565b9150612b6f83612c69565b92508260ff03821115612b8557612b84612d64565b5b828201905092915050565b6000612b9b82612c5f565b9150612ba683612c5f565b925082612bb657612bb5612d93565b5b828204905092915050565b6000612bcc82612c5f565b9150612bd783612c5f565b925082821015612bea57612be9612d64565b5b828203905092915050565b6000612c0082612c3f565b9050919050565b60008115159050919050565b60007fffffffff0000000000000000000000000000000000000000000000000000000082169050919050565b600073ffffffffffffffffffffffffffffffffffffffff82169050919050565b6000819050919050565b600060ff82169050919050565b82818337600083830152505050565b60005b83811015612ca3578082015181840152602081019050612c88565b83811115612cb2576000848401525b50505050565b60006002820490506001821680612cd057607f821691505b60208210811415612ce457612ce3612dc2565b5b50919050565b6000612cf582612c5f565b91507fffffffffffffffffffffffffffffffffffffffffffffffffffffffffffffffff821415612d2857612d27612d64565b5b600182019050919050565b6000612d3e82612c5f565b9150612d4983612c5f565b925082612d5957612d58612d93565b5b828206905092915050565b7f4e487b7100000000000000000000000000000000000000000000000000000000600052601160045260246000fd5b7f4e487b7100000000000000000000000000000000000000000000000000000000600052601260045260246000fd5b7f4e487b7100000000000000000000000000000000000000000000000000000000600052602260045260246000fd5b7f4e487b7100000000000000000000000000000000000000000000000000000000600052604160045260246000fd5b6000601f19601f8301169050919050565b612e3a81612bf5565b8114612e4557600080fd5b50565b612e5181612c07565b8114612e5c57600080fd5b50565b612e6881612c13565b8114612e7357600080fd5b50565b612e7f81612c5f565b8114612e8a57600080fd5b5056fea2646970667358221220049c754e83aa8df560fd9c203e69b7d01d5c6536e493107b80350c1b0e519b2064736f6c63430008000033",
  "immutableReferences": {},
  "source": "// SPDX-License-Identifier: MIT\r\n\r\n/*\r\nuser can only buy tokens when the sale is started\r\nthe sale should be ended within 30 days\r\nthe owner can set base URI\r\nthe owner can set the price of NFT\r\nNFT minting hard limit is 100\r\n*/ \r\npragma solidity ^0.8.0;\r\n\r\nimport \"@openzeppelin/contracts/token/ERC721/ERC721.sol\";\r\nimport \"@openzeppelin/contracts/access/Ownable.sol\";\r\n    \r\n\r\ncontract ZeeNFT is ERC721, Ownable {\r\n    \r\n    bool internal saleStart;\r\n    uint internal saleEndDate;\r\n    uint internal saleStartDate; \r\n    uint8 internal totalSupply;\r\n    \r\n    mapping(uint256 => uint256)  tockenPrice; // tocken id and tocken price\r\n    \r\n    constructor() ERC721(\"ZeeNFT\",\"Z\") {\r\n       _baseURI();\r\n       saleStart = false;\r\n       totalSupply = 0;\r\n       \r\n    }\r\n\r\nfunction fetchPrice() public payable returns(uint) {\r\n    return msg.value;\r\n}\r\nfunction  setSale() public  onlyOwner {\r\n\r\n     saleStart = true;\r\n     saleStartDate = block.timestamp;\r\n     saleEndDate = saleStartDate + 30 days;\r\n\r\n}\r\nfunction setTockenPrice(uint _tockenid,uint _price) public  {\r\n  require(_exists(_tockenid),\"tocken does not exist\");\r\n  require(ERC721.ownerOf(_tockenid) == owner(), \"ERC721: transfer of token that is not own\");\r\n    tockenPrice[_tockenid] = _price;\r\n}\r\nfunction getTockenPrice(uint _tockenid) public view returns (uint) {\r\n    return tockenPrice[_tockenid];\r\n}\r\nmodifier checkSale {\r\n    if (saleStart == true && block.timestamp < saleEndDate) {\r\n        _;\r\n    }\r\n}\r\n\r\nmodifier checkTotalSupply  {\r\n    if (totalSupply < 100) {\r\n        _;\r\n    }\r\n}\r\n\r\nfunction _baseURI() internal view virtual override onlyOwner returns (string memory) {\r\n        return \"https://floydnft.com/token/\";\r\n    }\r\n\r\nfunction buyTocken(address to, uint tid) public payable checkSale checkTotalSupply {\r\n\r\n    _mint(to,tid);\r\n \r\n    totalSupply+=1;\r\n    \r\n}\r\n}",
  "sourcePath": "C:/Personal/Zeeshan Documents/PERSONAL/Learning/PIAIC/Quarter3/PIAIC-Assignments/contracts/ZeeNFT.sol",
  "compiler": {
    "name": "solc",
    "version": "0.8.0+commit.c7dfd78e.Emscripten.clang"
  },
  "schemaVersion": "3.3.3",
  "updatedAt": "2021-09-04T18:43:40.149Z",
  "networkType": "ethereum",
  "devdoc": {
    "kind": "dev",
    "methods": {
      "approve(address,uint256)": {
        "details": "See {IERC721-approve}."
      },
      "balanceOf(address)": {
        "details": "See {IERC721-balanceOf}."
      },
      "getApproved(uint256)": {
        "details": "See {IERC721-getApproved}."
      },
      "isApprovedForAll(address,address)": {
        "details": "See {IERC721-isApprovedForAll}."
      },
      "name()": {
        "details": "See {IERC721Metadata-name}."
      },
      "owner()": {
        "details": "Returns the address of the current owner."
      },
      "ownerOf(uint256)": {
        "details": "See {IERC721-ownerOf}."
      },
      "renounceOwnership()": {
        "details": "Leaves the contract without owner. It will not be possible to call `onlyOwner` functions anymore. Can only be called by the current owner. NOTE: Renouncing ownership will leave the contract without an owner, thereby removing any functionality that is only available to the owner."
      },
      "safeTransferFrom(address,address,uint256)": {
        "details": "See {IERC721-safeTransferFrom}."
      },
      "safeTransferFrom(address,address,uint256,bytes)": {
        "details": "See {IERC721-safeTransferFrom}."
      },
      "setApprovalForAll(address,bool)": {
        "details": "See {IERC721-setApprovalForAll}."
      },
      "supportsInterface(bytes4)": {
        "details": "See {IERC165-supportsInterface}."
      },
      "symbol()": {
        "details": "See {IERC721Metadata-symbol}."
      },
      "tokenURI(uint256)": {
        "details": "See {IERC721Metadata-tokenURI}."
      },
      "transferFrom(address,address,uint256)": {
        "details": "See {IERC721-transferFrom}."
      },
      "transferOwnership(address)": {
        "details": "Transfers ownership of the contract to a new account (`newOwner`). Can only be called by the current owner."
      }
    },
    "version": 1
  },
  "userdoc": {
    "kind": "user",
    "methods": {},
    "version": 1
  }
}