{
  "contractName": "ZeeTockenB",
  "abi": [
    {
      "inputs": [],
      "stateMutability": "nonpayable",
      "type": "constructor"
    },
    {
      "anonymous": false,
      "inputs": [
        {
          "indexed": true,
          "internalType": "address",
          "name": "owner",
          "type": "address"
        },
        {
          "indexed": true,
          "internalType": "address",
          "name": "spender",
          "type": "address"
        },
        {
          "indexed": false,
          "internalType": "uint256",
          "name": "value",
          "type": "uint256"
        }
      ],
      "name": "Approval",
      "type": "event"
    },
    {
      "anonymous": false,
      "inputs": [
        {
          "indexed": true,
          "internalType": "address",
          "name": "previousOwner",
          "type": "address"
        },
        {
          "indexed": true,
          "internalType": "address",
          "name": "newOwner",
          "type": "address"
        }
      ],
      "name": "OwnershipTransferred",
      "type": "event"
    },
    {
      "anonymous": false,
      "inputs": [
        {
          "indexed": false,
          "internalType": "address",
          "name": "account",
          "type": "address"
        }
      ],
      "name": "Paused",
      "type": "event"
    },
    {
      "anonymous": false,
      "inputs": [
        {
          "indexed": true,
          "internalType": "address",
          "name": "from",
          "type": "address"
        },
        {
          "indexed": true,
          "internalType": "address",
          "name": "to",
          "type": "address"
        },
        {
          "indexed": false,
          "internalType": "uint256",
          "name": "value",
          "type": "uint256"
        }
      ],
      "name": "Transfer",
      "type": "event"
    },
    {
      "anonymous": false,
      "inputs": [
        {
          "indexed": false,
          "internalType": "address",
          "name": "account",
          "type": "address"
        }
      ],
      "name": "Unpaused",
      "type": "event"
    },
    {
      "stateMutability": "payable",
      "type": "fallback"
    },
    {
      "inputs": [
        {
          "internalType": "address",
          "name": "owner",
          "type": "address"
        },
        {
          "internalType": "address",
          "name": "spender",
          "type": "address"
        }
      ],
      "name": "allowance",
      "outputs": [
        {
          "internalType": "uint256",
          "name": "",
          "type": "uint256"
        }
      ],
      "stateMutability": "view",
      "type": "function"
    },
    {
      "inputs": [
        {
          "internalType": "address",
          "name": "spender",
          "type": "address"
        },
        {
          "internalType": "uint256",
          "name": "amount",
          "type": "uint256"
        }
      ],
      "name": "approve",
      "outputs": [
        {
          "internalType": "bool",
          "name": "",
          "type": "bool"
        }
      ],
      "stateMutability": "nonpayable",
      "type": "function"
    },
    {
      "inputs": [
        {
          "internalType": "address",
          "name": "account",
          "type": "address"
        }
      ],
      "name": "balanceOf",
      "outputs": [
        {
          "internalType": "uint256",
          "name": "",
          "type": "uint256"
        }
      ],
      "stateMutability": "view",
      "type": "function"
    },
    {
      "inputs": [],
      "name": "cap",
      "outputs": [
        {
          "internalType": "uint256",
          "name": "",
          "type": "uint256"
        }
      ],
      "stateMutability": "view",
      "type": "function"
    },
    {
      "inputs": [],
      "name": "decimals",
      "outputs": [
        {
          "internalType": "uint8",
          "name": "",
          "type": "uint8"
        }
      ],
      "stateMutability": "view",
      "type": "function"
    },
    {
      "inputs": [
        {
          "internalType": "address",
          "name": "spender",
          "type": "address"
        },
        {
          "internalType": "uint256",
          "name": "subtractedValue",
          "type": "uint256"
        }
      ],
      "name": "decreaseAllowance",
      "outputs": [
        {
          "internalType": "bool",
          "name": "",
          "type": "bool"
        }
      ],
      "stateMutability": "nonpayable",
      "type": "function"
    },
    {
      "inputs": [
        {
          "internalType": "address",
          "name": "spender",
          "type": "address"
        },
        {
          "internalType": "uint256",
          "name": "addedValue",
          "type": "uint256"
        }
      ],
      "name": "increaseAllowance",
      "outputs": [
        {
          "internalType": "bool",
          "name": "",
          "type": "bool"
        }
      ],
      "stateMutability": "nonpayable",
      "type": "function"
    },
    {
      "inputs": [],
      "name": "name",
      "outputs": [
        {
          "internalType": "string",
          "name": "",
          "type": "string"
        }
      ],
      "stateMutability": "view",
      "type": "function"
    },
    {
      "inputs": [],
      "name": "owner",
      "outputs": [
        {
          "internalType": "address",
          "name": "",
          "type": "address"
        }
      ],
      "stateMutability": "view",
      "type": "function"
    },
    {
      "inputs": [],
      "name": "paused",
      "outputs": [
        {
          "internalType": "bool",
          "name": "",
          "type": "bool"
        }
      ],
      "stateMutability": "view",
      "type": "function"
    },
    {
      "inputs": [],
      "name": "renounceOwnership",
      "outputs": [],
      "stateMutability": "nonpayable",
      "type": "function"
    },
    {
      "inputs": [],
      "name": "symbol",
      "outputs": [
        {
          "internalType": "string",
          "name": "",
          "type": "string"
        }
      ],
      "stateMutability": "view",
      "type": "function"
    },
    {
      "inputs": [],
      "name": "totalSupply",
      "outputs": [
        {
          "internalType": "uint256",
          "name": "",
          "type": "uint256"
        }
      ],
      "stateMutability": "view",
      "type": "function"
    },
    {
      "inputs": [
        {
          "internalType": "address",
          "name": "sender",
          "type": "address"
        },
        {
          "internalType": "address",
          "name": "recipient",
          "type": "address"
        },
        {
          "internalType": "uint256",
          "name": "amount",
          "type": "uint256"
        }
      ],
      "name": "transferFrom",
      "outputs": [
        {
          "internalType": "bool",
          "name": "",
          "type": "bool"
        }
      ],
      "stateMutability": "nonpayable",
      "type": "function"
    },
    {
      "inputs": [
        {
          "internalType": "address",
          "name": "newOwner",
          "type": "address"
        }
      ],
      "name": "transferOwnership",
      "outputs": [],
      "stateMutability": "nonpayable",
      "type": "function"
    },
    {
      "stateMutability": "payable",
      "type": "receive"
    },
    {
      "inputs": [
        {
          "internalType": "uint256",
          "name": "nPrice",
          "type": "uint256"
        }
      ],
      "name": "changeTockenPrice",
      "outputs": [],
      "stateMutability": "nonpayable",
      "type": "function"
    },
    {
      "inputs": [
        {
          "internalType": "uint256",
          "name": "_tockens",
          "type": "uint256"
        }
      ],
      "name": "buyTocken",
      "outputs": [],
      "stateMutability": "payable",
      "type": "function"
    },
    {
      "inputs": [
        {
          "internalType": "address",
          "name": "recipient",
          "type": "address"
        },
        {
          "internalType": "uint256",
          "name": "amount",
          "type": "uint256"
        }
      ],
      "name": "transfer",
      "outputs": [
        {
          "internalType": "bool",
          "name": "",
          "type": "bool"
        }
      ],
      "stateMutability": "nonpayable",
      "type": "function"
    },
    {
      "inputs": [],
      "name": "_stop",
      "outputs": [],
      "stateMutability": "nonpayable",
      "type": "function"
    },
    {
      "inputs": [],
      "name": "_start",
      "outputs": [],
      "stateMutability": "nonpayable",
      "type": "function"
    }
  ],
  "bytecode": "0x60a0604052662386f26fc100006006556200001f6200025160201b60201c565b600a6200002d9190620008dd565b6103e86200003c919062000a1a565b6007553480156200004c57600080fd5b506200006a60046007546200025a60201b62000f7e1790919060201c565b6040518060400160405280600a81526020017f5a656520546f636b656e000000000000000000000000000000000000000000008152506040518060400160405280600181526020017f5a000000000000000000000000000000000000000000000000000000000000008152508160039080519060200190620000ee929190620005e4565b50806004908051906020019062000107929190620005e4565b5050506000811162000150576040517f08c379a0000000000000000000000000000000000000000000000000000000008152600401620001479062000791565b60405180910390fd5b8060808181525050506000600560006101000a81548160ff02191690831515021790555062000194620001886200027260201b60201c565b6200027a60201b60201c565b620001bc620001a86200034060201b60201c565b6007546200036a60201b62000f941760201c565b620001cc6200034060201b60201c565b73ffffffffffffffffffffffffffffffffffffffff163073ffffffffffffffffffffffffffffffffffffffff167fddf252ad1be2c89b69c2b068fc378daa952ba7f163c4a11628f55a4df523b3ef6007546040516200022c9190620007f7565b60405180910390a362278d004262000245919062000825565b60088190555062000b33565b60006012905090565b600081836200026a919062000a1a565b905092915050565b600033905090565b6000600560019054906101000a900473ffffffffffffffffffffffffffffffffffffffff16905081600560016101000a81548173ffffffffffffffffffffffffffffffffffffffff021916908373ffffffffffffffffffffffffffffffffffffffff1602179055508173ffffffffffffffffffffffffffffffffffffffff168173ffffffffffffffffffffffffffffffffffffffff167f8be0079c531659141344cd1fd0a4f28419497f9722a3daafe3b4186f6b6457e060405160405180910390a35050565b6000600560019054906101000a900473ffffffffffffffffffffffffffffffffffffffff16905090565b600073ffffffffffffffffffffffffffffffffffffffff168273ffffffffffffffffffffffffffffffffffffffff161415620003dd576040517f08c379a0000000000000000000000000000000000000000000000000000000008152600401620003d490620007b3565b60405180910390fd5b620003f160008383620004e360201b60201c565b806002600082825462000405919062000825565b92505081905550806000808473ffffffffffffffffffffffffffffffffffffffff1673ffffffffffffffffffffffffffffffffffffffff16815260200190815260200160002060008282546200045c919062000825565b925050819055508173ffffffffffffffffffffffffffffffffffffffff16600073ffffffffffffffffffffffffffffffffffffffff167fddf252ad1be2c89b69c2b068fc378daa952ba7f163c4a11628f55a4df523b3ef83604051620004c39190620007f7565b60405180910390a3620004df600083836200055360201b60201c565b5050565b620004fb8383836200055860201b620010f41760201c565b6200050b620005c860201b60201c565b156200054e576040517f08c379a00000000000000000000000000000000000000000000000000000000081526004016200054590620007d5565b60405180910390fd5b505050565b505050565b62000570838383620005df60201b6200114c1760201c565b62000580620005c860201b60201c565b15620005c3576040517f08c379a0000000000000000000000000000000000000000000000000000000008152600401620005ba90620007d5565b60405180910390fd5b505050565b6000600560009054906101000a900460ff16905090565b505050565b828054620005f29062000a92565b90600052602060002090601f01602090048101928262000616576000855562000662565b82601f106200063157805160ff191683800117855562000662565b8280016001018555821562000662579182015b828111156200066157825182559160200191906001019062000644565b5b50905062000671919062000675565b5090565b5b808211156200069057600081600090555060010162000676565b5090565b6000620006a360158362000814565b91507f45524332304361707065643a20636170206973203000000000000000000000006000830152602082019050919050565b6000620006e5601f8362000814565b91507f45524332303a206d696e7420746f20746865207a65726f2061646472657373006000830152602082019050919050565b600062000727602a8362000814565b91507f45524332305061757361626c653a20746f6b656e207472616e7366657220776860008301527f696c6520706175736564000000000000000000000000000000000000000000006020830152604082019050919050565b6200078b8162000a7b565b82525050565b60006020820190508181036000830152620007ac8162000694565b9050919050565b60006020820190508181036000830152620007ce81620006d6565b9050919050565b60006020820190508181036000830152620007f08162000718565b9050919050565b60006020820190506200080e600083018462000780565b92915050565b600082825260208201905092915050565b6000620008328262000a7b565b91506200083f8362000a7b565b9250827fffffffffffffffffffffffffffffffffffffffffffffffffffffffffffffffff0382111562000877576200087662000ac8565b5b828201905092915050565b6000808291508390505b6001851115620008d457808604811115620008ac57620008ab62000ac8565b5b6001851615620008bc5780820291505b8081029050620008cc8562000b26565b94506200088c565b94509492505050565b6000620008ea8262000a7b565b9150620008f78362000a85565b9250620009267fffffffffffffffffffffffffffffffffffffffffffffffffffffffffffffffff84846200092e565b905092915050565b60008262000940576001905062000a13565b8162000950576000905062000a13565b81600181146200096957600281146200097457620009aa565b600191505062000a13565b60ff84111562000989576200098862000ac8565b5b8360020a915084821115620009a357620009a262000ac8565b5b5062000a13565b5060208310610133831016604e8410600b8410161715620009e45782820a905083811115620009de57620009dd62000ac8565b5b62000a13565b620009f3848484600162000882565b9250905081840481111562000a0d5762000a0c62000ac8565b5b81810290505b9392505050565b600062000a278262000a7b565b915062000a348362000a7b565b9250817fffffffffffffffffffffffffffffffffffffffffffffffffffffffffffffffff048311821515161562000a705762000a6f62000ac8565b5b828202905092915050565b6000819050919050565b600060ff82169050919050565b6000600282049050600182168062000aab57607f821691505b6020821081141562000ac25762000ac162000af7565b5b50919050565b7f4e487b7100000000000000000000000000000000000000000000000000000000600052601160045260246000fd5b7f4e487b7100000000000000000000000000000000000000000000000000000000600052602260045260246000fd5b60008160011c9050919050565b60805161252262000b4f600039600061081501526125226000f3fe6080604052600436106101235760003560e01c806370a08231116100a0578063a9059cbb11610064578063a9059cbb1461040d578063be8343ab1461044a578063dd62ed3e14610461578063f2fde38b1461049e578063fddd3379146104c757610140565b806370a0823114610326578063715018a6146103635780638da5cb5b1461037a57806395d89b41146103a5578063a457c2d7146103d057610140565b8063355274ea116100e7578063355274ea14610253578063395093511461027e57806353ef6781146102bb5780635c975abb146102d2578063679548a0146102fd57610140565b806306fdde0314610158578063095ea7b31461018357806318160ddd146101c057806323b872dd146101eb578063313ce5671461022857610140565b366101405761013e6006543461013991906122db565b6104e3565b005b6101566006543461015191906122db565b6104e3565b005b34801561016457600080fd5b5061016d610656565b60405161017a9190611fd1565b60405180910390f35b34801561018f57600080fd5b506101aa60048036038101906101a591906118eb565b6106e8565b6040516101b79190611fb6565b60405180910390f35b3480156101cc57600080fd5b506101d5610706565b6040516101e29190612233565b60405180910390f35b3480156101f757600080fd5b50610212600480360381019061020d919061189c565b610710565b60405161021f9190611fb6565b60405180910390f35b34801561023457600080fd5b5061023d610808565b60405161024a919061224e565b60405180910390f35b34801561025f57600080fd5b50610268610811565b6040516102759190612233565b60405180910390f35b34801561028a57600080fd5b506102a560048036038101906102a091906118eb565b610839565b6040516102b29190611fb6565b60405180910390f35b3480156102c757600080fd5b506102d06108e5565b005b3480156102de57600080fd5b506102e7610936565b6040516102f49190611fb6565b60405180910390f35b34801561030957600080fd5b50610324600480360381019061031f9190611927565b61094d565b005b34801561033257600080fd5b5061034d60048036038101906103489190611837565b610ad3565b60405161035a9190612233565b60405180910390f35b34801561036f57600080fd5b50610378610b1b565b005b34801561038657600080fd5b5061038f610ba3565b60405161039c9190611f9b565b60405180910390f35b3480156103b157600080fd5b506103ba610bcd565b6040516103c79190611fd1565b60405180910390f35b3480156103dc57600080fd5b506103f760048036038101906103f291906118eb565b610c5f565b6040516104049190611fb6565b60405180910390f35b34801561041957600080fd5b50610434600480360381019061042f91906118eb565b610d4a565b6040516104419190611fb6565b60405180910390f35b34801561045657600080fd5b5061045f610dad565b005b34801561046d57600080fd5b5061048860048036038101906104839190611860565b610dff565b6040516104959190612233565b60405180910390f35b3480156104aa57600080fd5b506104c560048036038101906104c09190611837565b610e86565b005b6104e160048036038101906104dc9190611927565b6104e3565b005b600854421015610528576040517f08c379a000000000000000000000000000000000000000000000000000000000815260040161051f90612153565b60405180910390fd5b600081118015610546575061054361053e610ba3565b610ad3565b81105b610585576040517f08c379a000000000000000000000000000000000000000000000000000000000815260040161057c90612133565b60405180910390fd5b60065481610593919061230c565b3410156105d5576040517f08c379a00000000000000000000000000000000000000000000000000000000081526004016105cc906120b3565b60405180910390fd5b6105e76105e0610ba3565b3383611151565b3373ffffffffffffffffffffffffffffffffffffffff16610606610ba3565b73ffffffffffffffffffffffffffffffffffffffff167fddf252ad1be2c89b69c2b068fc378daa952ba7f163c4a11628f55a4df523b3ef8360405161064b9190612233565b60405180910390a350565b606060038054610665906123ee565b80601f0160208091040260200160405190810160405280929190818152602001828054610691906123ee565b80156106de5780601f106106b3576101008083540402835291602001916106de565b820191906000526020600020905b8154815290600101906020018083116106c157829003601f168201915b5050505050905090565b60006106fc6106f56113d2565b84846113da565b6001905092915050565b6000600254905090565b600061071d848484611151565b6000600160008673ffffffffffffffffffffffffffffffffffffffff1673ffffffffffffffffffffffffffffffffffffffff16815260200190815260200160002060006107686113d2565b73ffffffffffffffffffffffffffffffffffffffff1673ffffffffffffffffffffffffffffffffffffffff168152602001908152602001600020549050828110156107e8576040517f08c379a00000000000000000000000000000000000000000000000000000000081526004016107df906120f3565b60405180910390fd5b6107fc856107f46113d2565b8584036113da565b60019150509392505050565b60006012905090565b60007f0000000000000000000000000000000000000000000000000000000000000000905090565b60006108db6108466113d2565b8484600160006108546113d2565b73ffffffffffffffffffffffffffffffffffffffff1673ffffffffffffffffffffffffffffffffffffffff16815260200190815260200160002060008873ffffffffffffffffffffffffffffffffffffffff1673ffffffffffffffffffffffffffffffffffffffff168152602001908152602001600020546108d69190612285565b6113da565b6001905092915050565b6108ed610936565b61092c576040517f08c379a000000000000000000000000000000000000000000000000000000000815260040161092390612013565b60405180910390fd5b6109346115a5565b565b6000600560009054906101000a900460ff16905090565b6109556113d2565b73ffffffffffffffffffffffffffffffffffffffff16610973610ba3565b73ffffffffffffffffffffffffffffffffffffffff16146109c9576040517f08c379a00000000000000000000000000000000000000000000000000000000081526004016109c090612113565b60405180910390fd5b6109d1610936565b15610a11576040517f08c379a0000000000000000000000000000000000000000000000000000000008152600401610a08906120d3565b60405180910390fd5b610a19610ba3565b73ffffffffffffffffffffffffffffffffffffffff163373ffffffffffffffffffffffffffffffffffffffff1614610a86576040517f08c379a0000000000000000000000000000000000000000000000000000000008152600401610a7d90612073565b60405180910390fd5b60008111610ac9576040517f08c379a0000000000000000000000000000000000000000000000000000000008152600401610ac0906121b3565b60405180910390fd5b8060068190555050565b60008060008373ffffffffffffffffffffffffffffffffffffffff1673ffffffffffffffffffffffffffffffffffffffff168152602001908152602001600020549050919050565b610b236113d2565b73ffffffffffffffffffffffffffffffffffffffff16610b41610ba3565b73ffffffffffffffffffffffffffffffffffffffff1614610b97576040517f08c379a0000000000000000000000000000000000000000000000000000000008152600401610b8e90612113565b60405180910390fd5b610ba16000611647565b565b6000600560019054906101000a900473ffffffffffffffffffffffffffffffffffffffff16905090565b606060048054610bdc906123ee565b80601f0160208091040260200160405190810160405280929190818152602001828054610c08906123ee565b8015610c555780601f10610c2a57610100808354040283529160200191610c55565b820191906000526020600020905b815481529060010190602001808311610c3857829003601f168201915b5050505050905090565b60008060016000610c6e6113d2565b73ffffffffffffffffffffffffffffffffffffffff1673ffffffffffffffffffffffffffffffffffffffff16815260200190815260200160002060008573ffffffffffffffffffffffffffffffffffffffff1673ffffffffffffffffffffffffffffffffffffffff16815260200190815260200160002054905082811015610d2b576040517f08c379a0000000000000000000000000000000000000000000000000000000008152600401610d22906121d3565b60405180910390fd5b610d3f610d366113d2565b858584036113da565b600191505092915050565b6000600854421015610d91576040517f08c379a0000000000000000000000000000000000000000000000000000000008152600401610d8890612153565b60405180910390fd5b610da3610d9c6113d2565b8484611151565b6001905092915050565b610db5610936565b15610df5576040517f08c379a0000000000000000000000000000000000000000000000000000000008152600401610dec906120d3565b60405180910390fd5b610dfd61170d565b565b6000600160008473ffffffffffffffffffffffffffffffffffffffff1673ffffffffffffffffffffffffffffffffffffffff16815260200190815260200160002060008373ffffffffffffffffffffffffffffffffffffffff1673ffffffffffffffffffffffffffffffffffffffff16815260200190815260200160002054905092915050565b610e8e6113d2565b73ffffffffffffffffffffffffffffffffffffffff16610eac610ba3565b73ffffffffffffffffffffffffffffffffffffffff1614610f02576040517f08c379a0000000000000000000000000000000000000000000000000000000008152600401610ef990612113565b60405180910390fd5b600073ffffffffffffffffffffffffffffffffffffffff168173ffffffffffffffffffffffffffffffffffffffff161415610f72576040517f08c379a0000000000000000000000000000000000000000000000000000000008152600401610f6990612033565b60405180910390fd5b610f7b81611647565b50565b60008183610f8c919061230c565b905092915050565b600073ffffffffffffffffffffffffffffffffffffffff168273ffffffffffffffffffffffffffffffffffffffff161415611004576040517f08c379a0000000000000000000000000000000000000000000000000000000008152600401610ffb906121f3565b60405180910390fd5b611010600083836117b0565b80600260008282546110229190612285565b92505081905550806000808473ffffffffffffffffffffffffffffffffffffffff1673ffffffffffffffffffffffffffffffffffffffff16815260200190815260200160002060008282546110779190612285565b925050819055508173ffffffffffffffffffffffffffffffffffffffff16600073ffffffffffffffffffffffffffffffffffffffff167fddf252ad1be2c89b69c2b068fc378daa952ba7f163c4a11628f55a4df523b3ef836040516110dc9190612233565b60405180910390a36110f060008383611808565b5050565b6110ff83838361114c565b611107610936565b15611147576040517f08c379a000000000000000000000000000000000000000000000000000000000815260040161113e90612213565b60405180910390fd5b505050565b505050565b600073ffffffffffffffffffffffffffffffffffffffff168373ffffffffffffffffffffffffffffffffffffffff1614156111c1576040517f08c379a00000000000000000000000000000000000000000000000000000000081526004016111b890612173565b60405180910390fd5b600073ffffffffffffffffffffffffffffffffffffffff168273ffffffffffffffffffffffffffffffffffffffff161415611231576040517f08c379a000000000000000000000000000000000000000000000000000000000815260040161122890611ff3565b60405180910390fd5b61123c8383836117b0565b60008060008573ffffffffffffffffffffffffffffffffffffffff1673ffffffffffffffffffffffffffffffffffffffff168152602001908152602001600020549050818110156112c2576040517f08c379a00000000000000000000000000000000000000000000000000000000081526004016112b990612093565b60405180910390fd5b8181036000808673ffffffffffffffffffffffffffffffffffffffff1673ffffffffffffffffffffffffffffffffffffffff16815260200190815260200160002081905550816000808573ffffffffffffffffffffffffffffffffffffffff1673ffffffffffffffffffffffffffffffffffffffff16815260200190815260200160002060008282546113559190612285565b925050819055508273ffffffffffffffffffffffffffffffffffffffff168473ffffffffffffffffffffffffffffffffffffffff167fddf252ad1be2c89b69c2b068fc378daa952ba7f163c4a11628f55a4df523b3ef846040516113b99190612233565b60405180910390a36113cc848484611808565b50505050565b600033905090565b600073ffffffffffffffffffffffffffffffffffffffff168373ffffffffffffffffffffffffffffffffffffffff16141561144a576040517f08c379a000000000000000000000000000000000000000000000000000000000815260040161144190612193565b60405180910390fd5b600073ffffffffffffffffffffffffffffffffffffffff168273ffffffffffffffffffffffffffffffffffffffff1614156114ba576040517f08c379a00000000000000000000000000000000000000000000000000000000081526004016114b190612053565b60405180910390fd5b80600160008573ffffffffffffffffffffffffffffffffffffffff1673ffffffffffffffffffffffffffffffffffffffff16815260200190815260200160002060008473ffffffffffffffffffffffffffffffffffffffff1673ffffffffffffffffffffffffffffffffffffffff168152602001908152602001600020819055508173ffffffffffffffffffffffffffffffffffffffff168373ffffffffffffffffffffffffffffffffffffffff167f8c5be1e5ebec7d5bd14f71427d1e84f3dd0314c0f7b2291e5b200ac8c7c3b925836040516115989190612233565b60405180910390a3505050565b6115ad610936565b6115ec576040517f08c379a00000000000000000000000000000000000000000000000000000000081526004016115e390612013565b60405180910390fd5b6000600560006101000a81548160ff0219169083151502179055507f5db9ee0a495bf2e6ff9c91a7834c1ba4fdd244a5e8aa4e537bd38aeae4b073aa6116306113d2565b60405161163d9190611f9b565b60405180910390a1565b6000600560019054906101000a900473ffffffffffffffffffffffffffffffffffffffff16905081600560016101000a81548173ffffffffffffffffffffffffffffffffffffffff021916908373ffffffffffffffffffffffffffffffffffffffff1602179055508173ffffffffffffffffffffffffffffffffffffffff168173ffffffffffffffffffffffffffffffffffffffff167f8be0079c531659141344cd1fd0a4f28419497f9722a3daafe3b4186f6b6457e060405160405180910390a35050565b611715610936565b15611755576040517f08c379a000000000000000000000000000000000000000000000000000000000815260040161174c906120d3565b60405180910390fd5b6001600560006101000a81548160ff0219169083151502179055507f62e78cea01bee320cd4e420270b5ea74000d11b0c9f74754ebdbfc544b05a2586117996113d2565b6040516117a69190611f9b565b60405180910390a1565b6117bb8383836110f4565b6117c3610936565b15611803576040517f08c379a00000000000000000000000000000000000000000000000000000000081526004016117fa90612213565b60405180910390fd5b505050565b505050565b60008135905061181c816124be565b92915050565b600081359050611831816124d5565b92915050565b60006020828403121561184957600080fd5b60006118578482850161180d565b91505092915050565b6000806040838503121561187357600080fd5b60006118818582860161180d565b92505060206118928582860161180d565b9150509250929050565b6000806000606084860312156118b157600080fd5b60006118bf8682870161180d565b93505060206118d08682870161180d565b92505060406118e186828701611822565b9150509250925092565b600080604083850312156118fe57600080fd5b600061190c8582860161180d565b925050602061191d85828601611822565b9150509250929050565b60006020828403121561193957600080fd5b600061194784828501611822565b91505092915050565b61195981612366565b82525050565b61196881612378565b82525050565b600061197982612269565b6119838185612274565b93506119938185602086016123bb565b61199c816124ad565b840191505092915050565b60006119b4602383612274565b91507f45524332303a207472616e7366657220746f20746865207a65726f206164647260008301527f65737300000000000000000000000000000000000000000000000000000000006020830152604082019050919050565b6000611a1a601483612274565b91507f5061757361626c653a206e6f74207061757365640000000000000000000000006000830152602082019050919050565b6000611a5a602683612274565b91507f4f776e61626c653a206e6577206f776e657220697320746865207a65726f206160008301527f64647265737300000000000000000000000000000000000000000000000000006020830152604082019050919050565b6000611ac0602283612274565b91507f45524332303a20617070726f766520746f20746865207a65726f20616464726560008301527f73730000000000000000000000000000000000000000000000000000000000006020830152604082019050919050565b6000611b26602083612274565b91507f6f6e6c7920617574686f72697a65642063616e206368616e67652070726963656000830152602082019050919050565b6000611b66602683612274565b91507f45524332303a207472616e7366657220616d6f756e742065786365656473206260008301527f616c616e636500000000000000000000000000000000000000000000000000006020830152604082019050919050565b6000611bcc601c83612274565b91507f616d6f756e74206f66206574686572206973206e6f742076616c6964000000006000830152602082019050919050565b6000611c0c601083612274565b91507f5061757361626c653a20706175736564000000000000000000000000000000006000830152602082019050919050565b6000611c4c602883612274565b91507f45524332303a207472616e7366657220616d6f756e742065786365656473206160008301527f6c6c6f77616e63650000000000000000000000000000000000000000000000006020830152604082019050919050565b6000611cb2602083612274565b91507f4f776e61626c653a2063616c6c6572206973206e6f7420746865206f776e65726000830152602082019050919050565b6000611cf2601e83612274565b91507f6e756d626572206f6620746f6b656e7320617265206e6f742076616c696400006000830152602082019050919050565b6000611d32601983612274565b91507f74696d6520686173206e6f742066696e697368656420796574000000000000006000830152602082019050919050565b6000611d72602583612274565b91507f45524332303a207472616e736665722066726f6d20746865207a65726f20616460008301527f64726573730000000000000000000000000000000000000000000000000000006020830152604082019050919050565b6000611dd8602483612274565b91507f45524332303a20617070726f76652066726f6d20746865207a65726f2061646460008301527f72657373000000000000000000000000000000000000000000000000000000006020830152604082019050919050565b6000611e3e601f83612274565b91507f7072696365206d7573742062652067726561746572207468616e207a65726f006000830152602082019050919050565b6000611e7e602583612274565b91507f45524332303a2064656372656173656420616c6c6f77616e63652062656c6f7760008301527f207a65726f0000000000000000000000000000000000000000000000000000006020830152604082019050919050565b6000611ee4601f83612274565b91507f45524332303a206d696e7420746f20746865207a65726f2061646472657373006000830152602082019050919050565b6000611f24602a83612274565b91507f45524332305061757361626c653a20746f6b656e207472616e7366657220776860008301527f696c6520706175736564000000000000000000000000000000000000000000006020830152604082019050919050565b611f86816123a4565b82525050565b611f95816123ae565b82525050565b6000602082019050611fb06000830184611950565b92915050565b6000602082019050611fcb600083018461195f565b92915050565b60006020820190508181036000830152611feb818461196e565b905092915050565b6000602082019050818103600083015261200c816119a7565b9050919050565b6000602082019050818103600083015261202c81611a0d565b9050919050565b6000602082019050818103600083015261204c81611a4d565b9050919050565b6000602082019050818103600083015261206c81611ab3565b9050919050565b6000602082019050818103600083015261208c81611b19565b9050919050565b600060208201905081810360008301526120ac81611b59565b9050919050565b600060208201905081810360008301526120cc81611bbf565b9050919050565b600060208201905081810360008301526120ec81611bff565b9050919050565b6000602082019050818103600083015261210c81611c3f565b9050919050565b6000602082019050818103600083015261212c81611ca5565b9050919050565b6000602082019050818103600083015261214c81611ce5565b9050919050565b6000602082019050818103600083015261216c81611d25565b9050919050565b6000602082019050818103600083015261218c81611d65565b9050919050565b600060208201905081810360008301526121ac81611dcb565b9050919050565b600060208201905081810360008301526121cc81611e31565b9050919050565b600060208201905081810360008301526121ec81611e71565b9050919050565b6000602082019050818103600083015261220c81611ed7565b9050919050565b6000602082019050818103600083015261222c81611f17565b9050919050565b60006020820190506122486000830184611f7d565b92915050565b60006020820190506122636000830184611f8c565b92915050565b600081519050919050565b600082825260208201905092915050565b6000612290826123a4565b915061229b836123a4565b9250827fffffffffffffffffffffffffffffffffffffffffffffffffffffffffffffffff038211156122d0576122cf612420565b5b828201905092915050565b60006122e6826123a4565b91506122f1836123a4565b9250826123015761230061244f565b5b828204905092915050565b6000612317826123a4565b9150612322836123a4565b9250817fffffffffffffffffffffffffffffffffffffffffffffffffffffffffffffffff048311821515161561235b5761235a612420565b5b828202905092915050565b600061237182612384565b9050919050565b60008115159050919050565b600073ffffffffffffffffffffffffffffffffffffffff82169050919050565b6000819050919050565b600060ff82169050919050565b60005b838110156123d95780820151818401526020810190506123be565b838111156123e8576000848401525b50505050565b6000600282049050600182168061240657607f821691505b6020821081141561241a5761241961247e565b5b50919050565b7f4e487b7100000000000000000000000000000000000000000000000000000000600052601160045260246000fd5b7f4e487b7100000000000000000000000000000000000000000000000000000000600052601260045260246000fd5b7f4e487b7100000000000000000000000000000000000000000000000000000000600052602260045260246000fd5b6000601f19601f8301169050919050565b6124c781612366565b81146124d257600080fd5b50565b6124de816123a4565b81146124e957600080fd5b5056fea264697066735822122055ce9c7db548c9f728b2ffdbd893629e9cf61a73e42bb190631cdf9de720b0a364736f6c63430008000033",
  "immutableReferences": {
    "2352": [
      {
        "length": 32,
        "start": 2069
      }
    ]
  },
  "source": "//\"SPDX-License-Identifier:UNLICENSED\"\r\n\r\npragma solidity ^0.8.0;\r\n\r\nimport \"@openzeppelin/contracts/token/ERC20/ERC20.sol\";\r\nimport \"@openzeppelin/contracts/token/ERC20/extensions/ERC20Capped.sol\";\r\nimport \"@openzeppelin/contracts/token/ERC20/extensions/ERC20Pausable.sol\";\r\nimport \"@openzeppelin/contracts/utils/math/SafeMath.sol\";\r\nimport \"@openzeppelin/contracts/access/Ownable.sol\";\r\n\r\n\r\ncontract ZeeTockenB is  ERC20, ERC20Capped, ERC20Pausable, Ownable {\r\n using SafeMath for uint;\r\n\r\n\r\n    uint private tockenPrice = 10000000000000000;\r\n    uint private initialSupply = 1000* 10**decimals();\r\n    uint private releaseTime; \r\n\r\n    \r\n    constructor()  ERC20(\"Zee Tocken\", \"Z\")     ERC20Capped(initialSupply.mul(4))    {\r\n    \r\n     ERC20._mint(owner(),initialSupply);\r\n     emit Transfer(address(this),owner(),initialSupply);\r\n    \r\n     releaseTime = block.timestamp + 30 days;\r\n     \r\n     }\r\n   \r\n   \r\n    function changeTockenPrice(uint nPrice) public  onlyOwner whenNotPaused  {\r\n        require(msg.sender == owner(), \"only authorized can change price\");\r\n        require(nPrice > 0,\"price must be greater than zero\");\r\n        tockenPrice = nPrice;\r\n    }\r\n    \r\n    function buyTocken(uint _tockens) public payable checkReleaseTime {\r\n       \r\n       require(_tockens > 0 && _tockens < balanceOf(owner()), \"number of tokens are not valid\");\r\n       require(msg.value >= (_tockens*tockenPrice), \"amount of ether is not valid\");\r\n       \r\n        _transfer(owner(),msg.sender,_tockens);\r\n       emit Transfer(owner(), msg.sender, _tockens);\r\n      }\r\n         \r\n     modifier checkReleaseTime() {\r\n        require(block.timestamp >= releaseTime, \"time has not finished yet\");\r\n        _;\r\n    }     \r\n        function _mint(address account, uint256 amount) internal virtual override (ERC20,ERC20Capped) {\r\n        require(ERC20.totalSupply() + amount <= cap(), \"ERC20Capped: cap exceeded\");\r\n        super._mint(account, amount);\r\n    }\r\n         \r\n    function transfer(address recipient, uint256 amount) public checkReleaseTime virtual override returns (bool) {\r\n        _transfer(_msgSender(), recipient, amount);\r\n        return true;\r\n    }\r\n   \r\n   \r\n    function _beforeTokenTransfer(\r\n        address from,\r\n        address to,\r\n        uint256 amount\r\n    ) internal virtual override (ERC20, ERC20Pausable){\r\n        super._beforeTokenTransfer(from, to, amount);\r\n\r\n        require(!paused(), \"ERC20Pausable: token transfer while paused\");\r\n    }\r\n   \r\n   \r\n   receive() external payable  {\r\n   \r\n   buyTocken(msg.value/tockenPrice);\r\n   }\r\n   \r\n    fallback() external payable {\r\n        buyTocken(msg.value/tockenPrice);\r\n   }\r\n\r\nfunction _stop() public  whenNotPaused {\r\n        _pause();\r\n    }\r\n function _start() public virtual whenPaused {\r\n        _unpause();\r\n        \r\n            }\r\n}",
  "sourcePath": "C:/Personal/Zeeshan Documents/PERSONAL/Learning/PIAIC/Quarter3/PIAIC-Assignments/contracts/ZeeTockenB.sol",
  "compiler": {
    "name": "solc",
    "version": "0.8.0+commit.c7dfd78e.Emscripten.clang"
  },
  "schemaVersion": "3.3.3",
  "updatedAt": "2021-08-28T15:15:36.081Z",
  "devdoc": {
    "kind": "dev",
    "methods": {
      "allowance(address,address)": {
        "details": "See {IERC20-allowance}."
      },
      "approve(address,uint256)": {
        "details": "See {IERC20-approve}. Requirements: - `spender` cannot be the zero address."
      },
      "balanceOf(address)": {
        "details": "See {IERC20-balanceOf}."
      },
      "cap()": {
        "details": "Returns the cap on the token's total supply."
      },
      "decimals()": {
        "details": "Returns the number of decimals used to get its user representation. For example, if `decimals` equals `2`, a balance of `505` tokens should be displayed to a user as `5.05` (`505 / 10 ** 2`). Tokens usually opt for a value of 18, imitating the relationship between Ether and Wei. This is the value {ERC20} uses, unless this function is overridden; NOTE: This information is only used for _display_ purposes: it in no way affects any of the arithmetic of the contract, including {IERC20-balanceOf} and {IERC20-transfer}."
      },
      "decreaseAllowance(address,uint256)": {
        "details": "Atomically decreases the allowance granted to `spender` by the caller. This is an alternative to {approve} that can be used as a mitigation for problems described in {IERC20-approve}. Emits an {Approval} event indicating the updated allowance. Requirements: - `spender` cannot be the zero address. - `spender` must have allowance for the caller of at least `subtractedValue`."
      },
      "increaseAllowance(address,uint256)": {
        "details": "Atomically increases the allowance granted to `spender` by the caller. This is an alternative to {approve} that can be used as a mitigation for problems described in {IERC20-approve}. Emits an {Approval} event indicating the updated allowance. Requirements: - `spender` cannot be the zero address."
      },
      "name()": {
        "details": "Returns the name of the token."
      },
      "owner()": {
        "details": "Returns the address of the current owner."
      },
      "paused()": {
        "details": "Returns true if the contract is paused, and false otherwise."
      },
      "renounceOwnership()": {
        "details": "Leaves the contract without owner. It will not be possible to call `onlyOwner` functions anymore. Can only be called by the current owner. NOTE: Renouncing ownership will leave the contract without an owner, thereby removing any functionality that is only available to the owner."
      },
      "symbol()": {
        "details": "Returns the symbol of the token, usually a shorter version of the name."
      },
      "totalSupply()": {
        "details": "See {IERC20-totalSupply}."
      },
      "transfer(address,uint256)": {
        "details": "See {IERC20-transfer}. Requirements: - `recipient` cannot be the zero address. - the caller must have a balance of at least `amount`."
      },
      "transferFrom(address,address,uint256)": {
        "details": "See {IERC20-transferFrom}. Emits an {Approval} event indicating the updated allowance. This is not required by the EIP. See the note at the beginning of {ERC20}. Requirements: - `sender` and `recipient` cannot be the zero address. - `sender` must have a balance of at least `amount`. - the caller must have allowance for ``sender``'s tokens of at least `amount`."
      },
      "transferOwnership(address)": {
        "details": "Transfers ownership of the contract to a new account (`newOwner`). Can only be called by the current owner."
      }
    },
    "version": 1
  },
  "userdoc": {
    "kind": "user",
    "methods": {},
    "version": 1
  }
}