{
  "contractName": "ZeeTockenC",
  "abi": [
    {
      "inputs": [],
      "stateMutability": "nonpayable",
      "type": "constructor"
    },
    {
      "anonymous": false,
      "inputs": [
        {
          "indexed": true,
          "internalType": "address",
          "name": "owner",
          "type": "address"
        },
        {
          "indexed": true,
          "internalType": "address",
          "name": "spender",
          "type": "address"
        },
        {
          "indexed": false,
          "internalType": "uint256",
          "name": "value",
          "type": "uint256"
        }
      ],
      "name": "Approval",
      "type": "event"
    },
    {
      "anonymous": false,
      "inputs": [
        {
          "indexed": true,
          "internalType": "address",
          "name": "previousOwner",
          "type": "address"
        },
        {
          "indexed": true,
          "internalType": "address",
          "name": "newOwner",
          "type": "address"
        }
      ],
      "name": "OwnershipTransferred",
      "type": "event"
    },
    {
      "anonymous": false,
      "inputs": [
        {
          "indexed": false,
          "internalType": "address",
          "name": "account",
          "type": "address"
        }
      ],
      "name": "Paused",
      "type": "event"
    },
    {
      "anonymous": false,
      "inputs": [
        {
          "indexed": true,
          "internalType": "bytes32",
          "name": "role",
          "type": "bytes32"
        },
        {
          "indexed": true,
          "internalType": "bytes32",
          "name": "previousAdminRole",
          "type": "bytes32"
        },
        {
          "indexed": true,
          "internalType": "bytes32",
          "name": "newAdminRole",
          "type": "bytes32"
        }
      ],
      "name": "RoleAdminChanged",
      "type": "event"
    },
    {
      "anonymous": false,
      "inputs": [
        {
          "indexed": true,
          "internalType": "bytes32",
          "name": "role",
          "type": "bytes32"
        },
        {
          "indexed": true,
          "internalType": "address",
          "name": "account",
          "type": "address"
        },
        {
          "indexed": true,
          "internalType": "address",
          "name": "sender",
          "type": "address"
        }
      ],
      "name": "RoleGranted",
      "type": "event"
    },
    {
      "anonymous": false,
      "inputs": [
        {
          "indexed": true,
          "internalType": "bytes32",
          "name": "role",
          "type": "bytes32"
        },
        {
          "indexed": true,
          "internalType": "address",
          "name": "account",
          "type": "address"
        },
        {
          "indexed": true,
          "internalType": "address",
          "name": "sender",
          "type": "address"
        }
      ],
      "name": "RoleRevoked",
      "type": "event"
    },
    {
      "anonymous": false,
      "inputs": [
        {
          "indexed": true,
          "internalType": "address",
          "name": "from",
          "type": "address"
        },
        {
          "indexed": true,
          "internalType": "address",
          "name": "to",
          "type": "address"
        },
        {
          "indexed": false,
          "internalType": "uint256",
          "name": "value",
          "type": "uint256"
        }
      ],
      "name": "Transfer",
      "type": "event"
    },
    {
      "anonymous": false,
      "inputs": [
        {
          "indexed": false,
          "internalType": "address",
          "name": "account",
          "type": "address"
        }
      ],
      "name": "Unpaused",
      "type": "event"
    },
    {
      "stateMutability": "payable",
      "type": "fallback",
      "payable": true
    },
    {
      "inputs": [],
      "name": "DEFAULT_ADMIN_ROLE",
      "outputs": [
        {
          "internalType": "bytes32",
          "name": "",
          "type": "bytes32"
        }
      ],
      "stateMutability": "view",
      "type": "function",
      "constant": true
    },
    {
      "inputs": [],
      "name": "TOCKEN_MANAGER",
      "outputs": [
        {
          "internalType": "bytes32",
          "name": "",
          "type": "bytes32"
        }
      ],
      "stateMutability": "view",
      "type": "function",
      "constant": true
    },
    {
      "inputs": [
        {
          "internalType": "address",
          "name": "owner",
          "type": "address"
        },
        {
          "internalType": "address",
          "name": "spender",
          "type": "address"
        }
      ],
      "name": "allowance",
      "outputs": [
        {
          "internalType": "uint256",
          "name": "",
          "type": "uint256"
        }
      ],
      "stateMutability": "view",
      "type": "function",
      "constant": true
    },
    {
      "inputs": [
        {
          "internalType": "address",
          "name": "spender",
          "type": "address"
        },
        {
          "internalType": "uint256",
          "name": "amount",
          "type": "uint256"
        }
      ],
      "name": "approve",
      "outputs": [
        {
          "internalType": "bool",
          "name": "",
          "type": "bool"
        }
      ],
      "stateMutability": "nonpayable",
      "type": "function"
    },
    {
      "inputs": [
        {
          "internalType": "address",
          "name": "account",
          "type": "address"
        }
      ],
      "name": "balanceOf",
      "outputs": [
        {
          "internalType": "uint256",
          "name": "",
          "type": "uint256"
        }
      ],
      "stateMutability": "view",
      "type": "function",
      "constant": true
    },
    {
      "inputs": [],
      "name": "cap",
      "outputs": [
        {
          "internalType": "uint256",
          "name": "",
          "type": "uint256"
        }
      ],
      "stateMutability": "view",
      "type": "function",
      "constant": true
    },
    {
      "inputs": [],
      "name": "decimals",
      "outputs": [
        {
          "internalType": "uint8",
          "name": "",
          "type": "uint8"
        }
      ],
      "stateMutability": "view",
      "type": "function",
      "constant": true
    },
    {
      "inputs": [
        {
          "internalType": "address",
          "name": "spender",
          "type": "address"
        },
        {
          "internalType": "uint256",
          "name": "subtractedValue",
          "type": "uint256"
        }
      ],
      "name": "decreaseAllowance",
      "outputs": [
        {
          "internalType": "bool",
          "name": "",
          "type": "bool"
        }
      ],
      "stateMutability": "nonpayable",
      "type": "function"
    },
    {
      "inputs": [
        {
          "internalType": "bytes32",
          "name": "role",
          "type": "bytes32"
        }
      ],
      "name": "getRoleAdmin",
      "outputs": [
        {
          "internalType": "bytes32",
          "name": "",
          "type": "bytes32"
        }
      ],
      "stateMutability": "view",
      "type": "function",
      "constant": true
    },
    {
      "inputs": [
        {
          "internalType": "bytes32",
          "name": "role",
          "type": "bytes32"
        },
        {
          "internalType": "address",
          "name": "account",
          "type": "address"
        }
      ],
      "name": "grantRole",
      "outputs": [],
      "stateMutability": "nonpayable",
      "type": "function"
    },
    {
      "inputs": [
        {
          "internalType": "bytes32",
          "name": "role",
          "type": "bytes32"
        },
        {
          "internalType": "address",
          "name": "account",
          "type": "address"
        }
      ],
      "name": "hasRole",
      "outputs": [
        {
          "internalType": "bool",
          "name": "",
          "type": "bool"
        }
      ],
      "stateMutability": "view",
      "type": "function",
      "constant": true
    },
    {
      "inputs": [
        {
          "internalType": "address",
          "name": "spender",
          "type": "address"
        },
        {
          "internalType": "uint256",
          "name": "addedValue",
          "type": "uint256"
        }
      ],
      "name": "increaseAllowance",
      "outputs": [
        {
          "internalType": "bool",
          "name": "",
          "type": "bool"
        }
      ],
      "stateMutability": "nonpayable",
      "type": "function"
    },
    {
      "inputs": [],
      "name": "name",
      "outputs": [
        {
          "internalType": "string",
          "name": "",
          "type": "string"
        }
      ],
      "stateMutability": "view",
      "type": "function",
      "constant": true
    },
    {
      "inputs": [],
      "name": "owner",
      "outputs": [
        {
          "internalType": "address",
          "name": "",
          "type": "address"
        }
      ],
      "stateMutability": "view",
      "type": "function",
      "constant": true
    },
    {
      "inputs": [],
      "name": "paused",
      "outputs": [
        {
          "internalType": "bool",
          "name": "",
          "type": "bool"
        }
      ],
      "stateMutability": "view",
      "type": "function",
      "constant": true
    },
    {
      "inputs": [],
      "name": "renounceOwnership",
      "outputs": [],
      "stateMutability": "nonpayable",
      "type": "function"
    },
    {
      "inputs": [
        {
          "internalType": "bytes32",
          "name": "role",
          "type": "bytes32"
        },
        {
          "internalType": "address",
          "name": "account",
          "type": "address"
        }
      ],
      "name": "renounceRole",
      "outputs": [],
      "stateMutability": "nonpayable",
      "type": "function"
    },
    {
      "inputs": [
        {
          "internalType": "bytes32",
          "name": "role",
          "type": "bytes32"
        },
        {
          "internalType": "address",
          "name": "account",
          "type": "address"
        }
      ],
      "name": "revokeRole",
      "outputs": [],
      "stateMutability": "nonpayable",
      "type": "function"
    },
    {
      "inputs": [
        {
          "internalType": "bytes4",
          "name": "interfaceId",
          "type": "bytes4"
        }
      ],
      "name": "supportsInterface",
      "outputs": [
        {
          "internalType": "bool",
          "name": "",
          "type": "bool"
        }
      ],
      "stateMutability": "view",
      "type": "function",
      "constant": true
    },
    {
      "inputs": [],
      "name": "symbol",
      "outputs": [
        {
          "internalType": "string",
          "name": "",
          "type": "string"
        }
      ],
      "stateMutability": "view",
      "type": "function",
      "constant": true
    },
    {
      "inputs": [],
      "name": "totalSupply",
      "outputs": [
        {
          "internalType": "uint256",
          "name": "",
          "type": "uint256"
        }
      ],
      "stateMutability": "view",
      "type": "function",
      "constant": true
    },
    {
      "inputs": [
        {
          "internalType": "address",
          "name": "sender",
          "type": "address"
        },
        {
          "internalType": "address",
          "name": "recipient",
          "type": "address"
        },
        {
          "internalType": "uint256",
          "name": "amount",
          "type": "uint256"
        }
      ],
      "name": "transferFrom",
      "outputs": [
        {
          "internalType": "bool",
          "name": "",
          "type": "bool"
        }
      ],
      "stateMutability": "nonpayable",
      "type": "function"
    },
    {
      "inputs": [
        {
          "internalType": "address",
          "name": "newOwner",
          "type": "address"
        }
      ],
      "name": "transferOwnership",
      "outputs": [],
      "stateMutability": "nonpayable",
      "type": "function"
    },
    {
      "stateMutability": "payable",
      "type": "receive",
      "payable": true
    },
    {
      "inputs": [
        {
          "internalType": "address",
          "name": "_newowner",
          "type": "address"
        }
      ],
      "name": "ZtransferOwnership",
      "outputs": [],
      "stateMutability": "nonpayable",
      "type": "function"
    },
    {
      "inputs": [
        {
          "internalType": "address",
          "name": "_manager",
          "type": "address"
        }
      ],
      "name": "assignManager",
      "outputs": [],
      "stateMutability": "nonpayable",
      "type": "function"
    },
    {
      "inputs": [
        {
          "internalType": "uint256",
          "name": "nPrice",
          "type": "uint256"
        }
      ],
      "name": "changeTockenPrice",
      "outputs": [],
      "stateMutability": "nonpayable",
      "type": "function"
    },
    {
      "inputs": [
        {
          "internalType": "uint256",
          "name": "_tockens",
          "type": "uint256"
        }
      ],
      "name": "buyTocken",
      "outputs": [],
      "stateMutability": "payable",
      "type": "function",
      "payable": true
    },
    {
      "inputs": [
        {
          "internalType": "uint256",
          "name": "_tockens",
          "type": "uint256"
        }
      ],
      "name": "returnTocken",
      "outputs": [],
      "stateMutability": "payable",
      "type": "function",
      "payable": true
    },
    {
      "inputs": [
        {
          "internalType": "address",
          "name": "recipient",
          "type": "address"
        },
        {
          "internalType": "uint256",
          "name": "amount",
          "type": "uint256"
        }
      ],
      "name": "transfer",
      "outputs": [
        {
          "internalType": "bool",
          "name": "",
          "type": "bool"
        }
      ],
      "stateMutability": "nonpayable",
      "type": "function"
    },
    {
      "inputs": [],
      "name": "_stop",
      "outputs": [],
      "stateMutability": "nonpayable",
      "type": "function"
    },
    {
      "inputs": [],
      "name": "_start",
      "outputs": [],
      "stateMutability": "nonpayable",
      "type": "function"
    }
  ],
  "bytecode": "0x60a0604052662386f26fc100006007556200001f6200028360201b60201c565b600a6200002d919062000a82565b6103e86200003c919062000bbf565b6008553480156200004c57600080fd5b506200006a60046008546200028c60201b6200164a1790919060201c565b6040518060400160405280600a81526020017f5a656520546f636b656e000000000000000000000000000000000000000000008152506040518060400160405280600181526020017f5a000000000000000000000000000000000000000000000000000000000000008152508160039080519060200190620000ee92919062000789565b5080600490805190602001906200010792919062000789565b5050506000811162000150576040517f08c379a0000000000000000000000000000000000000000000000000000000008152600401620001479062000936565b60405180910390fd5b8060808181525050506000600560006101000a81548160ff0219169083151502179055506200019462000188620002a460201b60201c565b620002ac60201b60201c565b620001bc620001a86200037260201b60201c565b6008546200039c60201b620016601760201c565b620001cc6200037260201b60201c565b73ffffffffffffffffffffffffffffffffffffffff163073ffffffffffffffffffffffffffffffffffffffff167fddf252ad1be2c89b69c2b068fc378daa952ba7f163c4a11628f55a4df523b3ef6008546040516200022c91906200099c565b60405180910390a362278d0042620002459190620009ca565b6009819055506200027d7f19f7aeddc844dd29ef3445ec4e4113103ebf3cd8b80d30ac32e6d84cacb70044336200051560201b60201c565b62000cd8565b60006012905090565b600081836200029c919062000bbf565b905092915050565b600033905090565b6000600560019054906101000a900473ffffffffffffffffffffffffffffffffffffffff16905081600560016101000a81548173ffffffffffffffffffffffffffffffffffffffff021916908373ffffffffffffffffffffffffffffffffffffffff1602179055508173ffffffffffffffffffffffffffffffffffffffff168173ffffffffffffffffffffffffffffffffffffffff167f8be0079c531659141344cd1fd0a4f28419497f9722a3daafe3b4186f6b6457e060405160405180910390a35050565b6000600560019054906101000a900473ffffffffffffffffffffffffffffffffffffffff16905090565b600073ffffffffffffffffffffffffffffffffffffffff168273ffffffffffffffffffffffffffffffffffffffff1614156200040f576040517f08c379a0000000000000000000000000000000000000000000000000000000008152600401620004069062000958565b60405180910390fd5b62000423600083836200052b60201b60201c565b8060026000828254620004379190620009ca565b92505081905550806000808473ffffffffffffffffffffffffffffffffffffffff1673ffffffffffffffffffffffffffffffffffffffff16815260200190815260200160002060008282546200048e9190620009ca565b925050819055508173ffffffffffffffffffffffffffffffffffffffff16600073ffffffffffffffffffffffffffffffffffffffff167fddf252ad1be2c89b69c2b068fc378daa952ba7f163c4a11628f55a4df523b3ef83604051620004f591906200099c565b60405180910390a362000511600083836200059b60201b60201c565b5050565b620005278282620005a060201b60201c565b5050565b620005438383836200069260201b620017c01760201c565b620005536200070260201b60201c565b1562000596576040517f08c379a00000000000000000000000000000000000000000000000000000000081526004016200058d906200097a565b60405180910390fd5b505050565b505050565b620005b282826200071960201b60201c565b6200068e5760016006600084815260200190815260200160002060000160008373ffffffffffffffffffffffffffffffffffffffff1673ffffffffffffffffffffffffffffffffffffffff16815260200190815260200160002060006101000a81548160ff02191690831515021790555062000633620002a460201b60201c565b73ffffffffffffffffffffffffffffffffffffffff168173ffffffffffffffffffffffffffffffffffffffff16837f2f8788117e7eff1d82e926ec794901d17c78024a50270940304540a733656f0d60405160405180910390a45b5050565b620006aa8383836200078460201b620018181760201c565b620006ba6200070260201b60201c565b15620006fd576040517f08c379a0000000000000000000000000000000000000000000000000000000008152600401620006f4906200097a565b60405180910390fd5b505050565b6000600560009054906101000a900460ff16905090565b60006006600084815260200190815260200160002060000160008373ffffffffffffffffffffffffffffffffffffffff1673ffffffffffffffffffffffffffffffffffffffff16815260200190815260200160002060009054906101000a900460ff16905092915050565b505050565b828054620007979062000c37565b90600052602060002090601f016020900481019282620007bb576000855562000807565b82601f10620007d657805160ff191683800117855562000807565b8280016001018555821562000807579182015b8281111562000806578251825591602001919060010190620007e9565b5b5090506200081691906200081a565b5090565b5b80821115620008355760008160009055506001016200081b565b5090565b600062000848601583620009b9565b91507f45524332304361707065643a20636170206973203000000000000000000000006000830152602082019050919050565b60006200088a601f83620009b9565b91507f45524332303a206d696e7420746f20746865207a65726f2061646472657373006000830152602082019050919050565b6000620008cc602a83620009b9565b91507f45524332305061757361626c653a20746f6b656e207472616e7366657220776860008301527f696c6520706175736564000000000000000000000000000000000000000000006020830152604082019050919050565b620009308162000c20565b82525050565b60006020820190508181036000830152620009518162000839565b9050919050565b6000602082019050818103600083015262000973816200087b565b9050919050565b600060208201905081810360008301526200099581620008bd565b9050919050565b6000602082019050620009b3600083018462000925565b92915050565b600082825260208201905092915050565b6000620009d78262000c20565b9150620009e48362000c20565b9250827fffffffffffffffffffffffffffffffffffffffffffffffffffffffffffffffff0382111562000a1c5762000a1b62000c6d565b5b828201905092915050565b6000808291508390505b600185111562000a795780860481111562000a515762000a5062000c6d565b5b600185161562000a615780820291505b808102905062000a718562000ccb565b945062000a31565b94509492505050565b600062000a8f8262000c20565b915062000a9c8362000c2a565b925062000acb7fffffffffffffffffffffffffffffffffffffffffffffffffffffffffffffffff848462000ad3565b905092915050565b60008262000ae5576001905062000bb8565b8162000af5576000905062000bb8565b816001811462000b0e576002811462000b195762000b4f565b600191505062000bb8565b60ff84111562000b2e5762000b2d62000c6d565b5b8360020a91508482111562000b485762000b4762000c6d565b5b5062000bb8565b5060208310610133831016604e8410600b841016171562000b895782820a90508381111562000b835762000b8262000c6d565b5b62000bb8565b62000b98848484600162000a27565b9250905081840481111562000bb25762000bb162000c6d565b5b81810290505b9392505050565b600062000bcc8262000c20565b915062000bd98362000c20565b9250817fffffffffffffffffffffffffffffffffffffffffffffffffffffffffffffffff048311821515161562000c155762000c1462000c6d565b5b828202905092915050565b6000819050919050565b600060ff82169050919050565b6000600282049050600182168062000c5057607f821691505b6020821081141562000c675762000c6662000c9c565b5b50919050565b7f4e487b7100000000000000000000000000000000000000000000000000000000600052601160045260246000fd5b7f4e487b7100000000000000000000000000000000000000000000000000000000600052602260045260246000fd5b60008160011c9050919050565b60805161350c62000cf46000396000610d00015261350c6000f3fe6080604052600436106101dc5760003560e01c80635c975abb11610102578063a217fddf11610095578063d547741f11610064578063d547741f146106e7578063dd62ed3e14610710578063f2fde38b1461074d578063fddd337914610776576101f9565b8063a217fddf1461062b578063a457c2d714610656578063a9059cbb14610693578063be8343ab146106d0576101f9565b80638da5cb5b116100d15780638da5cb5b1461057c57806391d14854146105a757806395d89b41146105e4578063979be2fe1461060f576101f9565b80635c975abb146104d4578063679548a0146104ff57806370a0823114610528578063715018a614610565576101f9565b80632d2dcc481161017a57806336568abe1161014957806336568abe1461042c5780633950935114610455578063491712361461049257806353ef6781146104bd576101f9565b80632d2dcc48146103845780632f2ff15d146103ad578063313ce567146103d6578063355274ea14610401576101f9565b80630a7aa482116101b65780630a7aa482146102b657806318160ddd146102df57806323b872dd1461030a578063248a9ca314610347576101f9565b806301ffc9a71461021157806306fdde031461024e578063095ea7b314610279576101f9565b366101f9576101f7600754346101f29190613237565b610792565b005b61020f6007543461020a9190613237565b610792565b005b34801561021d57600080fd5b5061023860048036038101906102339190612654565b610905565b6040516102459190612eac565b60405180910390f35b34801561025a57600080fd5b5061026361097f565b6040516102709190612ee2565b60405180910390f35b34801561028557600080fd5b506102a0600480360381019061029b91906125b3565b610a11565b6040516102ad9190612eac565b60405180910390f35b3480156102c257600080fd5b506102dd60048036038101906102d891906124ff565b610a2f565b005b3480156102eb57600080fd5b506102f4610aff565b6040516103019190613184565b60405180910390f35b34801561031657600080fd5b50610331600480360381019061032c9190612564565b610b09565b60405161033e9190612eac565b60405180910390f35b34801561035357600080fd5b5061036e600480360381019061036991906125ef565b610c01565b60405161037b9190612ec7565b60405180910390f35b34801561039057600080fd5b506103ab60048036038101906103a691906124ff565b610c21565b005b3480156103b957600080fd5b506103d460048036038101906103cf9190612618565b610cca565b005b3480156103e257600080fd5b506103eb610cf3565b6040516103f8919061319f565b60405180910390f35b34801561040d57600080fd5b50610416610cfc565b6040516104239190613184565b60405180910390f35b34801561043857600080fd5b50610453600480360381019061044e9190612618565b610d24565b005b34801561046157600080fd5b5061047c600480360381019061047791906125b3565b610da7565b6040516104899190612eac565b60405180910390f35b34801561049e57600080fd5b506104a7610e53565b6040516104b49190612ec7565b60405180910390f35b3480156104c957600080fd5b506104d2610e77565b005b3480156104e057600080fd5b506104e9610ec8565b6040516104f69190612eac565b60405180910390f35b34801561050b57600080fd5b506105266004803603810190610521919061267d565b610edf565b005b34801561053457600080fd5b5061054f600480360381019061054a91906124ff565b610fdd565b60405161055c9190613184565b60405180910390f35b34801561057157600080fd5b5061057a611025565b005b34801561058857600080fd5b506105916110ad565b60405161059e9190612e91565b60405180910390f35b3480156105b357600080fd5b506105ce60048036038101906105c99190612618565b6110d7565b6040516105db9190612eac565b60405180910390f35b3480156105f057600080fd5b506105f9611142565b6040516106069190612ee2565b60405180910390f35b6106296004803603810190610624919061267d565b6111d4565b005b34801561063757600080fd5b506106406112fb565b60405161064d9190612ec7565b60405180910390f35b34801561066257600080fd5b5061067d600480360381019061067891906125b3565b611302565b60405161068a9190612eac565b60405180910390f35b34801561069f57600080fd5b506106ba60048036038101906106b591906125b3565b6113ed565b6040516106c79190612eac565b60405180910390f35b3480156106dc57600080fd5b506106e5611450565b005b3480156106f357600080fd5b5061070e60048036038101906107099190612618565b6114a2565b005b34801561071c57600080fd5b5061073760048036038101906107329190612528565b6114cb565b6040516107449190613184565b60405180910390f35b34801561075957600080fd5b50610774600480360381019061076f91906124ff565b611552565b005b610790600480360381019061078b919061267d565b610792565b005b6009544210156107d7576040517f08c379a00000000000000000000000000000000000000000000000000000000081526004016107ce90613084565b60405180910390fd5b6000811180156107f557506107f26107ed6110ad565b610fdd565b81105b610834576040517f08c379a000000000000000000000000000000000000000000000000000000000815260040161082b90613064565b60405180910390fd5b600754816108429190613268565b341015610884576040517f08c379a000000000000000000000000000000000000000000000000000000000815260040161087b90612fe4565b60405180910390fd5b61089661088f6110ad565b338361181d565b3373ffffffffffffffffffffffffffffffffffffffff166108b56110ad565b73ffffffffffffffffffffffffffffffffffffffff167fddf252ad1be2c89b69c2b068fc378daa952ba7f163c4a11628f55a4df523b3ef836040516108fa9190613184565b60405180910390a350565b60007f7965db0b000000000000000000000000000000000000000000000000000000007bffffffffffffffffffffffffffffffffffffffffffffffffffffffff1916827bffffffffffffffffffffffffffffffffffffffffffffffffffffffff19161480610978575061097782611a9e565b5b9050919050565b60606003805461098e906133aa565b80601f01602080910402602001604051908101604052809291908181526020018280546109ba906133aa565b8015610a075780601f106109dc57610100808354040283529160200191610a07565b820191906000526020600020905b8154815290600101906020018083116109ea57829003601f168201915b5050505050905090565b6000610a25610a1e611b08565b8484611b10565b6001905092915050565b610a37611b08565b73ffffffffffffffffffffffffffffffffffffffff16610a556110ad565b73ffffffffffffffffffffffffffffffffffffffff1614610aab576040517f08c379a0000000000000000000000000000000000000000000000000000000008152600401610aa290613044565b60405180910390fd5b610ab3610ec8565b15610af3576040517f08c379a0000000000000000000000000000000000000000000000000000000008152600401610aea90613004565b60405180910390fd5b610afc81611552565b50565b6000600254905090565b6000610b1684848461181d565b6000600160008673ffffffffffffffffffffffffffffffffffffffff1673ffffffffffffffffffffffffffffffffffffffff1681526020019081526020016000206000610b61611b08565b73ffffffffffffffffffffffffffffffffffffffff1673ffffffffffffffffffffffffffffffffffffffff16815260200190815260200160002054905082811015610be1576040517f08c379a0000000000000000000000000000000000000000000000000000000008152600401610bd890613024565b60405180910390fd5b610bf585610bed611b08565b858403611b10565b60019150509392505050565b600060066000838152602001908152602001600020600101549050919050565b610c29611b08565b73ffffffffffffffffffffffffffffffffffffffff16610c476110ad565b73ffffffffffffffffffffffffffffffffffffffff1614610c9d576040517f08c379a0000000000000000000000000000000000000000000000000000000008152600401610c9490613044565b60405180910390fd5b610cc77f19f7aeddc844dd29ef3445ec4e4113103ebf3cd8b80d30ac32e6d84cacb7004482611cdb565b50565b610cd382610c01565b610ce481610cdf611b08565b611ce9565b610cee8383611d86565b505050565b60006012905090565b60007f0000000000000000000000000000000000000000000000000000000000000000905090565b610d2c611b08565b73ffffffffffffffffffffffffffffffffffffffff168173ffffffffffffffffffffffffffffffffffffffff1614610d99576040517f08c379a0000000000000000000000000000000000000000000000000000000008152600401610d9090613124565b60405180910390fd5b610da38282611e67565b5050565b6000610e49610db4611b08565b848460016000610dc2611b08565b73ffffffffffffffffffffffffffffffffffffffff1673ffffffffffffffffffffffffffffffffffffffff16815260200190815260200160002060008873ffffffffffffffffffffffffffffffffffffffff1673ffffffffffffffffffffffffffffffffffffffff16815260200190815260200160002054610e4491906131e1565b611b10565b6001905092915050565b7f19f7aeddc844dd29ef3445ec4e4113103ebf3cd8b80d30ac32e6d84cacb7004481565b610e7f610ec8565b610ebe576040517f08c379a0000000000000000000000000000000000000000000000000000000008152600401610eb590612f44565b60405180910390fd5b610ec6611f49565b565b6000600560009054906101000a900460ff16905090565b610ee7610ec8565b15610f27576040517f08c379a0000000000000000000000000000000000000000000000000000000008152600401610f1e90613004565b60405180910390fd5b610f517f19f7aeddc844dd29ef3445ec4e4113103ebf3cd8b80d30ac32e6d84cacb70044336110d7565b610f90576040517f08c379a0000000000000000000000000000000000000000000000000000000008152600401610f8790612fa4565b60405180910390fd5b60008111610fd3576040517f08c379a0000000000000000000000000000000000000000000000000000000008152600401610fca906130e4565b60405180910390fd5b8060078190555050565b60008060008373ffffffffffffffffffffffffffffffffffffffff1673ffffffffffffffffffffffffffffffffffffffff168152602001908152602001600020549050919050565b61102d611b08565b73ffffffffffffffffffffffffffffffffffffffff1661104b6110ad565b73ffffffffffffffffffffffffffffffffffffffff16146110a1576040517f08c379a000000000000000000000000000000000000000000000000000000000815260040161109890613044565b60405180910390fd5b6110ab6000611feb565b565b6000600560019054906101000a900473ffffffffffffffffffffffffffffffffffffffff16905090565b60006006600084815260200190815260200160002060000160008373ffffffffffffffffffffffffffffffffffffffff1673ffffffffffffffffffffffffffffffffffffffff16815260200190815260200160002060009054906101000a900460ff16905092915050565b606060048054611151906133aa565b80601f016020809104026020016040519081016040528092919081815260200182805461117d906133aa565b80156111ca5780601f1061119f576101008083540402835291602001916111ca565b820191906000526020600020905b8154815290600101906020018083116111ad57829003601f168201915b5050505050905090565b6000811180156111eb57506111e833610fdd565b81105b61122a576040517f08c379a000000000000000000000000000000000000000000000000000000000815260040161122190613064565b60405180910390fd5b600754816112389190613268565b34101561127a576040517f08c379a000000000000000000000000000000000000000000000000000000000815260040161127190612fe4565b60405180910390fd5b61128c336112866110ad565b8361181d565b6112946110ad565b73ffffffffffffffffffffffffffffffffffffffff163373ffffffffffffffffffffffffffffffffffffffff167fddf252ad1be2c89b69c2b068fc378daa952ba7f163c4a11628f55a4df523b3ef836040516112f09190613184565b60405180910390a350565b6000801b81565b60008060016000611311611b08565b73ffffffffffffffffffffffffffffffffffffffff1673ffffffffffffffffffffffffffffffffffffffff16815260200190815260200160002060008573ffffffffffffffffffffffffffffffffffffffff1673ffffffffffffffffffffffffffffffffffffffff168152602001908152602001600020549050828110156113ce576040517f08c379a00000000000000000000000000000000000000000000000000000000081526004016113c590613104565b60405180910390fd5b6113e26113d9611b08565b85858403611b10565b600191505092915050565b6000600954421015611434576040517f08c379a000000000000000000000000000000000000000000000000000000000815260040161142b90613084565b60405180910390fd5b61144661143f611b08565b848461181d565b6001905092915050565b611458610ec8565b15611498576040517f08c379a000000000000000000000000000000000000000000000000000000000815260040161148f90613004565b60405180910390fd5b6114a06120b1565b565b6114ab82610c01565b6114bc816114b7611b08565b611ce9565b6114c68383611e67565b505050565b6000600160008473ffffffffffffffffffffffffffffffffffffffff1673ffffffffffffffffffffffffffffffffffffffff16815260200190815260200160002060008373ffffffffffffffffffffffffffffffffffffffff1673ffffffffffffffffffffffffffffffffffffffff16815260200190815260200160002054905092915050565b61155a611b08565b73ffffffffffffffffffffffffffffffffffffffff166115786110ad565b73ffffffffffffffffffffffffffffffffffffffff16146115ce576040517f08c379a00000000000000000000000000000000000000000000000000000000081526004016115c590613044565b60405180910390fd5b600073ffffffffffffffffffffffffffffffffffffffff168173ffffffffffffffffffffffffffffffffffffffff16141561163e576040517f08c379a000000000000000000000000000000000000000000000000000000000815260040161163590612f64565b60405180910390fd5b61164781611feb565b50565b600081836116589190613268565b905092915050565b600073ffffffffffffffffffffffffffffffffffffffff168273ffffffffffffffffffffffffffffffffffffffff1614156116d0576040517f08c379a00000000000000000000000000000000000000000000000000000000081526004016116c790613144565b60405180910390fd5b6116dc60008383612154565b80600260008282546116ee91906131e1565b92505081905550806000808473ffffffffffffffffffffffffffffffffffffffff1673ffffffffffffffffffffffffffffffffffffffff168152602001908152602001600020600082825461174391906131e1565b925050819055508173ffffffffffffffffffffffffffffffffffffffff16600073ffffffffffffffffffffffffffffffffffffffff167fddf252ad1be2c89b69c2b068fc378daa952ba7f163c4a11628f55a4df523b3ef836040516117a89190613184565b60405180910390a36117bc600083836121ac565b5050565b6117cb838383611818565b6117d3610ec8565b15611813576040517f08c379a000000000000000000000000000000000000000000000000000000000815260040161180a90613164565b60405180910390fd5b505050565b505050565b600073ffffffffffffffffffffffffffffffffffffffff168373ffffffffffffffffffffffffffffffffffffffff16141561188d576040517f08c379a0000000000000000000000000000000000000000000000000000000008152600401611884906130a4565b60405180910390fd5b600073ffffffffffffffffffffffffffffffffffffffff168273ffffffffffffffffffffffffffffffffffffffff1614156118fd576040517f08c379a00000000000000000000000000000000000000000000000000000000081526004016118f490612f24565b60405180910390fd5b611908838383612154565b60008060008573ffffffffffffffffffffffffffffffffffffffff1673ffffffffffffffffffffffffffffffffffffffff1681526020019081526020016000205490508181101561198e576040517f08c379a000000000000000000000000000000000000000000000000000000000815260040161198590612fc4565b60405180910390fd5b8181036000808673ffffffffffffffffffffffffffffffffffffffff1673ffffffffffffffffffffffffffffffffffffffff16815260200190815260200160002081905550816000808573ffffffffffffffffffffffffffffffffffffffff1673ffffffffffffffffffffffffffffffffffffffff1681526020019081526020016000206000828254611a2191906131e1565b925050819055508273ffffffffffffffffffffffffffffffffffffffff168473ffffffffffffffffffffffffffffffffffffffff167fddf252ad1be2c89b69c2b068fc378daa952ba7f163c4a11628f55a4df523b3ef84604051611a859190613184565b60405180910390a3611a988484846121ac565b50505050565b60007f01ffc9a7000000000000000000000000000000000000000000000000000000007bffffffffffffffffffffffffffffffffffffffffffffffffffffffff1916827bffffffffffffffffffffffffffffffffffffffffffffffffffffffff1916149050919050565b600033905090565b600073ffffffffffffffffffffffffffffffffffffffff168373ffffffffffffffffffffffffffffffffffffffff161415611b80576040517f08c379a0000000000000000000000000000000000000000000000000000000008152600401611b77906130c4565b60405180910390fd5b600073ffffffffffffffffffffffffffffffffffffffff168273ffffffffffffffffffffffffffffffffffffffff161415611bf0576040517f08c379a0000000000000000000000000000000000000000000000000000000008152600401611be790612f84565b60405180910390fd5b80600160008573ffffffffffffffffffffffffffffffffffffffff1673ffffffffffffffffffffffffffffffffffffffff16815260200190815260200160002060008473ffffffffffffffffffffffffffffffffffffffff1673ffffffffffffffffffffffffffffffffffffffff168152602001908152602001600020819055508173ffffffffffffffffffffffffffffffffffffffff168373ffffffffffffffffffffffffffffffffffffffff167f8c5be1e5ebec7d5bd14f71427d1e84f3dd0314c0f7b2291e5b200ac8c7c3b92583604051611cce9190613184565b60405180910390a3505050565b611ce58282611d86565b5050565b611cf382826110d7565b611d8257611d188173ffffffffffffffffffffffffffffffffffffffff1660146121b1565b611d268360001c60206121b1565b604051602001611d37929190612e57565b6040516020818303038152906040526040517f08c379a0000000000000000000000000000000000000000000000000000000008152600401611d799190612ee2565b60405180910390fd5b5050565b611d9082826110d7565b611e635760016006600084815260200190815260200160002060000160008373ffffffffffffffffffffffffffffffffffffffff1673ffffffffffffffffffffffffffffffffffffffff16815260200190815260200160002060006101000a81548160ff021916908315150217905550611e08611b08565b73ffffffffffffffffffffffffffffffffffffffff168173ffffffffffffffffffffffffffffffffffffffff16837f2f8788117e7eff1d82e926ec794901d17c78024a50270940304540a733656f0d60405160405180910390a45b5050565b611e7182826110d7565b15611f455760006006600084815260200190815260200160002060000160008373ffffffffffffffffffffffffffffffffffffffff1673ffffffffffffffffffffffffffffffffffffffff16815260200190815260200160002060006101000a81548160ff021916908315150217905550611eea611b08565b73ffffffffffffffffffffffffffffffffffffffff168173ffffffffffffffffffffffffffffffffffffffff16837ff6391f5c32d9c69d2a47ea670b442974b53935d1edc7fd64eb21e047a839171b60405160405180910390a45b5050565b611f51610ec8565b611f90576040517f08c379a0000000000000000000000000000000000000000000000000000000008152600401611f8790612f44565b60405180910390fd5b6000600560006101000a81548160ff0219169083151502179055507f5db9ee0a495bf2e6ff9c91a7834c1ba4fdd244a5e8aa4e537bd38aeae4b073aa611fd4611b08565b604051611fe19190612e91565b60405180910390a1565b6000600560019054906101000a900473ffffffffffffffffffffffffffffffffffffffff16905081600560016101000a81548173ffffffffffffffffffffffffffffffffffffffff021916908373ffffffffffffffffffffffffffffffffffffffff1602179055508173ffffffffffffffffffffffffffffffffffffffff168173ffffffffffffffffffffffffffffffffffffffff167f8be0079c531659141344cd1fd0a4f28419497f9722a3daafe3b4186f6b6457e060405160405180910390a35050565b6120b9610ec8565b156120f9576040517f08c379a00000000000000000000000000000000000000000000000000000000081526004016120f090613004565b60405180910390fd5b6001600560006101000a81548160ff0219169083151502179055507f62e78cea01bee320cd4e420270b5ea74000d11b0c9f74754ebdbfc544b05a25861213d611b08565b60405161214a9190612e91565b60405180910390a1565b61215f8383836117c0565b612167610ec8565b156121a7576040517f08c379a000000000000000000000000000000000000000000000000000000000815260040161219e90613164565b60405180910390fd5b505050565b505050565b6060600060028360026121c49190613268565b6121ce91906131e1565b67ffffffffffffffff81111561220d577f4e487b7100000000000000000000000000000000000000000000000000000000600052604160045260246000fd5b6040519080825280601f01601f19166020018201604052801561223f5781602001600182028036833780820191505090505b5090507f30000000000000000000000000000000000000000000000000000000000000008160008151811061229d577f4e487b7100000000000000000000000000000000000000000000000000000000600052603260045260246000fd5b60200101907effffffffffffffffffffffffffffffffffffffffffffffffffffffffffffff1916908160001a9053507f780000000000000000000000000000000000000000000000000000000000000081600181518110612327577f4e487b7100000000000000000000000000000000000000000000000000000000600052603260045260246000fd5b60200101907effffffffffffffffffffffffffffffffffffffffffffffffffffffffffffff1916908160001a905350600060018460026123679190613268565b61237191906131e1565b90505b600181111561245d577f3031323334353637383961626364656600000000000000000000000000000000600f8616601081106123d9577f4e487b7100000000000000000000000000000000000000000000000000000000600052603260045260246000fd5b1a60f81b828281518110612416577f4e487b7100000000000000000000000000000000000000000000000000000000600052603260045260246000fd5b60200101907effffffffffffffffffffffffffffffffffffffffffffffffffffffffffffff1916908160001a905350600485901c94508061245690613380565b9050612374565b50600084146124a1576040517f08c379a000000000000000000000000000000000000000000000000000000000815260040161249890612f04565b60405180910390fd5b8091505092915050565b6000813590506124ba8161347a565b92915050565b6000813590506124cf81613491565b92915050565b6000813590506124e4816134a8565b92915050565b6000813590506124f9816134bf565b92915050565b60006020828403121561251157600080fd5b600061251f848285016124ab565b91505092915050565b6000806040838503121561253b57600080fd5b6000612549858286016124ab565b925050602061255a858286016124ab565b9150509250929050565b60008060006060848603121561257957600080fd5b6000612587868287016124ab565b9350506020612598868287016124ab565b92505060406125a9868287016124ea565b9150509250925092565b600080604083850312156125c657600080fd5b60006125d4858286016124ab565b92505060206125e5858286016124ea565b9150509250929050565b60006020828403121561260157600080fd5b600061260f848285016124c0565b91505092915050565b6000806040838503121561262b57600080fd5b6000612639858286016124c0565b925050602061264a858286016124ab565b9150509250929050565b60006020828403121561266657600080fd5b6000612674848285016124d5565b91505092915050565b60006020828403121561268f57600080fd5b600061269d848285016124ea565b91505092915050565b6126af816132c2565b82525050565b6126be816132d4565b82525050565b6126cd816132e0565b82525050565b60006126de826131ba565b6126e881856131c5565b93506126f881856020860161334d565b61270181613469565b840191505092915050565b6000612717826131ba565b61272181856131d6565b935061273181856020860161334d565b80840191505092915050565b600061274a6020836131c5565b91507f537472696e67733a20686578206c656e67746820696e73756666696369656e746000830152602082019050919050565b600061278a6023836131c5565b91507f45524332303a207472616e7366657220746f20746865207a65726f206164647260008301527f65737300000000000000000000000000000000000000000000000000000000006020830152604082019050919050565b60006127f06014836131c5565b91507f5061757361626c653a206e6f74207061757365640000000000000000000000006000830152602082019050919050565b60006128306026836131c5565b91507f4f776e61626c653a206e6577206f776e657220697320746865207a65726f206160008301527f64647265737300000000000000000000000000000000000000000000000000006020830152604082019050919050565b60006128966022836131c5565b91507f45524332303a20617070726f766520746f20746865207a65726f20616464726560008301527f73730000000000000000000000000000000000000000000000000000000000006020830152604082019050919050565b60006128fc6020836131c5565b91507f6f6e6c7920617574686f72697a65642063616e206368616e67652070726963656000830152602082019050919050565b600061293c6026836131c5565b91507f45524332303a207472616e7366657220616d6f756e742065786365656473206260008301527f616c616e636500000000000000000000000000000000000000000000000000006020830152604082019050919050565b60006129a2601c836131c5565b91507f616d6f756e74206f66206574686572206973206e6f742076616c6964000000006000830152602082019050919050565b60006129e26010836131c5565b91507f5061757361626c653a20706175736564000000000000000000000000000000006000830152602082019050919050565b6000612a226028836131c5565b91507f45524332303a207472616e7366657220616d6f756e742065786365656473206160008301527f6c6c6f77616e63650000000000000000000000000000000000000000000000006020830152604082019050919050565b6000612a886020836131c5565b91507f4f776e61626c653a2063616c6c6572206973206e6f7420746865206f776e65726000830152602082019050919050565b6000612ac8601e836131c5565b91507f6e756d626572206f6620746f6b656e7320617265206e6f742076616c696400006000830152602082019050919050565b6000612b086019836131c5565b91507f74696d6520686173206e6f742066696e697368656420796574000000000000006000830152602082019050919050565b6000612b486025836131c5565b91507f45524332303a207472616e736665722066726f6d20746865207a65726f20616460008301527f64726573730000000000000000000000000000000000000000000000000000006020830152604082019050919050565b6000612bae6024836131c5565b91507f45524332303a20617070726f76652066726f6d20746865207a65726f2061646460008301527f72657373000000000000000000000000000000000000000000000000000000006020830152604082019050919050565b6000612c146017836131d6565b91507f416363657373436f6e74726f6c3a206163636f756e74200000000000000000006000830152601782019050919050565b6000612c54601f836131c5565b91507f7072696365206d7573742062652067726561746572207468616e207a65726f006000830152602082019050919050565b6000612c946025836131c5565b91507f45524332303a2064656372656173656420616c6c6f77616e63652062656c6f7760008301527f207a65726f0000000000000000000000000000000000000000000000000000006020830152604082019050919050565b6000612cfa6011836131d6565b91507f206973206d697373696e6720726f6c65200000000000000000000000000000006000830152601182019050919050565b6000612d3a602f836131c5565b91507f416363657373436f6e74726f6c3a2063616e206f6e6c792072656e6f756e636560008301527f20726f6c657320666f722073656c6600000000000000000000000000000000006020830152604082019050919050565b6000612da0601f836131c5565b91507f45524332303a206d696e7420746f20746865207a65726f2061646472657373006000830152602082019050919050565b6000612de0602a836131c5565b91507f45524332305061757361626c653a20746f6b656e207472616e7366657220776860008301527f696c6520706175736564000000000000000000000000000000000000000000006020830152604082019050919050565b612e4281613336565b82525050565b612e5181613340565b82525050565b6000612e6282612c07565b9150612e6e828561270c565b9150612e7982612ced565b9150612e85828461270c565b91508190509392505050565b6000602082019050612ea660008301846126a6565b92915050565b6000602082019050612ec160008301846126b5565b92915050565b6000602082019050612edc60008301846126c4565b92915050565b60006020820190508181036000830152612efc81846126d3565b905092915050565b60006020820190508181036000830152612f1d8161273d565b9050919050565b60006020820190508181036000830152612f3d8161277d565b9050919050565b60006020820190508181036000830152612f5d816127e3565b9050919050565b60006020820190508181036000830152612f7d81612823565b9050919050565b60006020820190508181036000830152612f9d81612889565b9050919050565b60006020820190508181036000830152612fbd816128ef565b9050919050565b60006020820190508181036000830152612fdd8161292f565b9050919050565b60006020820190508181036000830152612ffd81612995565b9050919050565b6000602082019050818103600083015261301d816129d5565b9050919050565b6000602082019050818103600083015261303d81612a15565b9050919050565b6000602082019050818103600083015261305d81612a7b565b9050919050565b6000602082019050818103600083015261307d81612abb565b9050919050565b6000602082019050818103600083015261309d81612afb565b9050919050565b600060208201905081810360008301526130bd81612b3b565b9050919050565b600060208201905081810360008301526130dd81612ba1565b9050919050565b600060208201905081810360008301526130fd81612c47565b9050919050565b6000602082019050818103600083015261311d81612c87565b9050919050565b6000602082019050818103600083015261313d81612d2d565b9050919050565b6000602082019050818103600083015261315d81612d93565b9050919050565b6000602082019050818103600083015261317d81612dd3565b9050919050565b60006020820190506131996000830184612e39565b92915050565b60006020820190506131b46000830184612e48565b92915050565b600081519050919050565b600082825260208201905092915050565b600081905092915050565b60006131ec82613336565b91506131f783613336565b9250827fffffffffffffffffffffffffffffffffffffffffffffffffffffffffffffffff0382111561322c5761322b6133dc565b5b828201905092915050565b600061324282613336565b915061324d83613336565b92508261325d5761325c61340b565b5b828204905092915050565b600061327382613336565b915061327e83613336565b9250817fffffffffffffffffffffffffffffffffffffffffffffffffffffffffffffffff04831182151516156132b7576132b66133dc565b5b828202905092915050565b60006132cd82613316565b9050919050565b60008115159050919050565b6000819050919050565b60007fffffffff0000000000000000000000000000000000000000000000000000000082169050919050565b600073ffffffffffffffffffffffffffffffffffffffff82169050919050565b6000819050919050565b600060ff82169050919050565b60005b8381101561336b578082015181840152602081019050613350565b8381111561337a576000848401525b50505050565b600061338b82613336565b9150600082141561339f5761339e6133dc565b5b600182039050919050565b600060028204905060018216806133c257607f821691505b602082108114156133d6576133d561343a565b5b50919050565b7f4e487b7100000000000000000000000000000000000000000000000000000000600052601160045260246000fd5b7f4e487b7100000000000000000000000000000000000000000000000000000000600052601260045260246000fd5b7f4e487b7100000000000000000000000000000000000000000000000000000000600052602260045260246000fd5b6000601f19601f8301169050919050565b613483816132c2565b811461348e57600080fd5b50565b61349a816132e0565b81146134a557600080fd5b50565b6134b1816132ea565b81146134bc57600080fd5b50565b6134c881613336565b81146134d357600080fd5b5056fea2646970667358221220a4f7798e0c02e061749ccb8fb5d2bf5429f8edd58317ca83c21532b4b66ace0664736f6c63430008000033",
  "immutableReferences": {
    "2352": [
      {
        "length": 32,
        "start": 3328
      }
    ]
  },
  "source": "//\"SPDX-License-Identifier:UNLICENSED\"\r\n\r\npragma solidity ^0.8.0;\r\n\r\nimport \"@openzeppelin/contracts/token/ERC20/ERC20.sol\";\r\nimport \"@openzeppelin/contracts/token/ERC20/extensions/ERC20Capped.sol\";\r\nimport \"@openzeppelin/contracts/token/ERC20/extensions/ERC20Pausable.sol\";\r\nimport \"@openzeppelin/contracts/utils/math/SafeMath.sol\";\r\nimport \"@openzeppelin/contracts/access/Ownable.sol\";\r\nimport \"@openzeppelin/contracts/access/AccessControl.sol\";\r\n\r\ncontract ZeeTockenC is  ERC20, ERC20Capped, ERC20Pausable, Ownable, AccessControl {\r\n using SafeMath for uint;\r\n\r\n\r\n    uint private tockenPrice = 10000000000000000;\r\n    uint private initialSupply = 1000* 10**decimals();\r\n    uint private releaseTime; \r\n\r\n    bytes32 public constant TOCKEN_MANAGER=keccak256(\"TOCKEN_MANAGER\");     \r\n  \r\n    constructor()  ERC20(\"Zee Tocken\", \"Z\")     ERC20Capped(initialSupply.mul(4))    {\r\n    \r\n     ERC20._mint(owner(),initialSupply);\r\n     emit Transfer(address(this),owner(),initialSupply);\r\n    \r\n     releaseTime = block.timestamp + 30 days;\r\n    \r\n    _setupRole(TOCKEN_MANAGER,msg.sender);\r\n    \r\n     }\r\n  \r\n   \r\n    function ZtransferOwnership(address _newowner) public  onlyOwner whenNotPaused {\r\n        transferOwnership(_newowner);\r\n    }\r\n    function assignManager(address _manager) public onlyOwner {\r\n        _setupRole(TOCKEN_MANAGER,_manager);\r\n    }\r\n    function changeTockenPrice(uint nPrice) public  whenNotPaused  {\r\n        require(hasRole(TOCKEN_MANAGER,msg.sender), \"only authorized can change price\");\r\n        require(nPrice > 0,\"price must be greater than zero\");\r\n        tockenPrice = nPrice;\r\n    }\r\n    \r\n    function buyTocken(uint _tockens) public payable checkReleaseTime {\r\n       \r\n       require(_tockens > 0 && _tockens < balanceOf(owner()), \"number of tokens are not valid\");\r\n       require(msg.value >= (_tockens*tockenPrice), \"amount of ether is not valid\");\r\n       \r\n        _transfer(owner(),msg.sender,_tockens);\r\n       emit Transfer(owner(), msg.sender, _tockens);\r\n      }\r\n         \r\n    function returnTocken(uint _tockens) public payable  {\r\n       \r\n       require(_tockens > 0 && _tockens < balanceOf(msg.sender), \"number of tokens are not valid\");\r\n       require(msg.value >= (_tockens*tockenPrice), \"amount of ether is not valid\");\r\n       \r\n        _transfer(msg.sender,owner(),_tockens);\r\n       emit Transfer( msg.sender,owner(), _tockens);\r\n      }\r\n    \r\n    \r\n    \r\n    modifier checkReleaseTime() {\r\n        require(block.timestamp >= releaseTime, \"time has not finished yet\");\r\n        _;\r\n    }     \r\n        function _mint(address account, uint256 amount) internal virtual override (ERC20,ERC20Capped) {\r\n        require(ERC20.totalSupply() + amount <= cap(), \"ERC20Capped: cap exceeded\");\r\n        super._mint(account, amount);\r\n    }\r\n         \r\n    function transfer(address recipient, uint256 amount) public checkReleaseTime virtual override returns (bool) {\r\n        _transfer(_msgSender(), recipient, amount);\r\n        return true;\r\n    }\r\n   \r\n   \r\n    function _beforeTokenTransfer(\r\n        address from,\r\n        address to,\r\n        uint256 amount\r\n    ) internal virtual override (ERC20, ERC20Pausable){\r\n        super._beforeTokenTransfer(from, to, amount);\r\n\r\n        require(!paused(), \"ERC20Pausable: token transfer while paused\");\r\n    }\r\n   \r\n   \r\n   receive() external payable  {\r\n   \r\n   buyTocken(msg.value/tockenPrice);\r\n   }\r\n   \r\n    fallback() external payable {\r\n        buyTocken(msg.value/tockenPrice);\r\n   }\r\n\r\nfunction _stop() public  whenNotPaused {\r\n        _pause();\r\n    }\r\n function _start() public virtual whenPaused {\r\n        _unpause();\r\n        \r\n            }\r\n}",
  "sourcePath": "C:/Personal/Zeeshan Documents/PERSONAL/Learning/PIAIC/Quarter3/PIAIC-Assignments/contracts/ZeeTockenC.sol",
  "compiler": {
    "name": "solc",
    "version": "0.8.0+commit.c7dfd78e.Emscripten.clang"
  },
  "schemaVersion": "3.3.3",
  "updatedAt": "2021-08-28T15:29:36.194Z",
  "networkType": "ethereum",
  "devdoc": {
    "kind": "dev",
    "methods": {
      "allowance(address,address)": {
        "details": "See {IERC20-allowance}."
      },
      "approve(address,uint256)": {
        "details": "See {IERC20-approve}. Requirements: - `spender` cannot be the zero address."
      },
      "balanceOf(address)": {
        "details": "See {IERC20-balanceOf}."
      },
      "cap()": {
        "details": "Returns the cap on the token's total supply."
      },
      "decimals()": {
        "details": "Returns the number of decimals used to get its user representation. For example, if `decimals` equals `2`, a balance of `505` tokens should be displayed to a user as `5.05` (`505 / 10 ** 2`). Tokens usually opt for a value of 18, imitating the relationship between Ether and Wei. This is the value {ERC20} uses, unless this function is overridden; NOTE: This information is only used for _display_ purposes: it in no way affects any of the arithmetic of the contract, including {IERC20-balanceOf} and {IERC20-transfer}."
      },
      "decreaseAllowance(address,uint256)": {
        "details": "Atomically decreases the allowance granted to `spender` by the caller. This is an alternative to {approve} that can be used as a mitigation for problems described in {IERC20-approve}. Emits an {Approval} event indicating the updated allowance. Requirements: - `spender` cannot be the zero address. - `spender` must have allowance for the caller of at least `subtractedValue`."
      },
      "getRoleAdmin(bytes32)": {
        "details": "Returns the admin role that controls `role`. See {grantRole} and {revokeRole}. To change a role's admin, use {_setRoleAdmin}."
      },
      "grantRole(bytes32,address)": {
        "details": "Grants `role` to `account`. If `account` had not been already granted `role`, emits a {RoleGranted} event. Requirements: - the caller must have ``role``'s admin role."
      },
      "hasRole(bytes32,address)": {
        "details": "Returns `true` if `account` has been granted `role`."
      },
      "increaseAllowance(address,uint256)": {
        "details": "Atomically increases the allowance granted to `spender` by the caller. This is an alternative to {approve} that can be used as a mitigation for problems described in {IERC20-approve}. Emits an {Approval} event indicating the updated allowance. Requirements: - `spender` cannot be the zero address."
      },
      "name()": {
        "details": "Returns the name of the token."
      },
      "owner()": {
        "details": "Returns the address of the current owner."
      },
      "paused()": {
        "details": "Returns true if the contract is paused, and false otherwise."
      },
      "renounceOwnership()": {
        "details": "Leaves the contract without owner. It will not be possible to call `onlyOwner` functions anymore. Can only be called by the current owner. NOTE: Renouncing ownership will leave the contract without an owner, thereby removing any functionality that is only available to the owner."
      },
      "renounceRole(bytes32,address)": {
        "details": "Revokes `role` from the calling account. Roles are often managed via {grantRole} and {revokeRole}: this function's purpose is to provide a mechanism for accounts to lose their privileges if they are compromised (such as when a trusted device is misplaced). If the calling account had been granted `role`, emits a {RoleRevoked} event. Requirements: - the caller must be `account`."
      },
      "revokeRole(bytes32,address)": {
        "details": "Revokes `role` from `account`. If `account` had been granted `role`, emits a {RoleRevoked} event. Requirements: - the caller must have ``role``'s admin role."
      },
      "supportsInterface(bytes4)": {
        "details": "See {IERC165-supportsInterface}."
      },
      "symbol()": {
        "details": "Returns the symbol of the token, usually a shorter version of the name."
      },
      "totalSupply()": {
        "details": "See {IERC20-totalSupply}."
      },
      "transfer(address,uint256)": {
        "details": "See {IERC20-transfer}. Requirements: - `recipient` cannot be the zero address. - the caller must have a balance of at least `amount`."
      },
      "transferFrom(address,address,uint256)": {
        "details": "See {IERC20-transferFrom}. Emits an {Approval} event indicating the updated allowance. This is not required by the EIP. See the note at the beginning of {ERC20}. Requirements: - `sender` and `recipient` cannot be the zero address. - `sender` must have a balance of at least `amount`. - the caller must have allowance for ``sender``'s tokens of at least `amount`."
      },
      "transferOwnership(address)": {
        "details": "Transfers ownership of the contract to a new account (`newOwner`). Can only be called by the current owner."
      }
    },
    "version": 1
  },
  "userdoc": {
    "kind": "user",
    "methods": {},
    "version": 1
  }
}