{
  "contractName": "ZeeTockenCappedTimeBound",
  "abi": [
    {
      "inputs": [],
      "stateMutability": "nonpayable",
      "type": "constructor"
    },
    {
      "anonymous": false,
      "inputs": [
        {
          "indexed": true,
          "internalType": "address",
          "name": "owner",
          "type": "address"
        },
        {
          "indexed": true,
          "internalType": "address",
          "name": "spender",
          "type": "address"
        },
        {
          "indexed": false,
          "internalType": "uint256",
          "name": "value",
          "type": "uint256"
        }
      ],
      "name": "Approval",
      "type": "event"
    },
    {
      "anonymous": false,
      "inputs": [
        {
          "indexed": true,
          "internalType": "address",
          "name": "from",
          "type": "address"
        },
        {
          "indexed": true,
          "internalType": "address",
          "name": "to",
          "type": "address"
        },
        {
          "indexed": false,
          "internalType": "uint256",
          "name": "value",
          "type": "uint256"
        }
      ],
      "name": "Transfer",
      "type": "event"
    },
    {
      "stateMutability": "payable",
      "type": "fallback"
    },
    {
      "inputs": [],
      "name": "decimals",
      "outputs": [
        {
          "internalType": "uint8",
          "name": "",
          "type": "uint8"
        }
      ],
      "stateMutability": "view",
      "type": "function"
    },
    {
      "inputs": [
        {
          "internalType": "address",
          "name": "spender",
          "type": "address"
        },
        {
          "internalType": "uint256",
          "name": "subtractedValue",
          "type": "uint256"
        }
      ],
      "name": "decreaseAllowance",
      "outputs": [
        {
          "internalType": "bool",
          "name": "",
          "type": "bool"
        }
      ],
      "stateMutability": "nonpayable",
      "type": "function"
    },
    {
      "inputs": [
        {
          "internalType": "address",
          "name": "spender",
          "type": "address"
        },
        {
          "internalType": "uint256",
          "name": "addedValue",
          "type": "uint256"
        }
      ],
      "name": "increaseAllowance",
      "outputs": [
        {
          "internalType": "bool",
          "name": "",
          "type": "bool"
        }
      ],
      "stateMutability": "nonpayable",
      "type": "function"
    },
    {
      "inputs": [],
      "name": "name",
      "outputs": [
        {
          "internalType": "string",
          "name": "",
          "type": "string"
        }
      ],
      "stateMutability": "view",
      "type": "function"
    },
    {
      "inputs": [],
      "name": "owner",
      "outputs": [
        {
          "internalType": "address",
          "name": "",
          "type": "address"
        }
      ],
      "stateMutability": "view",
      "type": "function"
    },
    {
      "inputs": [],
      "name": "symbol",
      "outputs": [
        {
          "internalType": "string",
          "name": "",
          "type": "string"
        }
      ],
      "stateMutability": "view",
      "type": "function"
    },
    {
      "inputs": [],
      "name": "totalSupply",
      "outputs": [
        {
          "internalType": "uint256",
          "name": "",
          "type": "uint256"
        }
      ],
      "stateMutability": "view",
      "type": "function"
    },
    {
      "stateMutability": "payable",
      "type": "receive"
    },
    {
      "inputs": [],
      "name": "cap",
      "outputs": [
        {
          "internalType": "uint256",
          "name": "",
          "type": "uint256"
        }
      ],
      "stateMutability": "view",
      "type": "function"
    },
    {
      "inputs": [
        {
          "internalType": "uint256",
          "name": "nPrice",
          "type": "uint256"
        }
      ],
      "name": "changeTockenPrice",
      "outputs": [],
      "stateMutability": "nonpayable",
      "type": "function"
    },
    {
      "inputs": [
        {
          "internalType": "address",
          "name": "account",
          "type": "address"
        }
      ],
      "name": "balanceOf",
      "outputs": [
        {
          "internalType": "uint256",
          "name": "",
          "type": "uint256"
        }
      ],
      "stateMutability": "view",
      "type": "function"
    },
    {
      "inputs": [
        {
          "internalType": "address",
          "name": "recipient",
          "type": "address"
        },
        {
          "internalType": "uint256",
          "name": "amount",
          "type": "uint256"
        }
      ],
      "name": "transfer",
      "outputs": [
        {
          "internalType": "bool",
          "name": "",
          "type": "bool"
        }
      ],
      "stateMutability": "nonpayable",
      "type": "function"
    },
    {
      "inputs": [
        {
          "internalType": "address",
          "name": "tokenOwner",
          "type": "address"
        },
        {
          "internalType": "address",
          "name": "spender",
          "type": "address"
        }
      ],
      "name": "allowance",
      "outputs": [
        {
          "internalType": "uint256",
          "name": "",
          "type": "uint256"
        }
      ],
      "stateMutability": "view",
      "type": "function"
    },
    {
      "inputs": [
        {
          "internalType": "address",
          "name": "spender",
          "type": "address"
        },
        {
          "internalType": "uint256",
          "name": "amount",
          "type": "uint256"
        }
      ],
      "name": "approve",
      "outputs": [
        {
          "internalType": "bool",
          "name": "",
          "type": "bool"
        }
      ],
      "stateMutability": "nonpayable",
      "type": "function"
    },
    {
      "inputs": [
        {
          "internalType": "address",
          "name": "tokenOwner",
          "type": "address"
        },
        {
          "internalType": "address",
          "name": "recipient",
          "type": "address"
        },
        {
          "internalType": "uint256",
          "name": "amount",
          "type": "uint256"
        }
      ],
      "name": "transferFrom",
      "outputs": [
        {
          "internalType": "bool",
          "name": "",
          "type": "bool"
        }
      ],
      "stateMutability": "nonpayable",
      "type": "function"
    },
    {
      "inputs": [
        {
          "internalType": "uint256",
          "name": "_tockens",
          "type": "uint256"
        }
      ],
      "name": "buyTocken",
      "outputs": [
        {
          "internalType": "bool",
          "name": "",
          "type": "bool"
        }
      ],
      "stateMutability": "payable",
      "type": "function"
    }
  ],
  "bytecode": "0x60a0604052662386f26fc100006008553480156200001c57600080fd5b5066038d7ea4c680006040518060400160405280600a81526020017f5a656520546f636b656e000000000000000000000000000000000000000000008152506040518060400160405280600181526020017f5a000000000000000000000000000000000000000000000000000000000000008152508160039080519060200190620000a99291906200028b565b508060049080519060200190620000c29291906200028b565b505050600081116200010b576040517f08c379a000000000000000000000000000000000000000000000000000000000815260040162000102906200038e565b60405180910390fd5b80608081815250505033600a60006101000a81548173ffffffffffffffffffffffffffffffffffffffff021916908373ffffffffffffffffffffffffffffffffffffffff160217905550620001656200028260201b60201c565b600a62000173919062000439565b620f424062000183919062000576565b60078190555060075460056000600a60009054906101000a900473ffffffffffffffffffffffffffffffffffffffff1673ffffffffffffffffffffffffffffffffffffffff1673ffffffffffffffffffffffffffffffffffffffff16815260200190815260200160002081905550600a60009054906101000a900473ffffffffffffffffffffffffffffffffffffffff1673ffffffffffffffffffffffffffffffffffffffff163073ffffffffffffffffffffffffffffffffffffffff167fddf252ad1be2c89b69c2b068fc378daa952ba7f163c4a11628f55a4df523b3ef600754604051620002749190620003b0565b60405180910390a36200068f565b60006012905090565b8280546200029990620005ee565b90600052602060002090601f016020900481019282620002bd576000855562000309565b82601f10620002d857805160ff191683800117855562000309565b8280016001018555821562000309579182015b8281111562000308578251825591602001919060010190620002eb565b5b5090506200031891906200031c565b5090565b5b80821115620003375760008160009055506001016200031d565b5090565b60006200034a601583620003cd565b91507f45524332304361707065643a20636170206973203000000000000000000000006000830152602082019050919050565b6200038881620005d7565b82525050565b60006020820190508181036000830152620003a9816200033b565b9050919050565b6000602082019050620003c760008301846200037d565b92915050565b600082825260208201905092915050565b6000808291508390505b6001851115620004305780860481111562000408576200040762000624565b5b6001851615620004185780820291505b8081029050620004288562000682565b9450620003e8565b94509492505050565b60006200044682620005d7565b91506200045383620005e1565b9250620004827fffffffffffffffffffffffffffffffffffffffffffffffffffffffffffffffff84846200048a565b905092915050565b6000826200049c57600190506200056f565b81620004ac57600090506200056f565b8160018114620004c55760028114620004d05762000506565b60019150506200056f565b60ff841115620004e557620004e462000624565b5b8360020a915084821115620004ff57620004fe62000624565b5b506200056f565b5060208310610133831016604e8410600b8410161715620005405782820a9050838111156200053a576200053962000624565b5b6200056f565b6200054f8484846001620003de565b9250905081840481111562000569576200056862000624565b5b81810290505b9392505050565b60006200058382620005d7565b91506200059083620005d7565b9250817fffffffffffffffffffffffffffffffffffffffffffffffffffffffffffffffff0483118215151615620005cc57620005cb62000624565b5b828202905092915050565b6000819050919050565b600060ff82169050919050565b600060028204905060018216806200060757607f821691505b602082108114156200061e576200061d62000653565b5b50919050565b7f4e487b7100000000000000000000000000000000000000000000000000000000600052601160045260246000fd5b7f4e487b7100000000000000000000000000000000000000000000000000000000600052602260045260246000fd5b60008160011c9050919050565b608051612044620006a8600039600050506120446000f3fe6080604052600436106100ec5760003560e01c8063679548a01161008a578063a457c2d711610059578063a457c2d714610342578063a9059cbb1461037f578063dd62ed3e146103bc578063fddd3379146103f95761010a565b8063679548a01461028657806370a08231146102af5780638da5cb5b146102ec57806395d89b41146103175761010a565b806323b872dd116100c657806323b872dd146101b6578063313ce567146101f3578063355274ea1461021e57806339509351146102495761010a565b806306fdde0314610123578063095ea7b31461014e57806318160ddd1461018b5761010a565b3661010a57610107600854346101029190611dc9565b610429565b50005b6101206008543461011b9190611dc9565b610429565b50005b34801561012f57600080fd5b506101386106ba565b6040516101459190611b5f565b60405180910390f35b34801561015a57600080fd5b506101756004803603810190610170919061162b565b61074c565b6040516101829190611b44565b60405180910390f35b34801561019757600080fd5b506101a0610923565b6040516101ad9190611d21565b60405180910390f35b3480156101c257600080fd5b506101dd60048036038101906101d891906115dc565b61092d565b6040516101ea9190611b44565b60405180910390f35b3480156101ff57600080fd5b50610208610c78565b6040516102159190611d3c565b60405180910390f35b34801561022a57600080fd5b50610233610c81565b6040516102409190611d21565b60405180910390f35b34801561025557600080fd5b50610270600480360381019061026b919061162b565b610c8b565b60405161027d9190611b44565b60405180910390f35b34801561029257600080fd5b506102ad60048036038101906102a89190611667565b610d37565b005b3480156102bb57600080fd5b506102d660048036038101906102d19190611577565b610e14565b6040516102e39190611d21565b60405180910390f35b3480156102f857600080fd5b50610301610e5d565b60405161030e9190611b29565b60405180910390f35b34801561032357600080fd5b5061032c610e83565b6040516103399190611b5f565b60405180910390f35b34801561034e57600080fd5b506103696004803603810190610364919061162b565b610f15565b6040516103769190611b44565b60405180910390f35b34801561038b57600080fd5b506103a660048036038101906103a1919061162b565b611000565b6040516103b39190611b44565b60405180910390f35b3480156103c857600080fd5b506103e360048036038101906103de91906115a0565b6112f3565b6040516103f09190611d21565b60405180910390f35b610413600480360381019061040e9190611667565b610429565b6040516104209190611b44565b60405180910390f35b6000808211801561043b575060075482105b61047a576040517f08c379a000000000000000000000000000000000000000000000000000000000815260040161047190611c41565b60405180910390fd5b600854826104889190611dfa565b3410156104ca576040517f08c379a00000000000000000000000000000000000000000000000000000000081526004016104c190611c01565b60405180910390fd5b8160056000600a60009054906101000a900473ffffffffffffffffffffffffffffffffffffffff1673ffffffffffffffffffffffffffffffffffffffff1673ffffffffffffffffffffffffffffffffffffffff168152602001908152602001600020546105379190611e54565b60056000600a60009054906101000a900473ffffffffffffffffffffffffffffffffffffffff1673ffffffffffffffffffffffffffffffffffffffff1673ffffffffffffffffffffffffffffffffffffffff1681526020019081526020016000208190555081600560003373ffffffffffffffffffffffffffffffffffffffff1673ffffffffffffffffffffffffffffffffffffffff168152602001908152602001600020546105e79190611d73565b600560003373ffffffffffffffffffffffffffffffffffffffff1673ffffffffffffffffffffffffffffffffffffffff168152602001908152602001600020819055503373ffffffffffffffffffffffffffffffffffffffff16600a60009054906101000a900473ffffffffffffffffffffffffffffffffffffffff1673ffffffffffffffffffffffffffffffffffffffff167fddf252ad1be2c89b69c2b068fc378daa952ba7f163c4a11628f55a4df523b3ef846040516106a99190611d21565b60405180910390a360019050919050565b6060600380546106c990611f10565b80601f01602080910402602001604051908101604052809291908181526020018280546106f590611f10565b80156107425780601f1061071757610100808354040283529160200191610742565b820191906000526020600020905b81548152906001019060200180831161072557829003601f168201915b5050505050905090565b600080339050600073ffffffffffffffffffffffffffffffffffffffff168173ffffffffffffffffffffffffffffffffffffffff1614156107c2576040517f08c379a00000000000000000000000000000000000000000000000000000000081526004016107b990611bc1565b60405180910390fd5b600073ffffffffffffffffffffffffffffffffffffffff168473ffffffffffffffffffffffffffffffffffffffff161415610832576040517f08c379a000000000000000000000000000000000000000000000000000000000815260040161082990611c81565b60405180910390fd5b82600660008373ffffffffffffffffffffffffffffffffffffffff1673ffffffffffffffffffffffffffffffffffffffff16815260200190815260200160002060008673ffffffffffffffffffffffffffffffffffffffff1673ffffffffffffffffffffffffffffffffffffffff168152602001908152602001600020819055508373ffffffffffffffffffffffffffffffffffffffff168173ffffffffffffffffffffffffffffffffffffffff167f8c5be1e5ebec7d5bd14f71427d1e84f3dd0314c0f7b2291e5b200ac8c7c3b925856040516109109190611d21565b60405180910390a3600191505092915050565b6000600254905090565b6000803390506000600660008773ffffffffffffffffffffffffffffffffffffffff1673ffffffffffffffffffffffffffffffffffffffff16815260200190815260200160002060008373ffffffffffffffffffffffffffffffffffffffff1673ffffffffffffffffffffffffffffffffffffffff1681526020019081526020016000205490508381116109f6576040517f08c379a00000000000000000000000000000000000000000000000000000000081526004016109ed90611c21565b60405180910390fd5b8381610a029190611e54565b905083600560008873ffffffffffffffffffffffffffffffffffffffff1673ffffffffffffffffffffffffffffffffffffffff16815260200190815260200160002054610a4f9190611e54565b600560008873ffffffffffffffffffffffffffffffffffffffff1673ffffffffffffffffffffffffffffffffffffffff1681526020019081526020016000208190555083600560008773ffffffffffffffffffffffffffffffffffffffff1673ffffffffffffffffffffffffffffffffffffffff16815260200190815260200160002054610add9190611d73565b600560008773ffffffffffffffffffffffffffffffffffffffff1673ffffffffffffffffffffffffffffffffffffffff168152602001908152602001600020819055508473ffffffffffffffffffffffffffffffffffffffff168673ffffffffffffffffffffffffffffffffffffffff167fddf252ad1be2c89b69c2b068fc378daa952ba7f163c4a11628f55a4df523b3ef86604051610b7d9190611d21565b60405180910390a380600660008873ffffffffffffffffffffffffffffffffffffffff1673ffffffffffffffffffffffffffffffffffffffff16815260200190815260200160002060008473ffffffffffffffffffffffffffffffffffffffff1673ffffffffffffffffffffffffffffffffffffffff168152602001908152602001600020819055508173ffffffffffffffffffffffffffffffffffffffff168673ffffffffffffffffffffffffffffffffffffffff167f8c5be1e5ebec7d5bd14f71427d1e84f3dd0314c0f7b2291e5b200ac8c7c3b92586604051610c639190611d21565b60405180910390a36001925050509392505050565b60006012905090565b6000600954905090565b6000610d2d610c9861137a565b848460016000610ca661137a565b73ffffffffffffffffffffffffffffffffffffffff1673ffffffffffffffffffffffffffffffffffffffff16815260200190815260200160002060008873ffffffffffffffffffffffffffffffffffffffff1673ffffffffffffffffffffffffffffffffffffffff16815260200190815260200160002054610d289190611d73565b611382565b6001905092915050565b600a60009054906101000a900473ffffffffffffffffffffffffffffffffffffffff1673ffffffffffffffffffffffffffffffffffffffff163373ffffffffffffffffffffffffffffffffffffffff1614610dc7576040517f08c379a0000000000000000000000000000000000000000000000000000000008152600401610dbe90611ca1565b60405180910390fd5b60008111610e0a576040517f08c379a0000000000000000000000000000000000000000000000000000000008152600401610e0190611ce1565b60405180910390fd5b8060088190555050565b6000600560008373ffffffffffffffffffffffffffffffffffffffff1673ffffffffffffffffffffffffffffffffffffffff168152602001908152602001600020549050919050565b600a60009054906101000a900473ffffffffffffffffffffffffffffffffffffffff1681565b606060048054610e9290611f10565b80601f0160208091040260200160405190810160405280929190818152602001828054610ebe90611f10565b8015610f0b5780601f10610ee057610100808354040283529160200191610f0b565b820191906000526020600020905b815481529060010190602001808311610eee57829003601f168201915b5050505050905090565b60008060016000610f2461137a565b73ffffffffffffffffffffffffffffffffffffffff1673ffffffffffffffffffffffffffffffffffffffff16815260200190815260200160002060008573ffffffffffffffffffffffffffffffffffffffff1673ffffffffffffffffffffffffffffffffffffffff16815260200190815260200160002054905082811015610fe1576040517f08c379a0000000000000000000000000000000000000000000000000000000008152600401610fd890611d01565b60405180910390fd5b610ff5610fec61137a565b85858403611382565b600191505092915050565b600080339050600073ffffffffffffffffffffffffffffffffffffffff168173ffffffffffffffffffffffffffffffffffffffff161415611076576040517f08c379a000000000000000000000000000000000000000000000000000000000815260040161106d90611b81565b60405180910390fd5b600073ffffffffffffffffffffffffffffffffffffffff168473ffffffffffffffffffffffffffffffffffffffff1614156110e6576040517f08c379a00000000000000000000000000000000000000000000000000000000081526004016110dd90611cc1565b60405180910390fd5b82600560008373ffffffffffffffffffffffffffffffffffffffff1673ffffffffffffffffffffffffffffffffffffffff1681526020019081526020016000205411611167576040517f08c379a000000000000000000000000000000000000000000000000000000000815260040161115e90611be1565b60405180910390fd5b82600560008373ffffffffffffffffffffffffffffffffffffffff1673ffffffffffffffffffffffffffffffffffffffff168152602001908152602001600020546111b29190611e54565b600560008373ffffffffffffffffffffffffffffffffffffffff1673ffffffffffffffffffffffffffffffffffffffff1681526020019081526020016000208190555082600560008673ffffffffffffffffffffffffffffffffffffffff1673ffffffffffffffffffffffffffffffffffffffff168152602001908152602001600020546112409190611d73565b600560008673ffffffffffffffffffffffffffffffffffffffff1673ffffffffffffffffffffffffffffffffffffffff168152602001908152602001600020819055508373ffffffffffffffffffffffffffffffffffffffff168173ffffffffffffffffffffffffffffffffffffffff167fddf252ad1be2c89b69c2b068fc378daa952ba7f163c4a11628f55a4df523b3ef856040516112e09190611d21565b60405180910390a3600191505092915050565b6000600660008473ffffffffffffffffffffffffffffffffffffffff1673ffffffffffffffffffffffffffffffffffffffff16815260200190815260200160002060008373ffffffffffffffffffffffffffffffffffffffff1673ffffffffffffffffffffffffffffffffffffffff16815260200190815260200160002054905092915050565b600033905090565b600073ffffffffffffffffffffffffffffffffffffffff168373ffffffffffffffffffffffffffffffffffffffff1614156113f2576040517f08c379a00000000000000000000000000000000000000000000000000000000081526004016113e990611c61565b60405180910390fd5b600073ffffffffffffffffffffffffffffffffffffffff168273ffffffffffffffffffffffffffffffffffffffff161415611462576040517f08c379a000000000000000000000000000000000000000000000000000000000815260040161145990611ba1565b60405180910390fd5b80600160008573ffffffffffffffffffffffffffffffffffffffff1673ffffffffffffffffffffffffffffffffffffffff16815260200190815260200160002060008473ffffffffffffffffffffffffffffffffffffffff1673ffffffffffffffffffffffffffffffffffffffff168152602001908152602001600020819055508173ffffffffffffffffffffffffffffffffffffffff168373ffffffffffffffffffffffffffffffffffffffff167f8c5be1e5ebec7d5bd14f71427d1e84f3dd0314c0f7b2291e5b200ac8c7c3b925836040516115409190611d21565b60405180910390a3505050565b60008135905061155c81611fe0565b92915050565b60008135905061157181611ff7565b92915050565b60006020828403121561158957600080fd5b60006115978482850161154d565b91505092915050565b600080604083850312156115b357600080fd5b60006115c18582860161154d565b92505060206115d28582860161154d565b9150509250929050565b6000806000606084860312156115f157600080fd5b60006115ff8682870161154d565b93505060206116108682870161154d565b925050604061162186828701611562565b9150509250925092565b6000806040838503121561163e57600080fd5b600061164c8582860161154d565b925050602061165d85828601611562565b9150509250929050565b60006020828403121561167957600080fd5b600061168784828501611562565b91505092915050565b61169981611e88565b82525050565b6116a881611e9a565b82525050565b60006116b982611d57565b6116c38185611d62565b93506116d3818560208601611edd565b6116dc81611fcf565b840191505092915050565b60006116f4601a83611d62565b91507f4e6f7420612076616c69642073656e64657220616464726573730000000000006000830152602082019050919050565b6000611734602283611d62565b91507f45524332303a20617070726f766520746f20746865207a65726f20616464726560008301527f73730000000000000000000000000000000000000000000000000000000000006020830152604082019050919050565b600061179a602383611d62565b91507f424343313a20617070726f76652066726f6d20746865207a65726f206164647260008301527f65737300000000000000000000000000000000000000000000000000000000006020830152604082019050919050565b6000611800601f83611d62565b91507f7472616e7366657220616d6f756e7420657863656564732062616c616e6365006000830152602082019050919050565b6000611840601c83611d62565b91507f616d6f756e74206f66206574686572206973206e6f742076616c6964000000006000830152602082019050919050565b6000611880602783611d62565b91507f424343313a207472616e7366657220616d6f756e74206578636565647320616c60008301527f6c6f77616e6365000000000000000000000000000000000000000000000000006020830152604082019050919050565b60006118e6601e83611d62565b91507f6e756d626572206f6620746f6b656e7320617265206e6f742076616c696400006000830152602082019050919050565b6000611926602483611d62565b91507f45524332303a20617070726f76652066726f6d20746865207a65726f2061646460008301527f72657373000000000000000000000000000000000000000000000000000000006020830152604082019050919050565b600061198c602183611d62565b91507f424343313a20617070726f766520746f20746865207a65726f2061646472657360008301527f73000000000000000000000000000000000000000000000000000000000000006020830152604082019050919050565b60006119f2601b83611d62565b91507f6f6e6c79206f776e65722063616e206368616e676520707269636500000000006000830152602082019050919050565b6000611a32601d83611d62565b91507f4e6f7420612076616c696420726563697069656e7420616464726573730000006000830152602082019050919050565b6000611a72601f83611d62565b91507f7072696365206d7573742062652067726561746572207468616e207a65726f006000830152602082019050919050565b6000611ab2602583611d62565b91507f45524332303a2064656372656173656420616c6c6f77616e63652062656c6f7760008301527f207a65726f0000000000000000000000000000000000000000000000000000006020830152604082019050919050565b611b1481611ec6565b82525050565b611b2381611ed0565b82525050565b6000602082019050611b3e6000830184611690565b92915050565b6000602082019050611b59600083018461169f565b92915050565b60006020820190508181036000830152611b7981846116ae565b905092915050565b60006020820190508181036000830152611b9a816116e7565b9050919050565b60006020820190508181036000830152611bba81611727565b9050919050565b60006020820190508181036000830152611bda8161178d565b9050919050565b60006020820190508181036000830152611bfa816117f3565b9050919050565b60006020820190508181036000830152611c1a81611833565b9050919050565b60006020820190508181036000830152611c3a81611873565b9050919050565b60006020820190508181036000830152611c5a816118d9565b9050919050565b60006020820190508181036000830152611c7a81611919565b9050919050565b60006020820190508181036000830152611c9a8161197f565b9050919050565b60006020820190508181036000830152611cba816119e5565b9050919050565b60006020820190508181036000830152611cda81611a25565b9050919050565b60006020820190508181036000830152611cfa81611a65565b9050919050565b60006020820190508181036000830152611d1a81611aa5565b9050919050565b6000602082019050611d366000830184611b0b565b92915050565b6000602082019050611d516000830184611b1a565b92915050565b600081519050919050565b600082825260208201905092915050565b6000611d7e82611ec6565b9150611d8983611ec6565b9250827fffffffffffffffffffffffffffffffffffffffffffffffffffffffffffffffff03821115611dbe57611dbd611f42565b5b828201905092915050565b6000611dd482611ec6565b9150611ddf83611ec6565b925082611def57611dee611f71565b5b828204905092915050565b6000611e0582611ec6565b9150611e1083611ec6565b9250817fffffffffffffffffffffffffffffffffffffffffffffffffffffffffffffffff0483118215151615611e4957611e48611f42565b5b828202905092915050565b6000611e5f82611ec6565b9150611e6a83611ec6565b925082821015611e7d57611e7c611f42565b5b828203905092915050565b6000611e9382611ea6565b9050919050565b60008115159050919050565b600073ffffffffffffffffffffffffffffffffffffffff82169050919050565b6000819050919050565b600060ff82169050919050565b60005b83811015611efb578082015181840152602081019050611ee0565b83811115611f0a576000848401525b50505050565b60006002820490506001821680611f2857607f821691505b60208210811415611f3c57611f3b611fa0565b5b50919050565b7f4e487b7100000000000000000000000000000000000000000000000000000000600052601160045260246000fd5b7f4e487b7100000000000000000000000000000000000000000000000000000000600052601260045260246000fd5b7f4e487b7100000000000000000000000000000000000000000000000000000000600052602260045260246000fd5b6000601f19601f8301169050919050565b611fe981611e88565b8114611ff457600080fd5b50565b61200081611ec6565b811461200b57600080fd5b5056fea2646970667358221220aac0f2605ebb1587999a43948cd69566be710af170b0adac835ea28ac2cd2c1364736f6c63430008000033",
  "immutableReferences": {},
  "source": "//\"SPDX-License-Identifier:UNLICENSED\"\r\n\r\npragma solidity ^0.8.0;\r\n\r\nimport \"@openzeppelin/contracts/token/ERC20/ERC20.sol\";\r\nimport \"@openzeppelin/contracts/token/ERC20/extensions/ERC20Capped.sol\";\r\n\r\ncontract ZeeTockenCappedTimeBound is  ERC20, ERC20Capped {\r\n \r\n    mapping (address => uint256) private _balances;                           // Like ERC20\r\n    mapping (address => mapping (address => uint256)) private _allowances;   //Like ERC20\r\n    uint256 private _totalSupply;                                            //Like ERC20\r\n    uint256 private tockenPrice = 10000000000000000;                         //Like ERC20\r\n    uint256 private _cap;                                                   // Like ERC20Capped\r\n    address public owner;                                                   // my own declared variable\r\n\r\n    constructor() \r\n    \r\n    ERC20(\"Zee Tocken\", \"Z\") \r\n    \r\n    ERC20Capped(1000000000000000) \r\n    \r\n    {\r\n        owner = msg.sender;\r\n                   \r\n    _totalSupply = 1000000 * 10**decimals();      // decimals; //exponenctial farmola\r\n    \r\n        \r\n        //transfer total supply to owner\r\n        _balances[owner] = _totalSupply;\r\n        \r\n        //fire an event on transfer of tokens\r\n        emit Transfer(address(this),owner,_totalSupply);\r\n     }\r\n     \r\n      /**\r\n     * @dev Returns the cap on the token's total supply.\r\n     */\r\n    function cap() public view virtual  override returns (uint256) {\r\n        return _cap;\r\n    }\r\n\r\n    /**\r\n     * @dev See {ERC20-_mint}.\r\n     */\r\n    function _mint(address account, uint256 amount) internal virtual  override (ERC20,ERC20Capped) {\r\n       \r\n        require(ERC20.totalSupply() + amount <= cap(), \"ERC20Capped: cap exceeded\");\r\n       \r\n        super._mint(account, amount);\r\n    }\r\n    function changeTockenPrice(uint nPrice) public {\r\n        require(msg.sender == owner, \"only owner can change price\");\r\n        require(nPrice > 0,\"price must be greater than zero\");\r\n        tockenPrice = nPrice;\r\n    }\r\n    \r\n \r\n    function balanceOf(address account) public view override returns (uint256) {\r\n        return _balances[account];\r\n    }\r\n\r\n    function transfer(address recipient, uint256 amount) public virtual override returns (bool) {\r\n        address sender = msg.sender;\r\n        require(sender != address(0), \"Not a valid sender address\");\r\n        require(recipient != address(0), \"Not a valid recipient address\");\r\n        require(_balances[sender] > amount,\"transfer amount exceeds balance\");\r\n\r\n        //decrease the balance of token sender account\r\n        _balances[sender] = _balances[sender] - amount;\r\n        \r\n        //increase the balance of token recipient account\r\n        _balances[recipient] = _balances[recipient] + amount;\r\n\r\n        emit Transfer(sender, recipient, amount);\r\n        return true;\r\n    }\r\n\r\n    /**\r\n     * @dev See {IERC20-allowance}.\r\n     */\r\n    function allowance(address tokenOwner, address spender) public view virtual override returns (uint256) {\r\n        return _allowances[tokenOwner][spender]; //return allowed amount\r\n    }\r\n\r\n    /**\r\n     * @dev See {IERC20-approve}.\r\n     *\r\n     * Requirements:\r\n     *\r\n     * - `spender` cannot be the zero address.\r\n     */\r\n    function approve(address spender, uint256 amount) public virtual override returns (bool) {\r\n        address tokenOwner = msg.sender;\r\n        require(tokenOwner != address(0), \"BCC1: approve from the zero address\");\r\n        require(spender != address(0), \"BCC1: approve to the zero address\");\r\n        \r\n        _allowances[tokenOwner][spender] = amount;\r\n        \r\n        emit Approval(tokenOwner, spender, amount);\r\n        return true;\r\n    }\r\n\r\n    /**\r\n     * @dev See {IERC20-transferFrom}.\r\n     *\r\n     * Emits an {Approval} event indicating the updated allowance. This is not\r\n     * required by the EIP. See the note at the beginning of {ERC20};\r\n     *\r\n     * Requirements:\r\n     * - `sender` and `recipient` cannot be the zero address.\r\n     * - `sender` must have a balance of at least `amount`.\r\n     * - the caller must have allowance for ``sender``'s tokens of at least\r\n     * `amount`.\r\n     */\r\n    function transferFrom(address tokenOwner, address recipient, uint256 amount) public virtual override returns (bool) {\r\n        address spender = msg.sender;\r\n        uint256 _allowance = _allowances[tokenOwner][spender]; //how much allowed\r\n        require(_allowance > amount, \"BCC1: transfer amount exceeds allowance\");\r\n        \r\n        //deducting allowance\r\n        _allowance = _allowance - amount;\r\n        \r\n        //--- start transfer execution -- \r\n        \r\n        //owner decrease balance\r\n        _balances[tokenOwner] =_balances[tokenOwner] - amount; \r\n        \r\n        //transfer token to recipient;\r\n        _balances[recipient] = _balances[recipient] + amount;\r\n        \r\n        emit Transfer(tokenOwner, recipient, amount);\r\n        //-- end transfer execution--\r\n        \r\n        //decrease the approval amount;\r\n        _allowances[tokenOwner][spender] = _allowance;\r\n        \r\n        emit Approval(tokenOwner, spender, amount);\r\n        \r\n        return true;\r\n    }\r\n   \r\n   function buyTocken(uint _tockens) public payable returns (bool) {\r\n       \r\n       require(_tockens > 0 && _tockens < _totalSupply, \"number of tokens are not valid\");\r\n       require(msg.value >= (_tockens*tockenPrice), \"amount of ether is not valid\");\r\n       \r\n        _balances[owner] = _balances[owner] - _tockens;\r\n        \r\n        //increase the balance of token recipient account\r\n        _balances[msg.sender] = _balances[msg.sender] + _tockens;\r\n\r\n        emit Transfer(owner, msg.sender, _tockens);\r\n        return true;\r\n\r\n       \r\n         }\r\n         \r\n         \r\n         \r\n   receive() external payable  {\r\n   \r\n  buyTocken(msg.value/tockenPrice);\r\n   }\r\n   \r\n    fallback() external payable {\r\n        buyTocken(msg.value/tockenPrice);\r\n   }\r\n\r\n}",
  "sourcePath": "C:/Personal/Zeeshan Documents/PERSONAL/Learning/PIAIC/Quarter3/PIAIC-Assignments/contracts/ZeeTockenCappedTimeBound.sol",
  "compiler": {
    "name": "solc",
    "version": "0.8.0+commit.c7dfd78e.Emscripten.clang"
  },
  "schemaVersion": "3.3.3",
  "updatedAt": "2021-08-27T13:01:50.507Z",
  "devdoc": {
    "kind": "dev",
    "methods": {
      "allowance(address,address)": {
        "details": "See {IERC20-allowance}."
      },
      "approve(address,uint256)": {
        "details": "See {IERC20-approve}. Requirements: - `spender` cannot be the zero address."
      },
      "balanceOf(address)": {
        "details": "See {IERC20-balanceOf}."
      },
      "cap()": {
        "details": "Returns the cap on the token's total supply."
      },
      "decimals()": {
        "details": "Returns the number of decimals used to get its user representation. For example, if `decimals` equals `2`, a balance of `505` tokens should be displayed to a user as `5.05` (`505 / 10 ** 2`). Tokens usually opt for a value of 18, imitating the relationship between Ether and Wei. This is the value {ERC20} uses, unless this function is overridden; NOTE: This information is only used for _display_ purposes: it in no way affects any of the arithmetic of the contract, including {IERC20-balanceOf} and {IERC20-transfer}."
      },
      "decreaseAllowance(address,uint256)": {
        "details": "Atomically decreases the allowance granted to `spender` by the caller. This is an alternative to {approve} that can be used as a mitigation for problems described in {IERC20-approve}. Emits an {Approval} event indicating the updated allowance. Requirements: - `spender` cannot be the zero address. - `spender` must have allowance for the caller of at least `subtractedValue`."
      },
      "increaseAllowance(address,uint256)": {
        "details": "Atomically increases the allowance granted to `spender` by the caller. This is an alternative to {approve} that can be used as a mitigation for problems described in {IERC20-approve}. Emits an {Approval} event indicating the updated allowance. Requirements: - `spender` cannot be the zero address."
      },
      "name()": {
        "details": "Returns the name of the token."
      },
      "symbol()": {
        "details": "Returns the symbol of the token, usually a shorter version of the name."
      },
      "totalSupply()": {
        "details": "See {IERC20-totalSupply}."
      },
      "transfer(address,uint256)": {
        "details": "See {IERC20-transfer}. Requirements: - `recipient` cannot be the zero address. - the caller must have a balance of at least `amount`."
      },
      "transferFrom(address,address,uint256)": {
        "details": "See {IERC20-transferFrom}. Emits an {Approval} event indicating the updated allowance. This is not required by the EIP. See the note at the beginning of {ERC20}; Requirements: - `sender` and `recipient` cannot be the zero address. - `sender` must have a balance of at least `amount`. - the caller must have allowance for ``sender``'s tokens of at least `amount`."
      }
    },
    "version": 1
  },
  "userdoc": {
    "kind": "user",
    "methods": {},
    "version": 1
  }
}