{
  "contractName": "ZeeTocken",
  "abi": [
    {
      "inputs": [],
      "stateMutability": "nonpayable",
      "type": "constructor"
    },
    {
      "anonymous": false,
      "inputs": [
        {
          "indexed": true,
          "internalType": "address",
          "name": "owner",
          "type": "address"
        },
        {
          "indexed": true,
          "internalType": "address",
          "name": "spender",
          "type": "address"
        },
        {
          "indexed": false,
          "internalType": "uint256",
          "name": "value",
          "type": "uint256"
        }
      ],
      "name": "Approval",
      "type": "event"
    },
    {
      "anonymous": false,
      "inputs": [
        {
          "indexed": true,
          "internalType": "address",
          "name": "from",
          "type": "address"
        },
        {
          "indexed": true,
          "internalType": "address",
          "name": "to",
          "type": "address"
        },
        {
          "indexed": false,
          "internalType": "uint256",
          "name": "value",
          "type": "uint256"
        }
      ],
      "name": "Transfer",
      "type": "event"
    },
    {
      "stateMutability": "payable",
      "type": "fallback",
      "payable": true
    },
    {
      "inputs": [],
      "name": "decimals",
      "outputs": [
        {
          "internalType": "uint256",
          "name": "",
          "type": "uint256"
        }
      ],
      "stateMutability": "view",
      "type": "function",
      "constant": true
    },
    {
      "inputs": [],
      "name": "name",
      "outputs": [
        {
          "internalType": "string",
          "name": "",
          "type": "string"
        }
      ],
      "stateMutability": "view",
      "type": "function",
      "constant": true
    },
    {
      "inputs": [],
      "name": "owner",
      "outputs": [
        {
          "internalType": "address",
          "name": "",
          "type": "address"
        }
      ],
      "stateMutability": "view",
      "type": "function",
      "constant": true
    },
    {
      "inputs": [],
      "name": "symbol",
      "outputs": [
        {
          "internalType": "string",
          "name": "",
          "type": "string"
        }
      ],
      "stateMutability": "view",
      "type": "function",
      "constant": true
    },
    {
      "stateMutability": "payable",
      "type": "receive",
      "payable": true
    },
    {
      "inputs": [
        {
          "internalType": "uint256",
          "name": "nPrice",
          "type": "uint256"
        }
      ],
      "name": "changeTockenPrice",
      "outputs": [],
      "stateMutability": "nonpayable",
      "type": "function"
    },
    {
      "inputs": [],
      "name": "totalSupply",
      "outputs": [
        {
          "internalType": "uint256",
          "name": "",
          "type": "uint256"
        }
      ],
      "stateMutability": "view",
      "type": "function",
      "constant": true
    },
    {
      "inputs": [
        {
          "internalType": "address",
          "name": "account",
          "type": "address"
        }
      ],
      "name": "balanceOf",
      "outputs": [
        {
          "internalType": "uint256",
          "name": "",
          "type": "uint256"
        }
      ],
      "stateMutability": "view",
      "type": "function",
      "constant": true
    },
    {
      "inputs": [
        {
          "internalType": "address",
          "name": "recipient",
          "type": "address"
        },
        {
          "internalType": "uint256",
          "name": "amount",
          "type": "uint256"
        }
      ],
      "name": "transfer",
      "outputs": [
        {
          "internalType": "bool",
          "name": "",
          "type": "bool"
        }
      ],
      "stateMutability": "nonpayable",
      "type": "function"
    },
    {
      "inputs": [
        {
          "internalType": "address",
          "name": "tokenOwner",
          "type": "address"
        },
        {
          "internalType": "address",
          "name": "spender",
          "type": "address"
        }
      ],
      "name": "allowance",
      "outputs": [
        {
          "internalType": "uint256",
          "name": "",
          "type": "uint256"
        }
      ],
      "stateMutability": "view",
      "type": "function",
      "constant": true
    },
    {
      "inputs": [
        {
          "internalType": "address",
          "name": "spender",
          "type": "address"
        },
        {
          "internalType": "uint256",
          "name": "amount",
          "type": "uint256"
        }
      ],
      "name": "approve",
      "outputs": [
        {
          "internalType": "bool",
          "name": "",
          "type": "bool"
        }
      ],
      "stateMutability": "nonpayable",
      "type": "function"
    },
    {
      "inputs": [
        {
          "internalType": "address",
          "name": "tokenOwner",
          "type": "address"
        },
        {
          "internalType": "address",
          "name": "recipient",
          "type": "address"
        },
        {
          "internalType": "uint256",
          "name": "amount",
          "type": "uint256"
        }
      ],
      "name": "transferFrom",
      "outputs": [
        {
          "internalType": "bool",
          "name": "",
          "type": "bool"
        }
      ],
      "stateMutability": "nonpayable",
      "type": "function"
    },
    {
      "inputs": [
        {
          "internalType": "uint256",
          "name": "_tockens",
          "type": "uint256"
        }
      ],
      "name": "buyTocken",
      "outputs": [
        {
          "internalType": "bool",
          "name": "",
          "type": "bool"
        }
      ],
      "stateMutability": "payable",
      "type": "function",
      "payable": true
    }
  ],
  "bytecode": "0x6080604052662386f26fc100006007553480156200001c57600080fd5b506040518060400160405280600a81526020017f5a656520546f636b656e00000000000000000000000000000000000000000000815250600490805190602001906200006a92919062000221565b506040518060400160405280600181526020017f5a0000000000000000000000000000000000000000000000000000000000000081525060059080519060200190620000b892919062000221565b50601060068190555033600360006101000a81548173ffffffffffffffffffffffffffffffffffffffff021916908373ffffffffffffffffffffffffffffffffffffffff160217905550600654600a6200011391906200035a565b620f424062000123919062000497565b600281905550600254600080600360009054906101000a900473ffffffffffffffffffffffffffffffffffffffff1673ffffffffffffffffffffffffffffffffffffffff1673ffffffffffffffffffffffffffffffffffffffff16815260200190815260200160002081905550600360009054906101000a900473ffffffffffffffffffffffffffffffffffffffff1673ffffffffffffffffffffffffffffffffffffffff163073ffffffffffffffffffffffffffffffffffffffff167fddf252ad1be2c89b69c2b068fc378daa952ba7f163c4a11628f55a4df523b3ef600254604051620002139190620002e2565b60405180910390a3620005a3565b8280546200022f9062000502565b90600052602060002090601f0160209004810192826200025357600085556200029f565b82601f106200026e57805160ff19168380011785556200029f565b828001600101855582156200029f579182015b828111156200029e57825182559160200191906001019062000281565b5b509050620002ae9190620002b2565b5090565b5b80821115620002cd576000816000905550600101620002b3565b5090565b620002dc81620004f8565b82525050565b6000602082019050620002f96000830184620002d1565b92915050565b6000808291508390505b6001851115620003515780860481111562000329576200032862000538565b5b6001851615620003395780820291505b8081029050620003498562000596565b945062000309565b94509492505050565b60006200036782620004f8565b91506200037483620004f8565b9250620003a37fffffffffffffffffffffffffffffffffffffffffffffffffffffffffffffffff8484620003ab565b905092915050565b600082620003bd576001905062000490565b81620003cd576000905062000490565b8160018114620003e65760028114620003f15762000427565b600191505062000490565b60ff84111562000406576200040562000538565b5b8360020a91508482111562000420576200041f62000538565b5b5062000490565b5060208310610133831016604e8410600b8410161715620004615782820a9050838111156200045b576200045a62000538565b5b62000490565b620004708484846001620002ff565b925090508184048111156200048a576200048962000538565b5b81810290505b9392505050565b6000620004a482620004f8565b9150620004b183620004f8565b9250817fffffffffffffffffffffffffffffffffffffffffffffffffffffffffffffffff0483118215151615620004ed57620004ec62000538565b5b828202905092915050565b6000819050919050565b600060028204905060018216806200051b57607f821691505b6020821081141562000532576200053162000567565b5b50919050565b7f4e487b7100000000000000000000000000000000000000000000000000000000600052601160045260246000fd5b7f4e487b7100000000000000000000000000000000000000000000000000000000600052602260045260246000fd5b60008160011c9050919050565b611a0880620005b36000396000f3fe6080604052600436106100ab5760003560e01c806370a082311161006457806370a08231146102065780638da5cb5b1461024357806395d89b411461026e578063a9059cbb14610299578063dd62ed3e146102d6578063fddd337914610313576100c9565b806306fdde03146100e2578063095ea7b31461010d57806318160ddd1461014a57806323b872dd14610175578063313ce567146101b2578063679548a0146101dd576100c9565b366100c9576100c6600754346100c1919061179a565b610343565b50005b6100df600754346100da919061179a565b610343565b50005b3480156100ee57600080fd5b506100f76105d0565b60405161010491906115ab565b60405180910390f35b34801561011957600080fd5b50610134600480360381019061012f91906111b8565b61065e565b6040516101419190611590565b60405180910390f35b34801561015657600080fd5b5061015f610835565b60405161016c919061170d565b60405180910390f35b34801561018157600080fd5b5061019c60048036038101906101979190611169565b61083f565b6040516101a99190611590565b60405180910390f35b3480156101be57600080fd5b506101c7610b86565b6040516101d4919061170d565b60405180910390f35b3480156101e957600080fd5b5061020460048036038101906101ff91906111f4565b610b8c565b005b34801561021257600080fd5b5061022d60048036038101906102289190611104565b610c69565b60405161023a919061170d565b60405180910390f35b34801561024f57600080fd5b50610258610cb1565b6040516102659190611575565b60405180910390f35b34801561027a57600080fd5b50610283610cd7565b60405161029091906115ab565b60405180910390f35b3480156102a557600080fd5b506102c060048036038101906102bb91906111b8565b610d65565b6040516102cd9190611590565b60405180910390f35b3480156102e257600080fd5b506102fd60048036038101906102f8919061112d565b611053565b60405161030a919061170d565b60405180910390f35b61032d600480360381019061032891906111f4565b610343565b60405161033a9190611590565b60405180910390f35b60008082118015610355575060025482105b610394576040517f08c379a000000000000000000000000000000000000000000000000000000000815260040161038b9061166d565b60405180910390fd5b600754826103a291906117cb565b3410156103e4576040517f08c379a00000000000000000000000000000000000000000000000000000000081526004016103db9061162d565b60405180910390fd5b81600080600360009054906101000a900473ffffffffffffffffffffffffffffffffffffffff1673ffffffffffffffffffffffffffffffffffffffff1673ffffffffffffffffffffffffffffffffffffffff168152602001908152602001600020546104509190611825565b600080600360009054906101000a900473ffffffffffffffffffffffffffffffffffffffff1673ffffffffffffffffffffffffffffffffffffffff1673ffffffffffffffffffffffffffffffffffffffff16815260200190815260200160002081905550816000803373ffffffffffffffffffffffffffffffffffffffff1673ffffffffffffffffffffffffffffffffffffffff168152602001908152602001600020546104fe9190611744565b6000803373ffffffffffffffffffffffffffffffffffffffff1673ffffffffffffffffffffffffffffffffffffffff168152602001908152602001600020819055503373ffffffffffffffffffffffffffffffffffffffff16600360009054906101000a900473ffffffffffffffffffffffffffffffffffffffff1673ffffffffffffffffffffffffffffffffffffffff167fddf252ad1be2c89b69c2b068fc378daa952ba7f163c4a11628f55a4df523b3ef846040516105bf919061170d565b60405180910390a360019050919050565b600480546105dd906118d4565b80601f0160208091040260200160405190810160405280929190818152602001828054610609906118d4565b80156106565780601f1061062b57610100808354040283529160200191610656565b820191906000526020600020905b81548152906001019060200180831161063957829003601f168201915b505050505081565b600080339050600073ffffffffffffffffffffffffffffffffffffffff168173ffffffffffffffffffffffffffffffffffffffff1614156106d4576040517f08c379a00000000000000000000000000000000000000000000000000000000081526004016106cb906115ed565b60405180910390fd5b600073ffffffffffffffffffffffffffffffffffffffff168473ffffffffffffffffffffffffffffffffffffffff161415610744576040517f08c379a000000000000000000000000000000000000000000000000000000000815260040161073b9061168d565b60405180910390fd5b82600160008373ffffffffffffffffffffffffffffffffffffffff1673ffffffffffffffffffffffffffffffffffffffff16815260200190815260200160002060008673ffffffffffffffffffffffffffffffffffffffff1673ffffffffffffffffffffffffffffffffffffffff168152602001908152602001600020819055508373ffffffffffffffffffffffffffffffffffffffff168173ffffffffffffffffffffffffffffffffffffffff167f8c5be1e5ebec7d5bd14f71427d1e84f3dd0314c0f7b2291e5b200ac8c7c3b92585604051610822919061170d565b60405180910390a3600191505092915050565b6000600254905090565b6000803390506000600160008773ffffffffffffffffffffffffffffffffffffffff1673ffffffffffffffffffffffffffffffffffffffff16815260200190815260200160002060008373ffffffffffffffffffffffffffffffffffffffff1673ffffffffffffffffffffffffffffffffffffffff168152602001908152602001600020549050838111610908576040517f08c379a00000000000000000000000000000000000000000000000000000000081526004016108ff9061164d565b60405180910390fd5b83816109149190611825565b9050836000808873ffffffffffffffffffffffffffffffffffffffff1673ffffffffffffffffffffffffffffffffffffffff168152602001908152602001600020546109609190611825565b6000808873ffffffffffffffffffffffffffffffffffffffff1673ffffffffffffffffffffffffffffffffffffffff16815260200190815260200160002081905550836000808773ffffffffffffffffffffffffffffffffffffffff1673ffffffffffffffffffffffffffffffffffffffff168152602001908152602001600020546109ec9190611744565b6000808773ffffffffffffffffffffffffffffffffffffffff1673ffffffffffffffffffffffffffffffffffffffff168152602001908152602001600020819055508473ffffffffffffffffffffffffffffffffffffffff168673ffffffffffffffffffffffffffffffffffffffff167fddf252ad1be2c89b69c2b068fc378daa952ba7f163c4a11628f55a4df523b3ef86604051610a8b919061170d565b60405180910390a380600160008873ffffffffffffffffffffffffffffffffffffffff1673ffffffffffffffffffffffffffffffffffffffff16815260200190815260200160002060008473ffffffffffffffffffffffffffffffffffffffff1673ffffffffffffffffffffffffffffffffffffffff168152602001908152602001600020819055508173ffffffffffffffffffffffffffffffffffffffff168673ffffffffffffffffffffffffffffffffffffffff167f8c5be1e5ebec7d5bd14f71427d1e84f3dd0314c0f7b2291e5b200ac8c7c3b92586604051610b71919061170d565b60405180910390a36001925050509392505050565b60065481565b600360009054906101000a900473ffffffffffffffffffffffffffffffffffffffff1673ffffffffffffffffffffffffffffffffffffffff163373ffffffffffffffffffffffffffffffffffffffff1614610c1c576040517f08c379a0000000000000000000000000000000000000000000000000000000008152600401610c13906116ad565b60405180910390fd5b60008111610c5f576040517f08c379a0000000000000000000000000000000000000000000000000000000008152600401610c56906116ed565b60405180910390fd5b8060078190555050565b60008060008373ffffffffffffffffffffffffffffffffffffffff1673ffffffffffffffffffffffffffffffffffffffff168152602001908152602001600020549050919050565b600360009054906101000a900473ffffffffffffffffffffffffffffffffffffffff1681565b60058054610ce4906118d4565b80601f0160208091040260200160405190810160405280929190818152602001828054610d10906118d4565b8015610d5d5780601f10610d3257610100808354040283529160200191610d5d565b820191906000526020600020905b815481529060010190602001808311610d4057829003601f168201915b505050505081565b600080339050600073ffffffffffffffffffffffffffffffffffffffff168173ffffffffffffffffffffffffffffffffffffffff161415610ddb576040517f08c379a0000000000000000000000000000000000000000000000000000000008152600401610dd2906115cd565b60405180910390fd5b600073ffffffffffffffffffffffffffffffffffffffff168473ffffffffffffffffffffffffffffffffffffffff161415610e4b576040517f08c379a0000000000000000000000000000000000000000000000000000000008152600401610e42906116cd565b60405180910390fd5b826000808373ffffffffffffffffffffffffffffffffffffffff1673ffffffffffffffffffffffffffffffffffffffff1681526020019081526020016000205411610ecb576040517f08c379a0000000000000000000000000000000000000000000000000000000008152600401610ec29061160d565b60405180910390fd5b826000808373ffffffffffffffffffffffffffffffffffffffff1673ffffffffffffffffffffffffffffffffffffffff16815260200190815260200160002054610f159190611825565b6000808373ffffffffffffffffffffffffffffffffffffffff1673ffffffffffffffffffffffffffffffffffffffff16815260200190815260200160002081905550826000808673ffffffffffffffffffffffffffffffffffffffff1673ffffffffffffffffffffffffffffffffffffffff16815260200190815260200160002054610fa19190611744565b6000808673ffffffffffffffffffffffffffffffffffffffff1673ffffffffffffffffffffffffffffffffffffffff168152602001908152602001600020819055508373ffffffffffffffffffffffffffffffffffffffff168173ffffffffffffffffffffffffffffffffffffffff167fddf252ad1be2c89b69c2b068fc378daa952ba7f163c4a11628f55a4df523b3ef85604051611040919061170d565b60405180910390a3600191505092915050565b6000600160008473ffffffffffffffffffffffffffffffffffffffff1673ffffffffffffffffffffffffffffffffffffffff16815260200190815260200160002060008373ffffffffffffffffffffffffffffffffffffffff1673ffffffffffffffffffffffffffffffffffffffff16815260200190815260200160002054905092915050565b6000813590506110e9816119a4565b92915050565b6000813590506110fe816119bb565b92915050565b60006020828403121561111657600080fd5b6000611124848285016110da565b91505092915050565b6000806040838503121561114057600080fd5b600061114e858286016110da565b925050602061115f858286016110da565b9150509250929050565b60008060006060848603121561117e57600080fd5b600061118c868287016110da565b935050602061119d868287016110da565b92505060406111ae868287016110ef565b9150509250925092565b600080604083850312156111cb57600080fd5b60006111d9858286016110da565b92505060206111ea858286016110ef565b9150509250929050565b60006020828403121561120657600080fd5b6000611214848285016110ef565b91505092915050565b61122681611859565b82525050565b6112358161186b565b82525050565b600061124682611728565b6112508185611733565b93506112608185602086016118a1565b61126981611993565b840191505092915050565b6000611281601a83611733565b91507f4e6f7420612076616c69642073656e64657220616464726573730000000000006000830152602082019050919050565b60006112c1602383611733565b91507f424343313a20617070726f76652066726f6d20746865207a65726f206164647260008301527f65737300000000000000000000000000000000000000000000000000000000006020830152604082019050919050565b6000611327601f83611733565b91507f7472616e7366657220616d6f756e7420657863656564732062616c616e6365006000830152602082019050919050565b6000611367601c83611733565b91507f616d6f756e74206f66206574686572206973206e6f742076616c6964000000006000830152602082019050919050565b60006113a7602783611733565b91507f424343313a207472616e7366657220616d6f756e74206578636565647320616c60008301527f6c6f77616e6365000000000000000000000000000000000000000000000000006020830152604082019050919050565b600061140d601e83611733565b91507f6e756d626572206f6620746f6b656e7320617265206e6f742076616c696400006000830152602082019050919050565b600061144d602183611733565b91507f424343313a20617070726f766520746f20746865207a65726f2061646472657360008301527f73000000000000000000000000000000000000000000000000000000000000006020830152604082019050919050565b60006114b3601b83611733565b91507f6f6e6c79206f776e65722063616e206368616e676520707269636500000000006000830152602082019050919050565b60006114f3601d83611733565b91507f4e6f7420612076616c696420726563697069656e7420616464726573730000006000830152602082019050919050565b6000611533601f83611733565b91507f7072696365206d7573742062652067726561746572207468616e207a65726f006000830152602082019050919050565b61156f81611897565b82525050565b600060208201905061158a600083018461121d565b92915050565b60006020820190506115a5600083018461122c565b92915050565b600060208201905081810360008301526115c5818461123b565b905092915050565b600060208201905081810360008301526115e681611274565b9050919050565b60006020820190508181036000830152611606816112b4565b9050919050565b600060208201905081810360008301526116268161131a565b9050919050565b600060208201905081810360008301526116468161135a565b9050919050565b600060208201905081810360008301526116668161139a565b9050919050565b6000602082019050818103600083015261168681611400565b9050919050565b600060208201905081810360008301526116a681611440565b9050919050565b600060208201905081810360008301526116c6816114a6565b9050919050565b600060208201905081810360008301526116e6816114e6565b9050919050565b6000602082019050818103600083015261170681611526565b9050919050565b60006020820190506117226000830184611566565b92915050565b600081519050919050565b600082825260208201905092915050565b600061174f82611897565b915061175a83611897565b9250827fffffffffffffffffffffffffffffffffffffffffffffffffffffffffffffffff0382111561178f5761178e611906565b5b828201905092915050565b60006117a582611897565b91506117b083611897565b9250826117c0576117bf611935565b5b828204905092915050565b60006117d682611897565b91506117e183611897565b9250817fffffffffffffffffffffffffffffffffffffffffffffffffffffffffffffffff048311821515161561181a57611819611906565b5b828202905092915050565b600061183082611897565b915061183b83611897565b92508282101561184e5761184d611906565b5b828203905092915050565b600061186482611877565b9050919050565b60008115159050919050565b600073ffffffffffffffffffffffffffffffffffffffff82169050919050565b6000819050919050565b60005b838110156118bf5780820151818401526020810190506118a4565b838111156118ce576000848401525b50505050565b600060028204905060018216806118ec57607f821691505b60208210811415611900576118ff611964565b5b50919050565b7f4e487b7100000000000000000000000000000000000000000000000000000000600052601160045260246000fd5b7f4e487b7100000000000000000000000000000000000000000000000000000000600052601260045260246000fd5b7f4e487b7100000000000000000000000000000000000000000000000000000000600052602260045260246000fd5b6000601f19601f8301169050919050565b6119ad81611859565b81146119b857600080fd5b50565b6119c481611897565b81146119cf57600080fd5b5056fea264697066735822122055d6912081645e1883de54238cbcb00c8407604b645ac0bebd94447e0c76546e64736f6c63430008000033",
  "immutableReferences": {},
  "source": "//\"SPDX-License-Identifier:UNLICENSED\"\r\npragma solidity ^0.8.0;\r\n\r\ninterface IERC20 {\r\n  \r\n    function totalSupply() external view returns (uint256);\r\n\r\n    function balanceOf(address account) external view returns (uint256);\r\n\r\n    function transfer(address recipient, uint256 amount) external returns (bool);\r\n\r\n    function allowance(address owner, address spender) external view returns (uint256);\r\n\r\n    function approve(address spender, uint256 amount) external returns (bool);\r\n\r\n    function transferFrom(address sender, address recipient, uint256 amount) external returns (bool);\r\n\r\n    event Transfer(address indexed from, address indexed to, uint256 value);\r\n\r\n    event Approval(address indexed owner, address indexed spender, uint256 value);\r\n}\r\n\r\n/*\r\n1. Anyone can get the token by paying against ether\r\n2. Add fallback payable method to Issue token based on Ether received. Say 1 Ether = 100 tokens.\r\n3. There should be an additional method to adjust the price that allows the owner to adjust the price.\r\n*/\r\n\r\ncontract ZeeTocken is IERC20{\r\n \r\n    mapping (address => uint256) private _balances;\r\n  \r\n    mapping (address => mapping (address => uint256)) private _allowances;\r\n  \r\n    uint256 private _totalSupply;\r\n\r\n    address public owner;\r\n    \r\n    string public name;\r\n  \r\n    string public symbol;\r\n  \r\n    uint public decimals;\r\n \r\n    uint private tockenPrice = 10000000000000000;\r\n \r\n    constructor ()  {\r\n        name = \"Zee Tocken\";\r\n        symbol = \"Z\";\r\n        decimals = 16;  //1  - 1000 PKR 1 = 100 Paisa 2 decimal\r\n        owner = msg.sender;\r\n        \r\n        //1 million tokens to be generated\r\n        _totalSupply = 1000000 * 10**decimals; //exponenctial farmola\r\n        //transfer total supply to owner\r\n        _balances[owner] = _totalSupply;\r\n        \r\n        //fire an event on transfer of tokens\r\n        emit Transfer(address(this),owner,_totalSupply);\r\n     }\r\n   \r\n    function changeTockenPrice(uint nPrice) public {\r\n        require(msg.sender == owner, \"only owner can change price\");\r\n        require(nPrice > 0,\"price must be greater than zero\");\r\n        tockenPrice = nPrice;\r\n    }\r\n    \r\n    function totalSupply() public view override returns (uint256) {\r\n        return _totalSupply;\r\n    }\r\n\r\n    function balanceOf(address account) public view override returns (uint256) {\r\n        return _balances[account];\r\n    }\r\n\r\n    function transfer(address recipient, uint256 amount) public virtual override returns (bool) {\r\n        address sender = msg.sender;\r\n        require(sender != address(0), \"Not a valid sender address\");\r\n        require(recipient != address(0), \"Not a valid recipient address\");\r\n        require(_balances[sender] > amount,\"transfer amount exceeds balance\");\r\n\r\n        //decrease the balance of token sender account\r\n        _balances[sender] = _balances[sender] - amount;\r\n        \r\n        //increase the balance of token recipient account\r\n        _balances[recipient] = _balances[recipient] + amount;\r\n\r\n        emit Transfer(sender, recipient, amount);\r\n        return true;\r\n    }\r\n\r\n    /**\r\n     * @dev See {IERC20-allowance}.\r\n     */\r\n    function allowance(address tokenOwner, address spender) public view virtual override returns (uint256) {\r\n        return _allowances[tokenOwner][spender]; //return allowed amount\r\n    }\r\n\r\n    /**\r\n     * @dev See {IERC20-approve}.\r\n     *\r\n     * Requirements:\r\n     *\r\n     * - `spender` cannot be the zero address.\r\n     */\r\n    function approve(address spender, uint256 amount) public virtual override returns (bool) {\r\n        address tokenOwner = msg.sender;\r\n        require(tokenOwner != address(0), \"BCC1: approve from the zero address\");\r\n        require(spender != address(0), \"BCC1: approve to the zero address\");\r\n        \r\n        _allowances[tokenOwner][spender] = amount;\r\n        \r\n        emit Approval(tokenOwner, spender, amount);\r\n        return true;\r\n    }\r\n\r\n    /**\r\n     * @dev See {IERC20-transferFrom}.\r\n     *\r\n     * Emits an {Approval} event indicating the updated allowance. This is not\r\n     * required by the EIP. See the note at the beginning of {ERC20};\r\n     *\r\n     * Requirements:\r\n     * - `sender` and `recipient` cannot be the zero address.\r\n     * - `sender` must have a balance of at least `amount`.\r\n     * - the caller must have allowance for ``sender``'s tokens of at least\r\n     * `amount`.\r\n     */\r\n    function transferFrom(address tokenOwner, address recipient, uint256 amount) public virtual override returns (bool) {\r\n        address spender = msg.sender;\r\n        uint256 _allowance = _allowances[tokenOwner][spender]; //how much allowed\r\n        require(_allowance > amount, \"BCC1: transfer amount exceeds allowance\");\r\n        \r\n        //deducting allowance\r\n        _allowance = _allowance - amount;\r\n        \r\n        //--- start transfer execution -- \r\n        \r\n        //owner decrease balance\r\n        _balances[tokenOwner] =_balances[tokenOwner] - amount; \r\n        \r\n        //transfer token to recipient;\r\n        _balances[recipient] = _balances[recipient] + amount;\r\n        \r\n        emit Transfer(tokenOwner, recipient, amount);\r\n        //-- end transfer execution--\r\n        \r\n        //decrease the approval amount;\r\n        _allowances[tokenOwner][spender] = _allowance;\r\n        \r\n        emit Approval(tokenOwner, spender, amount);\r\n        \r\n        return true;\r\n    }\r\n   \r\n   function buyTocken(uint _tockens) public payable returns (bool) {\r\n       \r\n       require(_tockens > 0 && _tockens < _totalSupply, \"number of tokens are not valid\");\r\n       require(msg.value >= (_tockens*tockenPrice), \"amount of ether is not valid\");\r\n       \r\n        _balances[owner] = _balances[owner] - _tockens;\r\n        \r\n        //increase the balance of token recipient account\r\n        _balances[msg.sender] = _balances[msg.sender] + _tockens;\r\n\r\n        emit Transfer(owner, msg.sender, _tockens);\r\n        return true;\r\n\r\n       \r\n         }\r\n   receive() external payable  {\r\n   \r\n  buyTocken(msg.value/tockenPrice);\r\n   }\r\n   \r\n    fallback() external payable {\r\n        buyTocken(msg.value/tockenPrice);\r\n   }\r\n\r\n}",
  "sourcePath": "C:/Personal/Zeeshan Documents/PERSONAL/Learning/PIAIC/Quarter3/PIAIC-Assignments/contracts/ZeeTockenA.sol",
  "compiler": {
    "name": "solc",
    "version": "0.8.0+commit.c7dfd78e.Emscripten.clang"
  },
  "schemaVersion": "3.3.3",
  "updatedAt": "2021-09-17T16:53:11.710Z",
  "networkType": "ethereum",
  "devdoc": {
    "kind": "dev",
    "methods": {
      "allowance(address,address)": {
        "details": "See {IERC20-allowance}."
      },
      "approve(address,uint256)": {
        "details": "See {IERC20-approve}. Requirements: - `spender` cannot be the zero address."
      },
      "transferFrom(address,address,uint256)": {
        "details": "See {IERC20-transferFrom}. Emits an {Approval} event indicating the updated allowance. This is not required by the EIP. See the note at the beginning of {ERC20}; Requirements: - `sender` and `recipient` cannot be the zero address. - `sender` must have a balance of at least `amount`. - the caller must have allowance for ``sender``'s tokens of at least `amount`."
      }
    },
    "version": 1
  },
  "userdoc": {
    "kind": "user",
    "methods": {},
    "version": 1
  }
}